:400000000080002011000000590400005904000008B5044B1A6803F53F5302331A6000F01DFA00BFFA46004010B5054C237833B9044B13B10448AFF300800123237010BDA6
:40004000A882FF1F00000000E8160000084B10B51BB108480849AFF300800848036803B910BD074B002BFBD0BDE81040184700BF00000000E8160000AC82FF1F0881FF1F03
:4000800000000000054B1B681BB90122034B1A6070470022014B1A60704700BF9086FF1F0322014B1A7070477D64004010B50446FFF7F6FF0CE0032001F000FA022000F08C
:4000C0005BFB082000F058FB642000F081FC013C002CF0DC012001F0F1F9022000F04CFB082000F049FB10BD08B5FFF7D9FF092001F0E4F9022000F03FFB082000F03CFB7E
:40010000642000F065FC012001F0D8F9022000F033FB082000F030FB08BD00BF08B50220FFF7C4FF4FF4C87000F052FC0220FFF7BDFF4FF4C87000F04BFC0220FFF7B6FF5C
:400140004FF4C87000F044FC0720FFF7AFFF0022194B1A6005E0FFF7C7FF174A136801331360154B1B68022BF5DD0022124B1A601DE0FFF795FF092001F0A0F9022000F0BE
:40018000FBFA082000F0F8FA642000F021FC012001F094F9022000F0EFFA082000F0ECFA642000F015FC044A136801331360024B1B68022BDDDD08BD2089FF1F08B50820FA
:4001C00000F0DAFA002000F0EBFA4FF42F7000F0FFFB012000F0E4FA4FF42F7000F0F8FB002000F0DDFA4FF42F7000F0F1FB012000F0D6FA08BD00BF08B501F0ABF9024820
:4002000001F09AF908BD00BF8500000008B501F01DFA30B10F2001F0B7F90F2001F0BAF908BD232001F0B0F9232001F0B3F908BD0022014B1A6070479086FF1F2DE9F04187
:40024000ADF5EA4D8CB0FFF7B9FFFFF7F1FF01F0EFF9FFF7D1FF00F06FFC00F09FF800F031FE4120022100F011FE4FF4167000F0E5F80420012100F095FD62B60120FFF725
:4002800015FFC82000F0A4FB0120FFF70FFF404B1B68002BFBD0FFF741FF002600F0A4F8022000F069FA03223A4B1A7016F0010F01D0042300E00023374A1370082000F0CC
:4002C0005BFA4FF00008334B83F80080404641466322134600F09EFC1BE004EB44054FF4967303FB08550DEB050700F0DDFC0DF80500C0F307237B70C0F30740B8700134A4
:40030000E4B200E00024632CE7D908F101085FFA88F8B8F1630FF5D900F020FDDC208C2140F23F12EF2300F0A5FC002519E004EB44024FF4967303FB05230DEB03021DF85D
:400340000330507843EA0023907843EA004000F0EDFC0134E4B200E00024632CE7D90135EDB2632DF8D900F0F9FCFFF74FFF092001F0A4F8022000F0FFF9082000F0FCF99A
:400380004FF4967000F024FB0136F6B286E700BF9086FF1F7D6400407964004010B50120014641F6FF724FF4804301F08DF80D4C84F8C00300F0CEFA84F8C103A1B246F2FC
:4003C000484200F0F5FA94F8C1034FF47071FE22012300F0D9FA94F8C003002100F046FA10BD00BFC482FF1F70B500F0D1F9054600F046FD064600F05BFD0020014640F2FF
:400400003F12EF2300F036FC0A4B1B7813F0020FFAD0094C0020207000F0AEF900F048FD032000F0A9F900F099FC2670284600F0A3F970BD686400407D64004010B5C0F304
:400440000A04210A2A20090100F020FD2B20E1B200F01CFD10BD00BFFEE700BF08B5104E104D16E029686B68AC68002204E051F8040B43F8040B0432A242F8D1E8680022E8
:4004800003E0002143F8041B04328242F9D11035013E002EE6D101F0EDF8FFF7CFFEFEE7010000001818000008B5134A134B1A60134A136843F40073136000230AE0032BE0
:4004C00003D8104A52F8231000E00F490F4A42F8231001332F2BF2D90D4B1A780D4B1A700A4A0D4B1A6000F0BFF800F075F900220A4B1A6008BD00BF0004FA050CED00E0AB
:4005000014ED00E000000000590400000080FF1FBC7600400481FF1F08ED00E00081FF1FFEE700BFF0B40022174611E050F82760F3B226F0FF0608E001EB420511F8124099
:400540006D78A5550132013BDBB2002BF4D10137192FEBD9F0BC7047064B1B78DBB203F00701054A11701B09013213704422034B1A707047CF0100496E58004076580040D1
:4005800038B50522294B1A801823294A13700921023211800232137041F2BF210232118002321370022102F27622117008214FF040221170032102F5007211701D4A127839
:4005C000D2B21D490A701D4A138042F251221C4B1A80002419250CE01A4B1B7803F0010343EA440404F003044FF4F07000F0E4F8013D0DB1032CEFD115B90320FFF790FF78
:40060000114B4FF480721A8007221A7000220F490A704820023108701A700222033B1A700B4A137843F00703137038BD804000408240004008010049A146004022420040AB
:4006400020420040254200400440004006400040A243004008B50A46002101F03CF808BD08B501F02DF808BD10B572B661222F4B1A70FFF785FF00240CE02D4963001A1948
:4006800052000A4423445B00C8589188FFF7E2FF0134E4B2072CF0D94FF090402549FFF741FF25480421FFF7D5FF24480421FFF7D1FF234A137843F002031370103213781B
:4006C00043F0020313701F4C237843F040032370A2F58632513A137843F0100313701A481A490A22FFF7BCFF19481A490822FFF7B7FF194819490A22FFF7B2FF184819496E
:400700000822FFF7ADFF184818490A22FFF7A8FF174A137843F008031370FFF71DFF154821460E22FFF79CFF10BD00BF00480040EC160000680000480076004008760040E5
:4007400003500140A043004000510040BC040048C2510040C8040048F0510040D004004822510040DC04004830510040E404004822430040B0430040044A137803F0F003C2
:4007800000F00F0018431070704700BFF0510040024B187800F00F00704700BFF1510040044A137803F0FB03800000F00400184310707047305100400230800803D000BFB7
:4007C00001380046FCD17047EFF3108072B6704780F31088704700BF0B4A7F2313708021517007E0DA0002F1804202F5F042013BDBB21370002BF5D1DB0003F1804303F5E2
:40080000F04300221A7070470C81FF1F172815D831B103010A495A5C42F020025A5405E0030107495A5C02F0DF025A540001044A835C43F0010383540020704701207047FF
:400840001070004017280CD80001074BC1180A7942F004020A71C25C42F00102C254002070470120704700BF1070004017280BD80001064A835C03F0F10301F0070143EA3D
:400880004101815400207047012070471070004041F6FF73994201D14FF4005141F6FF739A4201D14FF40052172808D8C00000F1804000F5EC408180C280002070470120F0
:4008C000704700BF172805D8034B03EB0010417200207047012070471070004017280FD831B1094B03EB00135B7A03F07F030B7042B1054B03EB0010037A137000207047BE
:4009000001207047002070471070004017281BD810B4C00000F1804404F5EC44D201D2B201F07F01114321709DF804201201D2B203F00F03134363709DF8083003F00F03B7
:40094000A3700020E07001E0012070475DF8044B704700BF10B5FFF737FF0A4B5B78182B0BD9084A1478013B5370E30003F1804303F5F0431B78137000E0FF24FFF728FF09
:40098000204610BD0C81FF1F10F0800F0CD111F4704F0BD1C00000F1804000F5F04001808270C37000207047012070470120704710F0800F08D1C00000F1804000F5F0408C
:4009C0008180C280002070470120704701BE704710B5044605E0084B1868FFF7EDFEA4F50044B4F5004FF6D8034B586800FB04F0FFF7E2FE10BD00BF1481FF1F70B50446C3
:400A00000E46074B1D681F2802D90020FFF7DEFF04F01F04103455F8240045F8246070BD08ED00E038B504460D46072902D90020FFF7CCFF1F2C02D90020FFF7C7FF04F07B
:400A40001F0000F1604000F564406D01EDB2057038BD00BF2DE9F04107460E46FFF798FE0546DFF8588098F80040E4B20320FFF783FE012388F800300E4B1B7813F0010FB6
:400A8000FAD047F480770C4B1F800A4B1B7813F0010FFAD0B6B2084B1E80064B1B7813F0020FFAD0054B1C702846FFF765FEBDE8F08100BF68640040906800407D64004087
:400AC0002DE9F84380460F461646FFF761FE0546DFF8609099F80040E4B20320FFF74CFE012389F80030114B1B7813F0010FFAD048F480780E4BA3F80080002208E00B4B54
:400B00001B7813F0010FFAD0B95C094B198001329642F4DC054B1B7813F0020FFAD0054B1C702846FFF728FEBDE8F88368640040906800407D640040F0B589B0FFF728FEC2
:400B40000746204D2E78F6B20320FFF715FE01232B701D4C40F2011323800520FFF738FF40F2111323806420FFF732FF40F2291323803620E821FFF76DFF144B04AC1868D9
:400B800059689A6807C499899A7B2180A2706C4653F8100F59689A6807C49A899B7B2280A370E02004A90F22FFF78AFFE12069460F22FFF785FF2E703846FFF7DDFD09B0C8
:400BC000F0BD00BF7D640040906800401C17000010B582B0040A8DF804408DF80500100A8DF806008DF807200A0A8DF800208DF801101A0A8DF802208DF803302A2001A98E
:400C00000422FFF75DFF2B2069460422FFF758FF02B010BDF8B507460E4615461C460320FFF7AAFD0122104B1A70384631462A462346FFF7CDFF4FF497720C4B1A800C4B59
:400C40001B7813F0020FFAD00020074B187000F005FD1820FFF7B0FD012000F0FFFC0620FFF7AAFDF8BD00BF7D6400409068004068640040F8B507460E4615461C46032066
:400C8000FFF77AFD0122064B1A70384631462A462346FFF79DFF4FF49672024B1A80F8BD7D6400409068004010B582B0002000F0D5FC1820FFF780FD1B4C23788DF80030EF
:400CC000012000F0CBFC0620FFF776FD002000F0C5FC1820FFF770FD23788DF80130012000F0BCFC0620FFF767FD002000F0B6FC1820FFF761FD23788DF80230012000F0D6
:400D0000ADFC0620FFF758FD009B0020DAB262F30700C3F3072262F30F20C3F3074363F3174002B010BD00BF2151004082B00190084B1B7813F0020FFAD09DF80420064B65
:400D40001A809DF805201A809DF806201A8002B0704700BF6864004090680040084B1A78D2B2012119704FF4807103F213431980044B1B7813F0010FFAD0014B1A7070474C
:400D80007D64004068640040014B188880B2704784400040024B187800F00700704700BF8640004070B504460D46FFF7F3FF0646FFF7EAFF844257D02C4B1B7803F0020319
:400DC000DAB296B900B184B938B9294B1C80294A137803F0BF03137070BD264A137843F040031370224B1C8070BD22B3002322490B7002260F310E7004310B700C390B7860
:400E000003F07F030B701B4B1B7813F0080F00D08CB91A4B18800721013B1970164B1B7813F0010FFAD111490B7803F0FD030B700021114B19700D4B1B7813F0020F0DD0B1
:400E40000E4B1C800DB1032200E001220A4B1A70094B1B7813F0010FFAD170BD044B1C8002490B7813430B7070BD00BFA2430040844000408640004001400040024000401E
:400E8000014B1878704700BF7D64004038B505460C463020002100F061FA0028F9D1284600F0B8FA204600F0B5FA00F097FA38BD08B500F08BF80028FBD100F087F8002841
:400EC000FBD008BD10B500F0CFF812208021FFF7DDFF0120FFF77CFD002407E0254B03EB44035978FFF7D2FF0134A4B2214B13F81400FF28F2D1002405E01F4B195DFFF78A
:400F0000C5FF0134A4B21D4B185DFF28F5D1012001464FF4804241F6FF7300F039F8184C2070FFF717FD607046F24D41154A92B2FFF73EFD627810464FF420710623FFF7D6
:400F400023FD20780021FFF791FC0F4800F0A8FA0E4B1A781A781A781B782078FFF772FC20786178FFF7AEFC20780121FFF74EFC10BD00BF8817000054170000781700005E
:400F80008C86FF1FA086FF1F3582FF1F4D640040F0B583B086460F4616461D460A4C0023237000930193184671463A46FFF7AEFC207831462A46FFF76BFC20780221FFF74A
:400FC00055FC207803B0F0BD2481FF1F024B187800F00100704700BF0151004010B50222114B1A7081220E3B1A70082202331A700C2211331A70002401331C704FF400427C
:401000000A4B1A600F200721FFF70CFD0F200849FFF7F4FC1022074B1A70074B1C70074B1C70074B1C7010BDD649004080E100E0911000002489FF1F3889FF1F2989FF1FF5
:401040003089FF1F08B5FFF7BFFB064A137843F0040313701032137843F004031370FFF7B7FB08BDA543004008B5074B1B7823B9FFF7B4FF0122044B1A70FFF7E3FF4FF437
:401080000042024B1A6008BD8E86FF1F00E100E038B5A44B1C78E4B2A34B1B7813F0400F00F0378114F0010F00F01B819E4B1B78453B052B00F21281DFE813F0060082004B
:4010C000100110010600DE0004F0DF0504F00A04082C42D1944B1B78DBB2452B35D1934B1B7813F0FF0F10D0914B1B681B78DBB2904A137004228B4B1A7001228E4B1A700A
:401100004622894B1A702C46EBE08C4B1B7813F0020F0DD08A4A137843F00A0313706022814B1A704FF40042864B1A602C46D8E0854A137843F0100313701022834B1A70B0
:401140000422023B1A702C46CBE00022754B1A704A22754B1A702C46C3E00A2C2BD1784A137843F0A0031370744B1B7813F0020F14D06D4B1B7813F0080F01D0092300E0CA
:401180000A236F4A11780B4313706022664B1A704FF400426B4B1A602C46A2E06A4A137843F0100313701022684B1A700422023B1A702C4695E00020FFF708FC2C4690E042
:4011C00014F0020F35D15C4B1B78584A1278DBB2934210D2584A1378DBB255490968CB5CDBB254490B7004214E4B197013780133DBB2137075E0514B1B7813F0020F0CD00B
:401200004F4A137843F00A0313706022464B1A704FF400424B4B1A6063E04B4A137843F0100313701022494B1A700422023B1A7057E0424B1B7813F0020F0CD0404A1378D0
:4012400043F09A0313706022374B1A704FF400423C4B1A6045E03C4A137843F01003137010223A4B1A700422023B1A70344A137843F09003137034E0354A1378DBB235495F
:4012800008682C490978C9B2C15413780133DBB213701378304A1278DBB2934203D21022204B1A701DE0254B1B7813F0020F0CD0234A137843F00903137060221A4B1A7061
:4012C0004FF400421F4B1A600BE01F4A137843F0100313700022134B1A7002E00020FFF775FB14F0200F1CD00F4B1B7813F0080F01D0012300E00223114A11780B43137096
:40130000114A137803F0EF0313701022064B1A7038BD054B1B7813F0100F02D11022024B1A7038BDD74900402489FF1F2889FF1F2C89FF1FD84900403089FF1F2B89FF1FB0
:401340003889FF1F80E100E0D6490040D94900402989FF1F3489FF1F2A89FF1F1A4B1B78DBB2102B29D1194B1B7813F0080F26D14FF40042164B1A604000C0B229B140F032
:4013800001004922104B1A7002E045220E4B1A70104B1870012201331A700F4B1B7813F0010FFAD00C4B1B7803F00A030A2B08D11022054B1A70032070470220704701204A
:4013C00070470020704700BF2489FF1FD949004080E100E0D8490040D74900400A4B1B7813F0040F0ED01023074A13700421023A1170064A1370064B1B7813F0210FFAD0F8
:401400000020704702207047D94900402489FF1FD7490040114B1B7813F0040F1BD0104B18700422013B1A7046220E4B1A700E4B1B7813F0010FFAD00B4B1B7813F0020F9F
:4014400004D16022074B1A70002070476022054B1A70032070470220704700BFD9490040D84900402489FF1FD7490040014B1B681864704708ED00E04001C0B2014B187048
:40148000704700BF00E400E00122014B1A60704700E100E00122014B1A60704780E100E010B50446FFF7F6FF2046FFF7DFFF0120FFF7E2FFFFF7E8FF10BD00BF014B187047
:4014C000704700BF79640040F0B583B086460F4616461D460A4C0120207000230093019371463A46FFF712FA207831462A46FFF7CFF920780221FFF7B9F9207803B0F0BD7F
:401500002581FF1F014B1B685864704708ED00E04001C0B2014B1870704700BF01E400E00222014B1A60704700E100E00222014B1A60704780E100E010B50446FFF7F6FFD0
:401540002046FFF7DFFF0720FFF7E2FFFFF7E8FF10BD00BF0222014B1A60704780E200E0024A137843F08003137070477A640040014B1870704700BF0A640040014B187036
:40158000704700BF4A640040014B1870704700BF2A640040014B1870704700BF3A640040014B1870704700BF8A640040014B1878704700BF6A640040014B1878704700BF5D
:4015C0005A64004008B501E0FFF7F6FFFFF7EEFF10F0100FF8D108BD10B5134A137803F0C00343F009031370104C237843F001032370FF20FFF7BCFFFF20FFF7BFFF232008
:40160000FFF7C2FF2320FFF7C5FF0020FFF7C8FFFFF7DAF8237843F010032370FFF7D8F8FFF7D0FF10BD00BF7A6400409A64004008B5054B1B7823B9FFF7CEFF0122024BBB
:401640001A70FFF78DFF08BD8F86FF1F024B1878C0F30010704700BF01510040044A137803F0BF03800100F04000184310707047305100400E4B70B51E460E4C0025E41ACD
:40168000A410A54204D056F8253098470135F8E700F0B0F8084B094C1E46E41AA4100025A54204D056F8253098470135F8E770BD00180000001800000018000008180000C2
:4016C00010B5431E0A44914204D011F8014B03F8014FF8E710BD03460244934202D003F8011BFAE77047000000000000C84900401900105100401000405100403000000082
:401700000140001000140140000800400140000A004C014000020050014020000F312B0C0E084EF1370710030E090000000E1403110731C148080F0C31360F000804802838
:4017400080ED0024369112432004802880ED00243691124310048026C6ED001E3691124340048026C6ED013D009112430000001DBDBF018112819351120C0D171832191A8A
:4017800003373839FF00000009100E00090115003FA641004208160633C034BFA88096048E003C778B0635919488958840C1292F0F4313E03D5069805C965D965E1059EB89
:4017C0005A9C5B5543F0441045554686476448865FE0608C6120A5D9A4748D0213E78C23A9B8AA92AB0A8FDF900091009F00A000143AFFFFF8B500BFF8BC08BC9E46704778
:401800004D000000A9040000F8B500BFF8BC08BC9E46704729000000281800000881FF1FA001000098060000000000007F800000030000000000A08C401901004800000010
:4018400000A24A04FFFF0000F0B42448244B3FE01D1D1C6862B2C4F3072144F30746230E8C1AA41B8F18891903D4FF29A8BFFF2100E00021002C03DBFF2CA8BFFF2400E0A2
:401880000024002F03DBFF2FA8BFFF2700E00027017044708770991A891B1A449B1903D4FF2BA8BFFF2300E00023002903DBFF29A8BFFF2100E00021002A03DBFF2AA8BFD4
:4018C000FF2200E00022C3700171427106302B46044A9342BCD3F0BC704700BFC482FF1FA086FF1F2089FF1F30B583B0032000F04BF80124144B1C70144D95F8C00395F8C7
:40190000C11300F059F895F8C003214600F04CF88DF8074007E00D4B93F8C00300210DF1070200F039F89DF8073013F0010FF2D1074B1B7813F0020FFAD00020024B1870AB
:4019400000F022F803B030BD7D640040C482FF1F6864004008B50B4AD2F8C433591CC2F8C4130BB1FFF7C0FFFFF76EFF054BD3F8C433F02B05D10022024BC3F8C423FFF775
:40198000B3FF08BDC482FF1F01B40248844601BC604700BF7907000001B40248844601BC604700BFDD08000001B40248844601BC604700BF0D08000001B40248844601BC88
:4019C000604700BFC50800000000000000000000000000000000000000000000000000000000000000000000000000000000000000000000000000000000000000000000B4
:401A000000000000000000000000000000000000000000000000000000000000000000000000000000000000000000000000000000000000000000000000000000000000A6
:401A40000000000000000000000000000000000000000000000000000000000000000000000000000000000000000000000000000000000000000000000000000000000066
:401A80000000000000000000000000000000000000000000000000000000000000000000000000000000000000000000000000000000000000000000000000000000000026
:401AC00000000000000000000000000000000000000000000000000000000000000000000000000000000000000000000000000000000000000000000000000000000000E6
:020000040003F7
:0200000480007A
:400000000752004001640040020301400405014004070140330801403D090140450A0140450B0140360C01403F0D01400317014007190140054001400F4101400E4201400E
:400040000C4301400444014021450140144601400B47014010480140054901400E4C01400650014003510140008001C01055119C1820198060108A0FE208E602E040E201A1
:40008000E804EC04E202E601E802EC0101011201140116021E021F013101360339023E404041410645E446D047C0482B49FF4AFF4BFF50015601580459045A045B045C1036
:4000C0005D015F0162F06420662068206AE06C206E2082018B019202950197029B02A801AA02B503B603BE40BF10D804D904DB04DF01000209020C080D400E801008180153
:400100001D802004274030083310374038E03D02450147404C404F245501560257105C60684069806A106B106C106E806F847080711A7401750876098340870494809501EA
:4001400096109D189E099F04A008A4C0A508A780A904AE02B001B320B404B580C008C2B8C402CC16CE84D090D220D63003020602070808010F1013081502160417041F04CA
:400180002101260128022A042F013001311033083406350137063E103F444040410345D24615480F49FF4AFF4BFF4DA04F04501852805407580459045A045B045C225D2293
:4001C0005F01604062C06440654066C068C06AC06CC06EC08101870289018F01910195019B04A902AB04AF01B306B701B980BF04D904DC80DF1101080308090810081210D7
:4002000018081A402002210222152340254027212A402B402C082D80308832013514360239083A813B043D813E28410649014A044B145010525059015A6872807C2080408D
:400240008E04942095019610975098209A209D849E409F05A008A348A440A602A780A940AA20B005B220B401B510C006C204C406CA39CCEBCEFBD003D60FDE20E040EC0467
:40028000010409040A010F02110412011504230129012B022F043001330435033F145608580459045B045C025D905F01800282048A108C048E028F019620A208A601A810FC
:4002C000AA20AF01B006B201B430B501B608BE11C203C7E0C820C9FFCAFFCBFFCF83D804D904DA04DB04DC22DD08DF1100010305042007080A100F40100812401308184028
:400300001A041B481F01230425182A402C082D802F80350436023B403C803D013E2041085302588559105D405F10604061406220632068086A407820824087028880894076
:400340008A048C208D108F109706AB01AF04C04BC214C40ECAB8CCC0CEB8D002D63FD80FDE04E004E602E802EC04E208EA02EC80A820AA02B181B405E208EA02EC803580D6
:400380003B013F10CC20CE6001800B020F085B0863406620875097119D80C040C2C0D640D8C0E210E6403C8083018F019302942097019E209F08A810AB04CE20E280E820AE
:4003C000EC208201860294209E209FC8A440AB40AF80E240E680E840EC8070017408DC01DE040020010404020701080809800D010F0150205202540458015D805E02610248
:4004000064406B0883088702882889048D828E02A801AC08C00FC20FD407D607D803DA02E20FE40C010204048F809C419D829F02A320A404A502A601AB20B010B101B30107
:40044000B401B701C00CE002EA06EE0D9D809F02A3A0A404A502B041B404B601E809EC04EE020342042007802708862094209E209FC8A203A702AC40B302C0F0C820E210DE
:40048000EA405E026202A203D680D840138216407B807F2086409F82A3A0AF80B004B582C40EDE03E804EC0A0006010102140C060E040F01000D03C010050000D40001349D
:4004C000E000E0000001000000303000300000000800300F0F0000000001000000FFFF00FFFF0001E40000E4E400A00000000000000000000000000000000000000000000B
:4005000000000000000000000000000000000000000000000000000000000000000000000000000000000000000000000000000000000000000000000000000000000000BB
:40054000000000000000000000000000000000000000000000000000000000000000000000000000000000000000000000000000000000000000000000000000000000007B
:40058000000000000000000000000000000000000000000000000000000000000000000000000000000000000000000000000000000000000000000000000000000000003B
:4005C00000000000000000000000000000000000000000000000000000000000000000000000000000000000000000000000000000000000000000000000000000000000FB
:0200000490006A
:0400000000004005B7
:0200000490105A
:04000000BC90ACAF55
:0200000490303A
:0200000031AA23
:0200000490402A
:4000000000000000000000000000000000000000000000000000000000000000000000000000000000000000000000000000000000000000000000000000000000000000C0
:400040000000000000000000000000000000000000000000000000000000000000000000000000000000000000000000000000000000000000000000000000000000000080
:400080000000000000000000000000000000000000000000000000000000000000000000000000000000000000000000000000000000000000000000000000000000000040
:4000C0000000000000000000000000000000000000000000000000000000000000000000000000000000000000000000000000000000000000000000000000000000000000
:0200000490501A
:0C00000000012E16106900012E21421391
:00000001FF