:400000000080002011000000F1020000F102000008B5044B1A6803F53F5302331A6000F069F900BFFA46004010B5054C237833B9044B13B10448AFF300800123237010BD2F
:40004000A882FF1F0000000068140000084B10B51BB108480849AFF300800848036803B910BD074B002BFBD0BDE81040184700BF0000000068140000AC82FF1F0881FF1F07
:4000800000000000054B1B681BB90122034B1A6070470022014B1A60704700BF9486FF1F0322014B1A7070477964004010B50446FFF7F6FF0CE0032001F060F8022000F02E
:4000C000ADFA082000F0AAFA642000F0D5FB013C002CF0DC012001F051F8022000F09EFA082000F09BFA10BD08B5FFF7D9FF092001F044F8022000F091FA082000F08EFA87
:40010000642000F0B9FB012001F038F8022000F085FA082000F082FA08BD00BF08B50220FFF7C4FF4FF4C87000F0A6FB00221A4B1A6005E0FFF7D8FF174A136801331360D2
:40014000154B1B68022BF5DD0022134B1A601DE0FFF7A6FF092001F011F8022000F05EFA082000F05BFA642000F086FB012001F005F8022000F052FA082000F04FFA6420CA
:4001800000F07AFB044A136801331360024B1B68022BDDDD08BD00BF2489FF1F08B5082000F03CFA002000F04DFA4FF42F7000F063FB012000F046FA4FF42F7000F05CFB58
:4001C000002000F03FFA4FF42F7000F055FB012000F038FA08BD00BF08B501F01BF8024801F00AF808BD00BF850000000022014B1A6070479486FF1F08B5FFF7CFFFFFF778
:40020000F5FF01F075F8FFF7E7FF00F0E9FB00F03BF800F0BFFC4120022100F0A9FC4FF4167000F057F80420012100F033FC62B60120FFF73BFFC82000F01EFB0120FFF7F7
:4002400035FF104B1B68002BFBD0FFF767FF01F05DF801F0C1F8FA2001F06CF84FF47A7000F00AFB962001F065F84FF47A7000F003FB452001F05EF84FF47A7000F0FCFABB
:40028000E9E700BF9486FF1F10B50120014641F6FF724FF4804300F077FF0D4C84F8C00300F0ACFA84F8C103A1B246F2484200F0D3FA94F8C1034FF47071FE22012300F04E
:4002C000B7FA94F8C003002100F024FA10BD00BFC482FF1F10B5C0F30A04210A2A20090100F046FC2B20E1B200F042FC10BD00BFFEE700BF08B5104E104D16E029686B689A
:40030000AC68002204E051F8040B43F8040B0432A242F8D1E868002203E0002143F8041B04328242F9D11035013E002EE6D101F061F8FFF761FFFEE70100000098150000EE
:4003400008B5134A134B1A60134A136843F40073136000230AE0032B03D8104A52F8231000E00F490F4A42F8231001332F2BF2D90D4B1A780D4B1A700A4A0D4B1A6000F070
:40038000C5F800F07DF900220A4B1A6008BD00BF0004FA050CED00E014ED00E000000000F10200000080FF1FBC7600400481FF1F08ED00E00081FF1FFEE700BFF0B4002264
:4003C000174611E050F82760F3B226F0FF0608E001EB420511F812406D78A5550132013BDBB2002BF4D101371C2FEBD9F0BC7047064B1B78DBB203F00701054A11701B09D5
:40040000013213704422034B1A707047CF0100496E5800407658004038B505222C4B1A8018232C4A13700921023211800232137040F2CF21023211800232137041F2BF2134
:400440000232118002321370022102F27222117008214FF040221170032102F5007211701D4A1278D2B21D490A701D4A138042F251221C4B1A80002419250CE01A4B1B783E
:4004800003F0010343EA440404F003044FF4F07000F0E6F8013D0DB1032CEFD115B90320FFF78AFF114B4FF480721A8007221A7000220F490A704820023108701A70022276
:4004C000033B1A700B4A137843F00F03137038BD804000408240004008010049A14600402242004020420040254200400440004006400040A243004008B50A46002100F0E2
:40050000AAFF08BD08B500F09BFF08BD10B572B661222F4B1A70FFF77FFF00240CE02D4963001A1952000A4423445B00C8589188FFF7E2FF0134E4B2072CF0D94FF09040F5
:400540002549FFF73BFF25480421FFF7D5FF24480421FFF7D1FF234A137843F0020313701032137843F0020313701F4C237843F040032370A2F58632513A137843F0100335
:4005800013701A481A490A22FFF7BCFF19481A490822FFF7B7FF194819490A22FFF7B2FF184819490822FFF7ADFF184818490A22FFF7A8FF174A137843F008031370FFF72B
:4005C00017FF154821460E22FFF79CFF10BD00BF004800406C14000074000048007600400876004003500140A04300400051004084050048C251004090050048F0510040D2
:400600009805004822510040A405004830510040AC05004822430040B0430040044A137803F0F00300F00F0018431070704700BFF0510040024B187800F00F00704700BFBD
:40064000F1510040044A137803F0FB03800000F0040018431070704730510040000000000230800803D000BF01380046FCD17047EFF3108072B6704780F31088704700BF46
:400680000B4A7F2313708021517007E0DA0002F1804202F5F042013BDBB21370002BF5D1DB0003F1804303F5F04300221A7070470C81FF1F172815D831B103010A495A5C9C
:4006C00042F020025A5405E0030107495A5C02F0DF025A540001044A835C43F00103835400207047012070471070004017280CD80001074BC1180A7942F004020A71C25C3A
:4007000042F00102C254002070470120704700BF1070004017280BD80001064A835C03F0F10301F0070143EA4101815400207047012070471070004041F6FF73994201D105
:400740004FF4005141F6FF739A4201D14FF40052172808D8C00000F1804000F5EC408180C280002070470120704700BF172805D8034B03EB001041720020704701207047CD
:400780001070004017280FD831B1094B03EB00135B7A03F07F030B7042B1054B03EB0010037A13700020704701207047002070471070004017281BD810B4C00000F1804465
:4007C00004F5EC44D201D2B201F07F01114321709DF804201201D2B203F00F03134363709DF8083003F00F03A3700020E07001E0012070475DF8044B704700BF10B5FFF7C2
:4008000037FF0A4B5B78182B0BD9084A1478013B5370E30003F1804303F5F0431B78137000E0FF24FFF728FF204610BD0C81FF1F10F0800F0CD111F4704F0BD1C00000F1C0
:40084000804000F5F04001808270C37000207047012070470120704710F0800F08D1C00000F1804000F5F0408180C280002070470120704701BE704710B5044605E0084BB9
:400880001868FFF7EDFEA4F50044B4F5004FF6D8034B586800FB04F0FFF7E2FE10BD00BF1481FF1F70B504460E46074B1D681F2802D90020FFF7DEFF04F01F04103455F8CB
:4008C000240045F8246070BD08ED00E038B504460D46072902D90020FFF7CCFF1F2C02D90020FFF7C7FF04F01F0000F1604000F564406D01EDB2057038BD00BF2DE9F041DF
:4009000007460E46FFF796FE0546DFF8588098F80040E4B20320FFF781FE012388F800300E4B1B7813F0010FFAD047F480770C4B1F800A4B1B7813F0010FFAD0B6B2084B4F
:400940001E80064B1B7813F0020FFAD0054B1C702846FFF763FEBDE8F08100BF6864004090680040796400402DE9F84380460F461646FFF75FFE0546DFF8609099F8004042
:40098000E4B20320FFF74AFE012389F80030114B1B7813F0010FFAD048F480780E4BA3F80080002208E00B4B1B7813F0010FFAD0B95C094B198001329642F4DC054B1B7867
:4009C00013F0020FFAD0054B1C702846FFF726FEBDE8F883686400409068004079640040F0B589B0FFF726FE0746204D2E78F6B20320FFF713FE01232B701D4C40F201139C
:400A000023800520FFF738FF40F2111323806420FFF732FF40F2291323803620E821FFF76DFF144B04AC186859689A6807C499899A7B2180A2706C4653F8100F59689A6865
:400A400007C49A899B7B2280A370E02004A90F22FFF78AFFE12069460F22FFF785FF2E703846FFF7DBFD09B0F0BD00BF79640040906800409C140000014B188880B270471C
:400A800084400040024B187800F00700704700BF8640004070B504460D46FFF7F3FF0646FFF7EAFF844257D02C4B1B7803F00203DAB296B900B184B938B9294B1C80294AE1
:400AC000137803F0BF03137070BD264A137843F040031370224B1C8070BD22B3002322490B7002260F310E7004310B700C390B7803F07F030B701B4B1B7813F0080F00D0CD
:400B00008CB91A4B18800721013B1970164B1B7813F0010FFAD111490B7803F0FD030B700021114B19700D4B1B7813F0020F0DD00E4B1C800DB1032200E001220A4B1A70CD
:400B4000094B1B7813F0010FFAD170BD044B1C8002490B7813430B7070BD00BFA24300408440004086400040014000400240004038B505460C463020002100F04FFA00287F
:400B8000F9D1284600F0A6FA204600F0A3FA00F085FA38BD10B500F0C7F812208021FFF7E7FF0120FFF768FE002407E0254B03EB44035978FFF7DCFF0134A4B2214B13F822
:400BC0001400FF28F2D1002405E01F4B195DFFF7CFFF0134A4B21D4B185DFF28F5D1012001464FF4804241F6FF7300F039F8184C2070FFF703FE607046F24A41154A92B29D
:400C0000FFF72AFE627810464FF420710623FFF70FFE20780021FFF77DFD0F4800F0A0FA0E4B1A781A781A781B782078FFF75EFD20786178FFF79AFD20780121FFF73AFDEC
:400C400010BD00BF08150000D4140000F81400008C86FF1FA486FF1F3582FF1F4A640040F0B583B086460F4616461D460A4C0023237000930193184671463A46FFF79AFD8F
:400C8000207831462A46FFF757FD20780221FFF741FD207803B0F0BD2481FF1F10B50222114B1A7081220E3B1A70082202331A700C2211331A70002401331C704FF400422E
:400CC0000A4B1A600F200721FFF700FE0F200849FFF7E8FD1022074B1A70074B1C70074B1C70074B1C7010BDD649004080E100E0510D00002889FF1F3C89FF1F2D89FF1F86
:400D00003489FF1F08B5FFF7B3FC064A137843F0040313701032137843F004031370FFF7ABFC08BDA543004008B5074B1B7823B9FFF7B4FF0122044B1A70FFF7E3FF4FF48C
:400D40000042024B1A6008BD8E86FF1F00E100E038B5A44B1C78E4B2A34B1B7813F0400F00F0378114F0010F00F01B819E4B1B78453B052B00F21281DFE813F0060082008E
:400D8000100110010600DE0004F0DF0504F00A04082C42D1944B1B78DBB2452B35D1934B1B7813F0FF0F10D0914B1B681B78DBB2904A137004228B4B1A7001228E4B1A704D
:400DC0004622894B1A702C46EBE08C4B1B7813F0020F0DD08A4A137843F00A0313706022814B1A704FF40042864B1A602C46D8E0854A137843F0100313701022834B1A70F4
:400E00000422023B1A702C46CBE00022754B1A704A22754B1A702C46C3E00A2C2BD1784A137843F0A0031370744B1B7813F0020F14D06D4B1B7813F0080F01D0092300E00D
:400E40000A236F4A11780B4313706022664B1A704FF400426B4B1A602C46A2E06A4A137843F0100313701022684B1A700422023B1A702C4695E00020FFF7FCFC2C4690E091
:400E800014F0020F35D15C4B1B78584A1278DBB2934210D2584A1378DBB255490968CB5CDBB254490B7004214E4B197013780133DBB2137075E0514B1B7813F0020F0CD04E
:400EC0004F4A137843F00A0313706022464B1A704FF400424B4B1A6063E04B4A137843F0100313701022494B1A700422023B1A7057E0424B1B7813F0020F0CD0404A137814
:400F000043F09A0313706022374B1A704FF400423C4B1A6045E03C4A137843F01003137010223A4B1A700422023B1A70344A137843F09003137034E0354A1378DBB23549A2
:400F400008682C490978C9B2C15413780133DBB213701378304A1278DBB2934203D21022204B1A701DE0254B1B7813F0020F0CD0234A137843F00903137060221A4B1A70A4
:400F80004FF400421F4B1A600BE01F4A137843F0100313700022134B1A7002E00020FFF769FC14F0200F1CD00F4B1B7813F0080F01D0012300E00223114A11780B431370E4
:400FC000114A137803F0EF0313701022064B1A7038BD054B1B7813F0100F02D11022024B1A7038BDD74900402889FF1F2C89FF1F3089FF1FD84900403489FF1F2F89FF1FE0
:401000003C89FF1F80E100E0D6490040D94900402D89FF1F3889FF1F2E89FF1F1A4B1B78DBB2102B29D1194B1B7813F0080F26D14FF40042164B1A604000C0B229B140F065
:4010400001004922104B1A7002E045220E4B1A70104B1870012201331A700F4B1B7813F0010FFAD00C4B1B7803F00A030A2B08D11022054B1A70032070470220704701208D
:4010800070470020704700BF2889FF1FD949004080E100E0D8490040D74900400A4B1B7813F0040F0ED01023074A13700421023A1170064A1370064B1B7813F0210FFAD037
:4010C0000020704702207047D94900402889FF1FD7490040114B1B7813F0040F1BD0104B18700422013B1A7046220E4B1A700E4B1B7813F0010FFAD00B4B1B7813F0020FDF
:4011000004D16022074B1A70002070476022054B1A70032070470220704700BFD9490040D84900402889FF1FD7490040014B1B681864704708ED00E04001C0B2014B187087
:40114000704700BF00E400E00122014B1A60704700E100E00122014B1A60704780E100E010B50446FFF7F6FF2046FFF7DFFF0120FFF7E2FFFFF7E8FF10BD00BF014B18708A
:40118000704700BF7B640040F0B583B086460F4616461D460A4C0120207000230093019371463A46FFF706FB207831462A46FFF7C3FA20780221FFF7ADFA207803B0F0BDE1
:4011C0002581FF1F014B1B685864704708ED00E04001C0B2014B1870704700BF01E400E00222014B1A60704700E100E00222014B1A60704780E100E010B50446FFF7F6FF14
:401200002046FFF7DFFF0720FFF7E2FFFFF7E8FF10BD00BF0222014B1A60704780E200E0024A137843F080031370704777640040014B1870704700BF09640040014B18707D
:40124000704700BF49640040014B1870704700BF29640040014B1870704700BF39640040014B1870704700BF87640040014B1878704700BF67640040014B1878704700BFA9
:401280005964004008B501E0FFF7F6FFFFF7EEFF10F0100FF8D108BD08B5134A137803F0C00343F0090313702232137843F001031370FF20FFF7BCFFFF20FFF7BFFF23207C
:4012C000FFF7C2FF2320FFF7C5FF0020FFF7C8FFFFF7CEF9054A137843F010031370FFF7CBF9FFF7CFFF08BD776400409764004008B5054B1B7823B9FFF7CEFF0122024BB5
:401300001A70FFF78DFF08BD8F86FF1F024A137843F080031370704776640040014B1880704700BF0C680040014B1880704700BF8C680040014B1880704700BF4C680040DE
:40134000014B1870704700BF86640040014B1878704700BF66640040014B188880B27047AC68004008B501E0FFF7F6FFFFF7EEFF10F0100FF8D108BD10B5154A137803F0B9
:40138000C00343F009031370124C237843F0010323702132137843F00103137040F2CF70FFF7BCFF40F2CF70FFF7BEFF1420FFF7C1FF0020FFF7C4FFFFF75AF9237843F02D
:4013C00010032370FFF758F9FFF7CCFF10BD00BF766400409664004008B5054B1B7823B9FFF7CAFF0122024B1A70FFF78FFF08BD9086FF1F0E4B70B51E460E4C0025E41A4E
:40140000A410A54204D056F8253098470135F8E700F0B0F8084B094C1E46E41AA4100025A54204D056F8253098470135F8E770BD8015000080150000801500008815000050
:4014400010B5431E0A44914204D011F8014B03F8014FF8E710BD03460244934202D003F8011BFAE77047000000000000C84900401900105100401000405100403000000004
:401480000140001000140140000800400140000A004C014000020050014020000F312B0C0E084EF1370710030E090000000E1403110731C148080F0C31360F0008048028BB
:4014C00080ED0024369112432004802880ED00243691124310048026C6ED001E3691124340048026C6ED013D009112430000001DBDBF018112819351120C0D171832191A0D
:4015000003373839FF00000009100E00090115003FA641004208160633C034BFA88096048E003C778B0635919488958840C1292F0F4313E03D5069805C965D965E1059EB0B
:401540005A9C5B5543F0441045554686476448865FE0608C6120A5D9A4748D0213E78C23A9B8AA92AB0A8FDF900091009F00A000143AFFFFF8B500BFF8BC08BC9E467047FA
:401580004D00000041030000F8B500BFF8BC08BC9E46704729000000A81500000881FF1FA001000098060000000000007F800000030000000000A08C40190100480000007F
:4015C00000A24A04FFFF0000F0B42448244B3FE01D1D1C6862B2C4F3072144F30746230E8C1AA41B8F18891903D4FF29A8BFFF2100E00021002C03DBFF2CA8BFFF2400E025
:401600000024002F03DBFF2FA8BFFF2700E00027017044708770991A891B1A449B1903D4FF2BA8BFFF2300E00023002903DBFF29A8BFFF2100E00021002A03DBFF2AA8BF56
:40164000FF2200E00022C3700171427106302B46044A9342BCD3F0BC704700BFC482FF1FA486FF1F2489FF1F30B583B0032000F05BF80124144B1C70144D95F8C00395F831
:40168000C11300F049F895F8C003214600F03CF88DF8074007E00D4B93F8C00300210DF1070200F049F89DF8073013F0010FF2D1074B1B7813F0020FFAD00020024B18703E
:4016C00000F032F803B030BD79640040C482FF1F6864004008B50B4AD2F8C433591CC2F8C4130BB1FFF7C0FFFFF76EFF054BD3F8C433F02B05D10022024BC3F8C423FFF7EC
:40170000B3FF08BDC482FF1F01B40248844601BC604700BFB506000001B40248844601BC604700BF6D07000001B40248844601BC604700BF1D06000001B40248844601BC32
:40174000604700BF85070000000000000000000000000000000000000000000000000000000000000000000000000000000000000000000000000000000000000000000077
:401780000000000000000000000000000000000000000000000000000000000000000000000000000000000000000000000000000000000000000000000000000000000029
:4017C00000000000000000000000000000000000000000000000000000000000000000000000000000000000000000000000000000000000000000000000000000000000E9
:4018000000000000000000000000000000000000000000000000000000000000000000000000000000000000000000000000000000000000000000000000000000000000A8
:401840000000000000000000000000000000000000000000000000000000000000000000000000000000000000000000000000000000000000000000000000000000000068
:020000040003F7
:0200000480007A
:4000000009520040026400400203014004050140580601403A0701405608014051090140380A0140410B0140030D014003150140081701400F190140051B0140054001402A
:40004000114101400E42014009430140024401401A45014014460140114701400B48014009490140134C0140044D01400650014003510140008001C01065113312FF18A02C
:40008000198060316121860D870FE204E6048401E206E404EC0402021204150122042A022E012F03300132023404350237013E044040410649FF4AFF4BFF4DA04F045018DB
:4000C00052805405580459045A045B045C225D225F01604062C06440654066C068C06AC06CC06EC0820383018502870488018B02920893049E04A301AA04B008B106B202AC
:40010000B301B404B601BE10BF01C040C106C5D0C712C832C9FFCAFFCBFFCDAFCE0FCF04D018D280D407D804D904DA04DB04DC33DD32DF01E040E2C0E440E540E6C0E8C076
:40014000EAC0ECC0EEC00010010105020B420D021208140415021740181419821D161F0120A02640270829022F023001370839213A04410245024A084B014C045004510175
:4001800052085302581059855C045E805F01734077408204851089018D0198019D10B510C01AC219C4D2CA11CC41CE07D081D224D6DFE243E601E801EA4001040A011401BC
:4001C000160217021B011F0429012A022B0231043403370339023E103F404041410645E446D047C0482B49FF4AFF4BFF50015601580459045A045B045C105D015F0162F068
:400200006420662068206AE06C206E20870189028B048E018F04940196029A049E029F02A501B101B204B306B403BE10BF04C010C105C501C6D2C705C81DC9FFCAFFCBFFE9
:40024000CDA0CF04D018D804D904DA04DB04DC33DD03DF01E040E2C0E440E540E6C0E8C0EAC0ECC0EEC00140060409400A100B080E101608180819081D1020102101258052
:40028000278029082E10334036103784388039103B083F0243804502478048104B804D024F2850105344550257115C805F2064806502680169106A106C206D406E206F4047
:4002C0007580768477108210842088118C148F0490809610970A9A089B049DA29E809F10A140A408A780A820AE02B040B404B510C041C227C440CA22CC78CE8ED098D2286D
:40030000D630E240E6C1EA0201010302070408030E041201140416081C031F04210222082301240328032E03300131033202340C370438023E143F01420347E0482049FF58
:400340004AFF4BFF4F83580459045A045B045C385D085F2182018B02940196029B01A901AB02AE02B003B503BE01BF10D608D804D904DB04DD90DF0101A006800A500B02FF
:400380000E101028120213021780180819011A401B081C8020402240251029012E103380371038013B083E2043085201588559105C205D40604461846C406D806E046F049D
:4003C000762877827A10814082418614900598A599149D02A180A820B005B180B405B514C013C22DC48FCA21CC28CE23D002D63FD80FDE02E405E608EC0481028880E20484
:40040000E820EA01EC20A902AC14B050E040E620EA08EC04EE028B808F0197029B809D20A408AB80AD03AF60B180B410B510E040E620ECA0B008B120E820EA01EC2035800F
:400440003B023F80CC20CE60018008200F085B04620865048208830197029D80A740C040C2C0D640D8C0E220E6203E1057048020834098209D049F04A740AB04CE20D440F1
:40048000E220E420EC2081048E0296109D049F84AB80B704E680E8807740DE04002001040402070108800B200C020F0150045101540858015C11610465086D108104890431
:4004C0009F40C00FC20FD407D607D803DA01E20402800720836086809419951298089C019D0C9F40A408A504A808B010B311B483B701C00CEA0EEE0F808089108C10941864
:40050000951298089D08A320A408A504AF20B001B401B504E009E808EC0C010203010782270488018D0296109A029F84C0F0C8206401660298019A02AA10B303D680D88008
:40054000EA801108132014807B207C0898089A209C80A320A504B008B101B220B404B508C40EDE03E80EEC0576209A20AB20DE04000E010102140A0C0C0A0D01000D03C0B8
:4005800010050000D4000134E000E0000001000000313100310000000800300F0F0000000001000000FFFF00FFFF0001E40000E4E400A00000000000000000000000000029
:4005C00000000000000000000000000000000000000000000000000000000000000000000000000000000000000000000000000000000000000000000000000000000000FB
:4006000000000000000000000000000000000000000000000000000000000000000000000000000000000000000000000000000000000000000000000000000000000000BA
:40064000000000000000000000000000000000000000000000000000000000000000000000000000000000000000000000000000000000000000000000000000000000007A
:40068000000000000000000000000000000000000000000000000000000000000000000000000000000000000000000000000000000000000000000000000000000000003A
:0200000490006A
:0400000000004005B7
:0200000490105A
:04000000BC90ACAF55
:0200000490303A
:02000000773057
:0200000490402A
:4000000000000000000000000000000000000000000000000000000000000000000000000000000000000000000000000000000000000000000000000000000000000000C0
:400040000000000000000000000000000000000000000000000000000000000000000000000000000000000000000000000000000000000000000000000000000000000080
:400080000000000000000000000000000000000000000000000000000000000000000000000000000000000000000000000000000000000000000000000000000000000040
:4000C0000000000000000000000000000000000000000000000000000000000000000000000000000000000000000000000000000000000000000000000000000000000000
:0200000490501A
:0C00000000012E16106900012E208799C7
:00000001FF