:400000000080002011000000290400002904000008B5044B1A6803F53F5302331A6000F005FA00BFFA46004010B5054C237833B9044B13B10448AFF300800123237010BD1E
:400040005883FF1F0000000038160000084B10B51BB108480849AFF300800848036803B910BD074B002BFBD0BDE81040184700BF00000000381600005C83FF1F0881FF1F01
:400080000000000030B585B0022000F079FB314D03232B700024304B1C70082000F070FB2C7001F017FA01F07FFA00F03DFD00F059F800F011FE4120022100F0F1FD4FF49C
:4000C0007A7000F049F962B6244B1C70502021468022134600F082F9302300936FF01F0001906FF00F03029320230393402122466FF03F0300F03EF9FF23194A1578EDB27E
:4001000025EA030313F0020F09D0144A13780133DBB21370022B02D90022104B1A7000F047F8022000F02CFB03220A4B1A7014F0010F01D0042200E00022074B1A70082004
:4001400000F01EFB0022034B1A700134E4B22B46D3E700BF796400407A640040448FFF1F6664004010B50120014641F6FF724FF4804301F0F5F80D4C84F8C00300F0E2FB73
:4001800084F8C103A1B246F24D4200F009FC94F8C1034FF47071FE22012300F0EDFB94F8C003002100F05AFB10BD00BF7483FF1F2DE9F04383B000F0EFFA804600F06AFD98
:4001C0008146574A1378022B14BF0023012355490B701378012B0CD1534800214FF4006201F021FA00200146DF22134600F00AFD06E00020014640F23F12EF2300F002FD22
:400200004A4B1B7813F0020FFAD00022484B1A7000F02EFE0028FBD0002000F0B1FA00F051FD032000F0ACFA3D4B1B78012B6BD101223F4B1A70002464E004EB45123D4BC8
:4002400003EB4203B3F8C433FF2BA8BFFF23DBB28DF806308DF805308DF80430E400364B1A78EB00B2EBC50F0ADD344A1278D2B2A24205DC00228DF806208DF805202CE02D
:400280002F4A1278D2B29A420ADD2E4A1278D2B2A24205DD00228DF806208DF804201CE0294A1278D2B29A420ADC284A1278D2B2A24205DD00228DF805208DF804200CE04C
:4002C000234A1278D2B29A4207DC224A1278D2B2A24202DC00228DF80520DD10E410019800F0AAFC013600E00026062EA5DD013500E000251F2DF7DD013700E00027062FEA
:40030000F7DD01341F2CF9DD00F0AEFC084B83F80090404600F034FA03B0BDE8F08300BF448FFF1F776400403887FF1F6D640040796400407483FF1F2F6400403F6400408B
:400340002A6400403A6400402C6400403C6400402E6400403E64004010B5C0F30A04210A2A20090100F09CFC2B20E1B200F098FC10BD00BF10B48038C0B2144C207080395B
:40038000C9B213480170803AD2B212490A70803BDBB2114A13709DF90430803BDBB20E3A13709DF90830803BDBB2103213709DF90C30803BDBB20E3A13709DF91030803B8F
:4003C000DBB2103213705DF8044B70472F6400403F6400402A6400403A640040F8B504460F4615461E461320E02100F059FC0020394600F055FC0120314600F051FC022093
:40040000294600F04DFC042004F0030100F048FC1020C4F3870100F043FCA10AA12041F0400100F03DFCF8BDFEE700BF08B5104E104D16E029686B68AC68002204E051F891
:40044000040B43F8040B0432A242F8D1E868002203E0002143F8041B04328242F9D11035013E002EE6D101F0ADF8FFF70BFEFEE7010000007017000008B5134A134B1A604F
:40048000134A136843F40073136000230AE0032B03D8104A52F8231000E00F490F4A42F8231001332F2BF2D90D4B1A780D4B1A700A4A0D4B1A6000F0D7F800F085F90022C2
:4004C0000A4B1A6008BD00BF0004FA050CED00E014ED00E000000000290400000080FF1FBC7600400481FF1F08ED00E00081FF1FFEE700BFF0B40022174611E050F8276011
:40050000F3B226F0FF0608E001EB420511F812406D78A5550132013BDBB2002BF4D10137202FEBD9F0BC7047104B1B78DBB203F007010F4A11701B09013213701C220D4B4C
:400540001A70022203F25F731A7010230A4A1370303213704022094B1A70D0223D331A704422A3F28A231A70704700BFCF0100496E5800400D510040905A0040C35A004075
:4005800038B50522294B1A801823294A13700721023211800232137047210232118002321370022102F27622117008214FF040221170032102F5007211701E4A1278D2B261
:4005C0001D490A701D4A138042F251221C4B1A80002419250CE01B4B1B7803F0010343EA440404F003044FF4F07000F0DDF8013D0DB1032CEFD115B90320FFF779FF124BBC
:400600004FF480721A8007221A7000220F490A704820023108701A700222033B1A700C4A137843F00703137038BD00BF804000408240004008010049A14600402242004047
:4006400020420040254200400440004006400040A243004008B50A46002100F0E4FF08BD08B500F0D5FF08BD10B572B66122304B1A70FFF785FF00240CE02E4963001A19EA
:4006800052000A4423445B00C8589188FFF7E2FF0134E4B2082CF0D94FF090402649FFF729FF0322254B1A8025480421FFF7D2FF244825490422FFF7D3FF24480421FFF78D
:4006C000C9FF234A137843F0020313701032137843F0020313701F4C237843F040032370A2F58632513A137843F0100313701A481A490A22FFF7B4FF19481A490A22FFF73A
:40070000AFFF194819490822FFF7AAFF184819490A22FFF7A5FF184A137843F008031370FFF702FF154821460E22FFF799FF10BD004800403C16000084000048485800407D
:400740000076004008760040B80700481076004003500140A0430040005100408C070048F05100409807004822510040A407004830510040AC07004822430040B043004073
:40078000044A137803F0F00300F00F0018431070704700BFF0510040024B187800F00F00704700BFF15100400230800803D000BF01380046FCD17047EFF3108072B6704735
:4007C00080F31088704700BF0B4A7F2313708021517007E0DA0002F1804202F5F042013BDBB21370002BF5D1DB0003F1804303F5F04300221A7070470C81FF1F172815D8C9
:4008000031B103010A495A5C42F020025A5405E0030107495A5C02F0DF025A540001044A835C43F00103835400207047012070471070004017280CD80001074BC1180A79DA
:4008400042F004020A71C25C42F00102C254002070470120704700BF1070004017280BD80001064A835C03F0F10301F0070143EA4101815400207047012070471070004049
:4008800041F6FF73994201D14FF4005141F6FF739A4201D14FF40052172808D8C00000F1804000F5EC408180C280002070470120704700BF172805D8034B03EB00104172E5
:4008C00000207047012070471070004017280FD831B1094B03EB00135B7A03F07F030B7042B1054B03EB0010037A13700020704701207047002070471070004017281BD8AE
:4009000010B4C00000F1804404F5EC44D201D2B201F07F01114321709DF804201201D2B203F00F03134363709DF8083003F00F03A3700020E07001E0012070475DF8044B78
:40094000704700BF10B5FFF737FF0A4B5B78182B0BD9084A1478013B5370E30003F1804303F5F0431B78137000E0FF24FFF728FF204610BD0C81FF1F10F0800F0CD111F49A
:40098000704F0BD1C00000F1804000F5F04001808270C37000207047012070470120704710F0800F08D1C00000F1804000F5F0408180C280002070470120704701BE704773
:4009C00010B5044605E0084B1868FFF7EDFEA4F50044B4F5004FF6D8034B586800FB04F0FFF7E2FE10BD00BF1481FF1F70B504460E46074B1D681F2802D90020FFF7DEFFEB
:400A000004F01F04103455F8240045F8246070BD08ED00E038B504460D46072902D90020FFF7CCFF1F2C02D90020FFF7C7FF04F01F0000F1604000F564406D01EDB20570F0
:400A400038BD00BF2DE9F04107460E46FFF7A4FE0546DFF8588098F80040E4B20320FFF78FFE012388F800300E4B1B7813F0010FFAD047F480770C4B1F800A4B1B7813F08C
:400A8000010FFAD0B6B2084B1E80064B1B7813F0020FFAD0054B1C702846FFF771FEBDE8F08100BF6D6400409A680040796400402DE9F84380460F461646FFF76DFE0546D9
:400AC000DFF8609099F80040E4B20320FFF758FE012389F80030114B1B7813F0010FFAD048F480780E4BA3F80080002208E00B4B1B7813F0010FFAD0B95C094B198001320B
:400B00009642F4DC054B1B7813F0020FFAD0054B1C702846FFF734FEBDE8F8836D6400409A68004079640040F0B589B0FFF734FE0746204D2E78F6B20320FFF721FE0123E0
:400B40002B701D4C40F2011323800520FFF738FF40F2111323806420FFF732FF40F2291323803620E821FFF76DFF144B04AC186859689A6807C499899A7B2180A2706C4607
:400B800053F8100F59689A6807C49A899B7B2280A370E02004A90F22FFF78AFFE12069460F22FFF785FF2E703846FFF7E9FD09B0F0BD00BF796400409A6800407416000091
:400BC00010B582B0040A8DF804408DF80500100A8DF806008DF807200A0A8DF800208DF801101A0A8DF802208DF803302A2001A90422FFF75DFF2B2069460422FFF758FFA1
:400C000002B010BDF8B507460E4615461C460320FFF7B6FD0122064B1A70384631462A462346FFF7CDFF4FF49672024B1A80F8BD796400409A68004082B00190084B1B78E1
:400C400013F0020FFAD09DF80420064B1A809DF805201A809DF806201A8002B0704700BF6D6400409A680040084B1A78D2B2012119704FF4807103F221431980044B1B78B2
:400C800013F0010FFAD0014B1A707047796400406D640040014B1878704700BF7964004038B505460C463020002100F0A9FA0028F9D1284600F000FB204600F0FDFA00F017
:400CC000DFFA38BD08B500F0D3F80028FBD100F0CFF80028FBD008BD70B500F017F912208021FFF7DDFF0120FFF76AFE002407E0474B03EB44035978FFF7D2FF0134A4B20D
:400D0000434B13F81400FF28F2D1002405E0414B195DFFF7C5FF0134A4B23F4B185DFF28F5D1012001464FF4804241F6FF7300F081F83A4C2070FFF705FE6070384DADB29E
:400D400046F248412A46FFF72BFE627810464FF420710623FFF710FE20780021FFF77EFD304E304600F0EEFA2F4B1A781A781A781B782078FFF75EFD20786178FFF79AFD52
:400D800020780121FFF73AFD284A137843F001031370053A137843F0010313700232137843F0010313700232137843F001031370012001464FF4804241F6FF7300F0F0FA2F
:400DC0002070FFF7BFFD607046F24B412A46FFF7E7FD62781046A0210623FFF7CDFD20780021FFF73BFD304600F014FB104B1A781A781A781B782078FFF71CFD20786178E1
:400E0000FFF758FD20780121FFF7F8FC70BD00BFE0160000AC160000D01600003C8FFF1F488FFF1F8D82FF1F486400409F6400404B640040F0B583B086460F4616461D4658
:400E40000A4C0023237000930193184671463A46FFF754FD207831462A46FFF711FD20780221FFF7FBFC207803B0F0BD2481FF1F024B187800F00100704700BF01510040A7
:400E800010B50222114B1A7081220E3B1A70082202331A700C2211331A70002401331C704FF400420A4B1A600F200721FFF7B2FD0F200849FFF79AFD1022074B1A70074B67
:400EC0001C70074B1C70074B1C7010BDD649004080E100E0350F0000C891FF1FDC91FF1FCD91FF1FD491FF1F08B5FFF765FC064A137843F0040313701032137843F0040345
:400F00001370FFF75DFC08BDA543004008B5074B1B7823B9FFF7B4FF0122044B1A70FFF7E3FF4FF40042024B1A6008BD3E8FFF1F00E100E038B5A44B1C78E4B2A34B1B78B3
:400F400013F0400F00F0378114F0010F00F01B819E4B1B78453B052B00F21281DFE813F006008200100110010600DE0004F0DF0504F00A04082C42D1944B1B78DBB2452B3E
:400F800035D1934B1B7813F0FF0F10D0914B1B681B78DBB2904A137004228B4B1A7001228E4B1A704622894B1A702C46EBE08C4B1B7813F0020F0DD08A4A137843F00A03E4
:400FC00013706022814B1A704FF40042864B1A602C46D8E0854A137843F0100313701022834B1A700422023B1A702C46CBE00022754B1A704A22754B1A702C46C3E00A2C78
:401000002BD1784A137843F0A0031370744B1B7813F0020F14D06D4B1B7813F0080F01D0092300E00A236F4A11780B4313706022664B1A704FF400426B4B1A602C46A2E0DC
:401040006A4A137843F0100313701022684B1A700422023B1A702C4695E00020FFF7AEFC2C4690E014F0020F35D15C4B1B78584A1278DBB2934210D2584A1378DBB2554966
:401080000968CB5CDBB254490B7004214E4B197013780133DBB2137075E0514B1B7813F0020F0CD04F4A137843F00A0313706022464B1A704FF400424B4B1A6063E04B4A78
:4010C000137843F0100313701022494B1A700422023B1A7057E0424B1B7813F0020F0CD0404A137843F09A0313706022374B1A704FF400423C4B1A6045E03C4A137843F033
:401100001003137010223A4B1A700422023B1A70344A137843F09003137034E0354A1378DBB2354908682C490978C9B2C15413780133DBB213701378304A1278DBB29342BA
:4011400003D21022204B1A701DE0254B1B7813F0020F0CD0234A137843F00903137060221A4B1A704FF400421F4B1A600BE01F4A137843F0100313700022134B1A7002E05B
:401180000020FFF71BFC14F0200F1CD00F4B1B7813F0080F01D0012300E00223114A11780B431370114A137803F0EF0313701022064B1A7038BD054B1B7813F0100F02D105
:4011C0001022024B1A7038BDD7490040C891FF1FCC91FF1FD091FF1FD8490040D491FF1FCF91FF1FDC91FF1F80E100E0D6490040D9490040CD91FF1FD891FF1FCE91FF1FB1
:401200001A4B1B78DBB2102B29D1194B1B7813F0080F26D14FF40042164B1A604000C0B229B140F001004922104B1A7002E045220E4B1A70104B1870012201331A700F4B35
:401240001B7813F0010FFAD00C4B1B7803F00A030A2B08D11022054B1A700320704702207047012070470020704700BFC891FF1FD949004080E100E0D8490040D7490040FE
:401280000A4B1B7813F0040F0ED01023074A13700421023A1170064A1370064B1B7813F0210FFAD00020704702207047D9490040C891FF1FD7490040114B1B7813F0040FC7
:4012C0001BD0104B18700422013B1A7046220E4B1A700E4B1B7813F0010FFAD00B4B1B7813F0020F04D16022074B1A70002070476022054B1A70032070470220704700BF4B
:40130000D9490040D8490040C891FF1FD7490040014B1B681864704708ED00E04001C0B2014B1870704700BF00E400E00122014B1A60704700E100E00122014B1A6070477A
:4013400080E100E010B50446FFF7F6FF2046FFF7DFFF0120FFF7E2FFFFF7E8FF10BD00BFF0B583B084468E4617461E460B4C02252570002300930193284661467246FFF740
:40138000BDFA207839463246FFF77AFA20782946FFF764FA207803B0F0BD00BF2581FF1FF0B583B086460F4616461D460B4C01232370002200920192184671463A46FFF70F
:4013C0009DFA207831462A46FFF75AFA20780221FFF744FA207803B0F0BD00BF2681FF1F014B1B685864704708ED00E04001C0B2014B1870704700BF01E400E00222014BD9
:401400001A60704700E100E00222014B1A60704780E100E010B50446FFF7F6FF2046FFF7DFFF0120FFF7E2FFFFF7E8FF10BD00BF054A137843F0040313701032137843F0AC
:4014400004031370704700BFA8430040054B1A7802F0FD021A701A7800F0020010431870704700BF28580040014B1870704700BF825B0040064B1B78C3F3810303F1924301
:40148000063393F82831DBB2024A1370704700BF285800400A46004008B5064B1A7802F0F3021A701A7800F00C0010431870FFF7E1FF08BD2858004008B50020044B187064
:4014C00001331870FFF7E8FF0220FFF7BFFF08BD2858004008B5074B1B7823B9FFF7ECFF0122044B1A70FFF7A3FF4B20FFF7BCFF08BD00BF3F8FFF1F054A137843F0010368
:4015000013701032137843F001031370704700BFA74300400F490B7803F0FC0200F0030313430B7001280AD10B4B1B78DBB20B4A13700B4B1B78DBB2013213707047094BE5
:401540001B78DBB2054A1370074B1B78DBB201321370704740580040100100493046004014010049AD010049B501004908B50120FFF7D0FF0B4B1A7842F020021A701A7863
:4015800002F0FB021A701A7842F008021A7003F287231A7802F0E7021A701A7842F008021A7008BD4058004008B5054B1B7823B9FFF7DCFF0122024B1A70FFF79DFF08BD31
:4015C000408FFF1F0E4B70B51E460E4C0025E41AA410A54204D056F8253098470135F8E700F0B4F8084B094C1E46E41AA4100025A54204D056F8253098470135F8E770BD9B
:401600005817000058170000581700006017000010B5431E0A44914204D011F8014B03F8014FF8E710BD03460244934202D003F8011BFAE77047000000000000C849004049
:401640001900105100401000405100403000C0510040100000000140001000140140000800400140000A004C0140000200500140200000000F312B0C0E084EF137071003A8
:401680000E090000000E1403110731C148080F0C31360F000804802880ED0024369112432004802880ED00243691124310048026C6ED001E3691124340048026C6ED013DA7
:4016C000009112430000001DBDBF018112819351120C0D171832191A03373839FF00000009100E00090115003FA641004208160633C034BFA88096048E003C778B063591F7
:401700009488958840C1292F0F4313E03D5069805C965D965E1059EB5A9C5B5543F0441045554686476448865FE0608C6120A5D9A4748D0213E78C23A9B8AA92AB0A8FDF7F
:40174000900091009F00A000143AFFFFF8B500BFF8BC08BC9E4670474D00000079040000F8B500BFF8BC08BC9E46704729000000801700000881FF1F50020000880E0000A6
:40178000000000007F800000070000000000A08C401901004800000000A24A04FFFFFF00F0B42448244B3FE01D1D1C6862B2C4F3072144F30746230E8C1AA41B8F188919B6
:4017C00003D4FF29A8BFFF2100E00021002C03DBFF2CA8BFFF2400E00024002F03DBFF2FA8BFFF2700E00027017044708770991A891B1A449B1903D4FF2BA8BFFF2300E0E1
:401800000023002903DBFF29A8BFFF2100E00021002A03DBFF2AA8BFFF2200E00022C3700171427106302B46044A9342BCD3F0BC704700BF7483FF1F488FFF1FC891FF1FBF
:4018400010B4124B124A1BE0541C127812F0090F01D0FF2000E0002012F0020F01D0FF2100E0002112F00C0F01D0FF2200E00022187059709A70D87019715A71063322463D
:4018800004498A42E0D35DF8044B70477483FF1F488FFF1FE88FFF1F30B583B0032000F087F80124144B1C70144D95F8C00395F8C11300F085F895F8C003214600F068F822
:4018C0008DF8074007E00D4B93F8C00300210DF1070200F065F89DF8073013F0010FF2D1074B1B7813F0020FFAD00020024B187000F05EF803B030BD796400407483FF1FA8
:401900006D64004008B51E4B1B78012B19D113E00A6853B242F307428033DB1080325B0103EBE203174A02EB4303B3F8C4230132A3F8C423043100E01349144B9942E7D320
:4019400008BD104AD2F8C43B591CC2F8C41B0BB1FFF7A2FF0A4B1B78022B02D1FFF770FF01E0FFF71DFF074BD3F8C43BF02B05D10022044BC3F8C42BFFF78EFF08BD00BFAF
:40198000448FFF1F7483FF1F488FFF1FC891FF1F01B40248844601BC604700BFFD07000001B40248844601BC604700BFCD08000001B40248844601BC604700BF8107000090
:4019C00001B40248844601BC604700BFB50800000000000000000000000000000000000000000000000000000000000000000000000000000000000000000000000000003E
:401A000000000000000000000000000000000000000000000000000000000000000000000000000000000000000000000000000000000000000000000000000000000000A6
:401A40000000000000000000000000000000000000000000000000000000000000000000000000000000000000000000000000000000000000000000000000000000000066
:401A80000000000000000000000000000000000000000000000000000000000000000000000000000000000000000000000000000000000000000000000000000000000026
:401AC00000000000000000000000000000000000000000000000000000000000000000000000000000000000000000000000000000000000000000000000000000000000E6
:020000040003F7
:0200000480007A
:4000000007520040015A00400864004008030140080501403E060140410701403A0801404B090140340A0140500B0140410C01404D0D0140390E0140340F01400115014079
:400040000E1701400D190140011B01400340014014410140104201401043014004440140294501401D460140134701400E48014007490140104C0140024D014005500140B3
:4000800003510140005C01C8109511C612FF18A01920C7042A402CC02EC02F403A403C403EC03FC08320A180A201B180B601E008E201E60881109B20A180A201E020E20B92
:4000C000E404EE0200010406080E0A100C020E041301160819021A011B011C041E121F022001240128012C0131033218340136063A803E10580459045B045C225F018001CE
:40010000810385048601880189038D028E018F0191039601970398019B019F02A103A504A601AA01AB01AC01B301B401B504B702B820B980BF14D804D904DB04DC88DF310A
:40014000015002100340044205400608076008200A100DA81022120814201550171119101C101D481F20200622402310278028102A102B803022324833013410360137A00B
:40018000380239503A0859105A105C5069407902802083808A108F7094049A089B209D10A180A201AA08B404C0FFC2E6C4F7CA07CCBFCE0FD630DE01E010E220E444E60249
:4001C000EE61070409010A010B020C010D04110414011508171018011904200121042508271029022A012B012C012D04331C3401370339083A303F404205470E481049FF13
:400200004AFF4BFF4F83580459045A045B045C885D085F318B018D01910199019A02A101A601A801AA02B101B403BE10D804D904DB04DC80DF31046009200E281008130859
:400240001401152218041E04210122022580260827202B802C012D102E042F80300131103510360A38603C403D083E10458046024C0157085C885E025F10658866026704D4
:40028000680978027C02811082048708880189908A048C01921093149604988899089B089E20A120A201A408A628AB40B080B180C0C0C262C4D6CAF1CCE5CE7CD210D6F0A7
:4002C000D8F0DE81E040E220E620EE20070408010B010F041501170218011B021E04220228022A0432013304360637033E443F444062420346054701481449FF4AFF4BFFD5
:400300004F8350045101580459045A045B045D085F2164D095019D01B101C203C5E0C802C9FFCAFFCBFFCF83D904DA04DB04DC20DD08DF21020809100A05108819801B08EE
:40034000228023202740300832103744380839A041084204430846204A084C4050045140588A5B105D025E885F20602062026305660269016AA8712572017A207E208040DE
:40038000820284408A808B148C0A8E018F109120921093019501968897049820990A9B0C9D059F40A0C0A246A408A518A628A708AB01AD01B310B612B710C002C203C40AA0
:4003C000CC56CE0ED046D204D6FFD88FDE42E020E208EA01100116011F01340135013E10406242034651480C49FF4AFF4BFF4F8350045101580459045A045B045C205D0865
:400400005F2164D08202870289019301950297049E01A704A801AA02B003B101B306B902BE01BF04C034C102C540C6DEC70CC81EC9FFCAFFCBFFD001D601D804D904DA04FE
:40044000DB04DC10DD01DF01E2F0E420E620E820EAE0EC20EE2001010A010FA0104812801410150818801E082020210122012704290430083201374038083A204125422065
:40048000451848404E0851245280575058505C025D805E045F10648065086705682069206A016B01708473487E2083048402868088B089088A048C408D80968C9751990285
:4004C0009CA29D899F11A240A428A518A62AA708B011B401C008C231C402CA02CC13CE06D067D220D6FCD8F0DE40E008E602EA300F04130114011505170A1A041F022001E6
:400500002308260228022A04300133033606370C3E413F444062420345104650480A49FF4AFF4BFF4F8350045101580459045A045B045D085F2164D08701A501B701BF403D
:40054000C062C203C501C650C809C9FFCAFFCBFFCF83D004D101D904DA04DB04DD08DF21E4D00A080B2010A8180219022022264029012F203008324033013B403F04400832
:4005800043084408451848804A084E084F0453105720580259805A045B105C025D805E045F1060206212630164806508661067017A207E208A10C206C40ECA41CC0BCE48B7
:4005C000D066D224D6FFD8FFDE42EC108B019F01A920AA08AC20AD10AF10B001B101B401E420E808EA06EC0888019C01A810A904AE30AFA0B002B110B220B444E420E8C087
:40060000EA24EC103B013F42CEE009200D8054205B085C106080658066208020852087019741A701C2C0D440D6E0D8C0E010E280E6103C80830186A08980932094109741EA
:400640009C809D809E209F08A180AF10CE20E2D0EE408280874088808D208E01932097409A809C809F08A810B040B580E420E640EE8028028808CA08E60400040144020282
:400680000520062008040A180C180F015020548059405B085C406120640866406D108524881089208A068C2490409808A080A408B08AB442C00FC20FD407D607D803DA01FD
:4006C000E205E409E606E803EA0CEC01000805014A028501880889408A208B108D608E20914C9510980499209A209D409E409F08A008AA10B220B620B701C00CD208E00513
:40070000E20AE607EE0B88048914910893209511980499019F08A004A540A602B144B240E001E204E601EA04EC01EE04028105200780248027088B8093209A809D209E0126
:400740009F08A680C0F0C8A06680672093209A80B440D680D8801181150479087F10910893209505A540A602A901B004B708C40EDE03EA04EC02B602EC08000602140A0408
:400780000C040E06000503C010150000C0000120E000E01C1C0100000800300F0F0000000001000000FFFF00FFFF0001E40000E4E400A000000000000001000000000000AD
:4007C00000000000000000000000000000000000000000000000000000000000000000000000000000000000000000000000000000000000000000000000000000000000F9
:4008000000000000000000000000000000000000000000000000000000000000000000000000000000000000000000000000000000000000000000000000000000000000B8
:400840000000000000000000000000000000000000000000000000000000000000000000000000000000000000000000000000000000000000000000000000000000000078
:400880000000000000000000000000000000000000000000000000000000000000000000000000000000000000000000000000000000000000000000000000000000000038
:0200000490006A
:0400000000004005B7
:0200000490105A
:04000000BC90ACAF55
:0200000490303A
:02000000D8FE28
:0200000490402A
:4000000000000000000000000000000000000000000000000000000000000000000000000000000000000000000000000000000000000000000000000000000000000000C0
:400040000000000000000000000000000000000000000000000000000000000000000000000000000000000000000000000000000000000000000000000000000000000080
:400080000000000000000000000000000000000000000000000000000000000000000000000000000000000000000000000000000000000000000000000000000000000040
:4000C0000000000000000000000000000000000000000000000000000000000000000000000000000000000000000000000000000000000000000000000000000000000000
:0200000490501A
:0C00000000012E16106900012E21E96796
:00000001FF