:400000000080002011000000290400002904000008B5044B1A6803F53F5302331A6000F005FA00BFFA46004010B5054C237833B9044B13B10448AFF300800123237010BD1E
:400040005883FF1F0000000058160000084B10B51BB108480849AFF300800848036803B910BD074B002BFBD0BDE81040184700BF00000000581600005C83FF1F0881FF1FC1
:400080000000000030B585B0022000F087FB314D03232B700024304B1C70082000F07EFB2C7001F027FA01F08FFA00F04DFD00F059F800F021FE4120022100F001FE4FF42F
:4000C0007A7000F049F962B6244B1C70502021468022134600F082F9302300936FF01F0001906FF00F03029320230393402122466FF03F0300F03EF9FF23194A1578EDB27E
:4001000025EA030313F0020F09D0144A13780133DBB21370022B02D90022104B1A7000F047F8022000F03AFB03220A4B1A7014F0010F01D0042200E00022074B1A700820F6
:4001400000F02CFB0022034B1A700134E4B22B46D3E700BF7364004071640040448FFF1F6565004010B50120014641F6FF724FF4804301F005F90D4C84F8C00300F0F2FB53
:4001800084F8C103A1B246F2455200F019FC94F8C1034FF47071FE22012300F0FDFB94F8C003002100F06AFB10BD00BF7483FF1F2DE9F04383B000F0FDFA804600F07AFD42
:4001C0008146574A1378022B14BF0023012355490B701378012B0CD1534800214FF4006201F031FA00200146DF22134600F01AFD06E00020014640F23F12EF2300F012FDF2
:400200004A4B1B7813F0020FFAD00022484B1A7000F03EFE0028FBD0002000F0BFFA00F061FD032000F0BAFA3D4B1B78012B6BD101223F4B1A70002464E004EB45123D4B8C
:4002400003EB4203B3F8C433FF2BA8BFFF23DBB28DF806308DF805308DF80430E400364B1A78EB00B2EBC50F0ADD344A1278D2B2A24205DC00228DF806208DF805202CE02D
:400280002F4A1278D2B29A420ADD2E4A1278D2B2A24205DD00228DF806208DF804201CE0294A1278D2B29A420ADC284A1278D2B2A24205DD00228DF805208DF804200CE04C
:4002C000234A1278D2B29A4207DC224A1278D2B2A24202DC00228DF80520DD10E410019800F0BAFC013600E00026062EA5DD013500E000251F2DF7DD013700E00027062FDA
:40030000F7DD01341F2CF9DD00F0BEFC084B83F80090404600F042FA03B0BDE8F08300BF448FFF1F776400403887FF1F67650040736400407483FF1F25640040356400408C
:4003400023640040336400402164004031640040206400403064004010B5C0F30A04210A2A20090100F0ACFC2B20E1B200F0A8FC10BD00BF10B48038C0B2144C207080397B
:40038000C9B213480170803AD2B212490A70803BDBB2114A13709DF90430803BDBB2123A13709DF90830803BDBB2103213709DF90C30803BDBB2113A13709DF91030803B88
:4003C000DBB2103213705DF8044B704725640040356400402364004033640040F8B504460F4615461E461320E02100F069FC0020394600F065FC0120314600F061FC022085
:40040000294600F05DFC042004F0030100F058FC1020C4F3870100F053FCA10AA12041F0400100F04DFCF8BDFEE700BF08B5104E104D16E029686B68AC68002204E051F851
:40044000040B43F8040B0432A242F8D1E868002203E0002143F8041B04328242F9D11035013E002EE6D101F0BDF8FFF70BFEFEE7010000008817000008B5134A134B1A6027
:40048000134A136843F40073136000230AE0032B03D8104A52F8231000E00F490F4A42F8231001332F2BF2D90D4B1A780D4B1A700A4A0D4B1A6000F0DBF800F095F90022AE
:4004C0000A4B1A6008BD00BF0004FA050CED00E014ED00E000000000290400000080FF1FBC7600400481FF1F08ED00E00081FF1FFEE700BFF0B40022174611E050F8276011
:40050000F3B226F0FF0608E001EB420511F812406D78A5550132013BDBB2002BF4D10137232FEBD9F0BC7047104B1B78DBB203F007010F4A11701B09013213701C220D4B49
:400540001A70022203F25F731A7010230A4A1370303213704022094B1A70D0223D331A704422A3F28A231A70704700BFCF0100496E5800400D510040905A0040C35A004075
:4005800038B505222B4B1A8018232B4A137007210232118002321370472102321180023213709B210232118002321370022102F27222117008214FF040221170032102F592
:4005C000007211701D4A1278D2B21D490A701D4A138042F251221C4B1A80002419250CE01A4B1B7803F0010343EA440404F003044FF4F07000F0E8F8013D0DB1032CEFD106
:4006000015B90320FFF774FF114B4FF480721A8007221A7000220F490A704820023108701A700222033B1A700B4A137843F00F03137038BD80400040824000400801004914
:40064000A14600402242004020420040254200400440004006400040A243004008B50A46002100F0F0FF08BD08B500F0E1FF08BD10B572B66122334B1A70FFF781FF002401
:400680000CE0314963001A1952000A4423445B00C8589188FFF7E2FF0134E4B2072CF0D94FF090402949FFF725FF0322284B1A8028480421FFF7D2FF274828490422FFF7E0
:4006C000D3FF27480421FFF7C9FF264A137843F0020313701032137843F002031370224C237843F040032370A2F58632513A137843F0100313701D481D490A22FFF7B4FFB8
:400700001C481D490A22FFF7AFFF1C481C490A22FFF7AAFF1B481C490822FFF7A5FF1B481B490A22FFF7A0FF1A4A137843F008031370FFF7F9FE184821460E22FFF794FF5A
:4007400010BD00BF004800405C16000090000048485800400076004008760040900900481076004003500140A04300400051004058090048C051004064090048F0510040A8
:4007800070090048225100407C090048305100408409004822430040B0430040044A137803F0F00300F00F0018431070704700BFF0510040024B187800F00F00704700BFA8
:4007C000F1510040000000000230800803D000BF01380046FCD17047EFF3108072B6704780F31088704700BF0B4A7F2313708021517007E0DA0002F1804202F5F042013B9F
:40080000DBB21370002BF5D1DB0003F1804303F5F04300221A7070470C81FF1F172815D831B103010A495A5C42F020025A5405E0030107495A5C02F0DF025A540001044A10
:40084000835C43F00103835400207047012070471070004017280CD80001074BC1180A7942F004020A71C25C42F00102C254002070470120704700BF1070004017280BD8DE
:400880000001064A835C03F0F10301F0070143EA4101815400207047012070471070004041F6FF73994201D14FF4005141F6FF739A4201D14FF40052172808D8C00000F1CF
:4008C000804000F5EC408180C280002070470120704700BF172805D8034B03EB0010417200207047012070471070004017280FD831B1094B03EB00135B7A03F07F030B70BA
:4009000042B1054B03EB0010037A13700020704701207047002070471070004017281BD810B4C00000F1804404F5EC44D201D2B201F07F01114321709DF804201201D2B29F
:4009400003F00F03134363709DF8083003F00F03A3700020E07001E0012070475DF8044B704700BF10B5FFF737FF0A4B5B78182B0BD9084A1478013B5370E30003F180436A
:4009800003F5F0431B78137000E0FF24FFF728FF204610BD0C81FF1F10F0800F0CD111F4704F0BD1C00000F1804000F5F04001808270C37000207047012070470120704729
:4009C00010F0800F08D1C00000F1804000F5F0408180C280002070470120704701BE704710B5044605E0084B1868FFF7EDFEA4F50044B4F5004FF6D8034B586800FB04F049
:400A0000FFF7E2FE10BD00BF1481FF1F70B504460E46074B1D681F2802D90020FFF7DEFF04F01F04103455F8240045F8246070BD08ED00E038B504460D46072902D90020AE
:400A4000FFF7CCFF1F2C02D90020FFF7C7FF04F01F0000F1604000F564406D01EDB2057038BD00BF2DE9F04107460E46FFF7A2FE0546DFF8588098F80040E4B20320FFF749
:400A80008DFE012388F800300E4B1B7813F0010FFAD047F480770C4B1F800A4B1B7813F0010FFAD0B6B2084B1E80064B1B7813F0020FFAD0054B1C702846FFF76FFEBDE8B4
:400AC000F08100BF676500408A6A0040736400402DE9F84380460F461646FFF76BFE0546DFF8609099F80040E4B20320FFF756FE012389F80030114B1B7813F0010FFAD0C1
:400B000048F480780E4BA3F80080002208E00B4B1B7813F0010FFAD0B95C094B198001329642F4DC054B1B7813F0020FFAD0054B1C702846FFF732FEBDE8F8836765004003
:400B40008A6A004073640040F0B589B0FFF732FE0746204D2E78F6B20320FFF71FFE01232B701D4C40F2011323800520FFF738FF40F2111323806420FFF732FF40F2291373
:400B800023803620E821FFF76DFF144B04AC186859689A6807C499899A7B2180A2706C4653F8100F59689A6807C49A899B7B2280A370E02004A90F22FFF78AFFE120694625
:400BC0000F22FFF785FF2E703846FFF7E7FD09B0F0BD00BF736400408A6A00408C16000010B582B0040A8DF804408DF80500100A8DF806008DF807200A0A8DF800208DF85B
:400C000001101A0A8DF802208DF803302A2001A90422FFF75DFF2B2069460422FFF758FF02B010BDF8B507460E4615461C460320FFF7B4FD0122064B1A70384631462A4690
:400C40002346FFF7CDFF4FF49672024B1A80F8BD736400408A6A004082B00190084B1B7813F0020FFAD09DF80420064B1A809DF805201A809DF806201A8002B0704700BF1B
:400C8000676500408A6A0040084B1A78D2B2012119704FF4807103F217631980044B1B7813F0010FFAD0014B1A7070477364004067650040014B1878704700BF73640040CC
:400CC00038B505460C463020002100F0A9FA0028F9D1284600F000FB204600F0FDFA00F0DFFA38BD08B500F0D3F80028FBD100F0CFF80028FBD008BD70B500F017F91220DE
:400D00008021FFF7DDFF0120FFF76AFE002407E0474B03EB44035978FFF7D2FF0134A4B2434B13F81400FF28F2D1002405E0414B195DFFF7C5FF0134A4B23F4B185DFF28BF
:400D4000F5D1012001464FF4804241F6FF7300F081F83A4C2070FFF705FE6070384DADB246F244412A46FFF72BFE627810464FF420710623FFF710FE20780021FFF77EFDC4
:400D8000304E304600F0EEFA2F4B1A781A781A781B782078FFF75EFD20786178FFF79AFD20780121FFF73AFD284A137843F001031370023A137843F001031370023A1378D7
:400DC00043F001031370013A137843F001031370012001464FF4804241F6FF7300F0F0FA2070FFF7BFFD607046F242412A46FFF7E7FD62781046A0210623FFF7CDFD207840
:400E00000021FFF73BFD304600F014FB104B1A781A781A781B782078FFF71CFD20786178FFF758FD20780121FFF7F8FC70BD00BFF8160000C4160000E81600003C8FFF1F88
:400E4000488FFF1F8D82FF1F446400409564004042640040F0B583B086460F4616461D460A4C0023237000930193184671463A46FFF754FD207831462A46FFF711FD207867
:400E80000221FFF7FBFC207803B0F0BD2481FF1F024B187800F00100704700BF0151004010B50222114B1A7081220E3B1A70082202331A700C2211331A70002401331C7083
:400EC0004FF400420A4B1A600F200721FFF7B2FD0F200849FFF79AFD1022074B1A70074B1C70074B1C70074B1C7010BDD649004080E100E0550F0000C891FF1FDC91FF1F1A
:400F0000CD91FF1FD491FF1F08B5FFF765FC064A137843F0040313701032137843F004031370FFF75DFC08BDA543004008B5074B1B7823B9FFF7B4FF0122044B1A70FFF727
:400F4000E3FF4FF40042024B1A6008BD3E8FFF1F00E100E038B5A44B1C78E4B2A34B1B7813F0400F00F0378114F0010F00F01B819E4B1B78453B052B00F21281DFE813F036
:400F800006008200100110010600DE0004F0DF0504F00A04082C42D1944B1B78DBB2452B35D1934B1B7813F0FF0F10D0914B1B681B78DBB2904A137004228B4B1A70012226
:400FC0008E4B1A704622894B1A702C46EBE08C4B1B7813F0020F0DD08A4A137843F00A0313706022814B1A704FF40042864B1A602C46D8E0854A137843F0100313701022E7
:40100000834B1A700422023B1A702C46CBE00022754B1A704A22754B1A702C46C3E00A2C2BD1784A137843F0A0031370744B1B7813F0020F14D06D4B1B7813F0080F01D0BF
:40104000092300E00A236F4A11780B4313706022664B1A704FF400426B4B1A602C46A2E06A4A137843F0100313701022684B1A700422023B1A702C4695E00020FFF7AEFCB3
:401080002C4690E014F0020F35D15C4B1B78584A1278DBB2934210D2584A1378DBB255490968CB5CDBB254490B7004214E4B197013780133DBB2137075E0514B1B7813F057
:4010C000020F0CD04F4A137843F00A0313706022464B1A704FF400424B4B1A6063E04B4A137843F0100313701022494B1A700422023B1A7057E0424B1B7813F0020F0CD03A
:40110000404A137843F09A0313706022374B1A704FF400423C4B1A6045E03C4A137843F01003137010223A4B1A700422023B1A70344A137843F09003137034E0354A137896
:40114000DBB2354908682C490978C9B2C15413780133DBB213701378304A1278DBB2934203D21022204B1A701DE0254B1B7813F0020F0CD0234A137843F009031370602286
:401180001A4B1A704FF400421F4B1A600BE01F4A137843F0100313700022134B1A7002E00020FFF71BFC14F0200F1CD00F4B1B7813F0080F01D0012300E00223114A117812
:4011C0000B431370114A137803F0EF0313701022064B1A7038BD054B1B7813F0100F02D11022024B1A7038BDD7490040C891FF1FCC91FF1FD091FF1FD8490040D491FF1F43
:40120000CF91FF1FDC91FF1F80E100E0D6490040D9490040CD91FF1FD891FF1FCE91FF1F1A4B1B78DBB2102B29D1194B1B7813F0080F26D14FF40042164B1A604000C0B24F
:4012400029B140F001004922104B1A7002E045220E4B1A70104B1870012201331A700F4B1B7813F0010FFAD00C4B1B7803F00A030A2B08D11022054B1A7003207047022059
:401280007047012070470020704700BFC891FF1FD949004080E100E0D8490040D74900400A4B1B7813F0040F0ED01023074A13700421023A1170064A1370064B1B7813F0AF
:4012C000210FFAD00020704702207047D9490040C891FF1FD7490040114B1B7813F0040F1BD0104B18700422013B1A7046220E4B1A700E4B1B7813F0010FFAD00B4B1B784F
:4013000013F0020F04D16022074B1A70002070476022054B1A70032070470220704700BFD9490040D8490040C891FF1FD7490040014B1B681864704708ED00E04001C0B29D
:40134000014B1870704700BF00E400E00122014B1A60704700E100E00122014B1A60704780E100E010B50446FFF7F6FF2046FFF7DFFF0120FFF7E2FFFFF7E8FF10BD00BF88
:40138000F0B583B084468E4617461E460B4C02252570002300930193284661467246FFF7BDFA207839463246FFF77AFA20782946FFF764FA207803B0F0BD00BF2581FF1F50
:4013C000F0B583B086460F4616461D460B4C01232370002200920192184671463A46FFF79DFA207831462A46FFF75AFA20780221FFF744FA207803B0F0BD00BF2681FF1F8A
:40140000014B1B685864704708ED00E04001C0B2014B1870704700BF01E400E00222014B1A60704700E100E00222014B1A60704780E100E010B50446FFF7F6FF2046FFF739
:40144000DFFF0120FFF7E2FFFFF7E8FF10BD00BF054A137843F0040313701032137843F004031370704700BFA8430040054B1A7802F0FD021A701A7800F0020010431870AF
:40148000704700BF28580040014B1870704700BF825B0040064B1B78C3F3810303F19243063393F82831DBB2024A1370704700BF285800400A46004008B5064B1A7802F0D7
:4014C000F3021A701A7800F00C0010431870FFF7E1FF08BD2858004008B50020044B187001331870FFF7E8FF0220FFF7BFFF08BD2858004008B5074B1B7823B9FFF7ECFFA2
:401500000122044B1A70FFF7A3FF4B20FFF7BCFF08BD00BF3F8FFF1F054A137843F0010313701032137843F001031370704700BFA74300400F490B7803F0FC0200F003030E
:4015400013430B7001280AD10B4B1B78DBB20B4A13700B4B1B78DBB2013213707047094B1B78DBB2054A1370074B1B78DBB201321370704740580040100100493046004058
:4015800014010049AD010049B501004908B50120FFF7D0FF0B4B1A7842F020021A701A7802F0FB021A701A7842F008021A7003F287231A7802F0E7021A701A7842F00802A7
:4015C0001A7008BD4058004008B5054B1B7823B9FFF7DCFF0122024B1A70FFF79DFF08BD408FFF1F0E4B70B51E460E4C0025E41AA410A54204D056F8253098470135F8E7D4
:4016000000F0B0F8084B094C1E46E41AA4100025A54204D056F8253098470135F8E770BD7017000070170000701700007817000010B5431E0A44914204D011F8014B03F821
:40164000014FF8E710BD03460244934202D003F8011BFAE77047000000000000C8490040190010510040100040510040300000000140001000140140000800400140000A34
:40168000004C014000020050014020000F312B0C0E084EF1370710030E090000000E1403110731C148080F0C31360F000804802880ED0024369112432004802880ED0024E8
:4016C0003691124310048026C6ED001E3691124340048026C6ED013D009112430000001DBDBF018112819351120C0D171832191A03373839FF00000009100E000901150025
:401700003FA641004208160633C034BFA88096048E003C778B0635919488958840C1292F0F4313E03D5069805C965D965E1059EB5A9C5B5543F044104555468647644886ED
:401740005FE0608C6120A5D9A4748D0213E78C23A9B8AA92AB0A8FDF900091009F00A000143AFFFFF8B500BFF8BC08BC9E4670474D00000079040000F8B500BFF8BC08BC56
:401780009E46704729000000981700000881FF1F50020000880E0000000000007F800000070000000000A08C401901004800000000A24A04FFFFFF00F0B42448244B3FE0C8
:4017C0001D1D1C6862B2C4F3072144F30746230E8C1AA41B8F18891903D4FF29A8BFFF2100E00021002C03DBFF2CA8BFFF2400E00024002F03DBFF2FA8BFFF2700E00027BC
:40180000017044708770991A891B1A449B1903D4FF2BA8BFFF2300E00023002903DBFF29A8BFFF2100E00021002A03DBFF2AA8BFFF2200E00022C3700171427106302B4625
:40184000044A9342BCD3F0BC704700BF7483FF1F488FFF1FC891FF1F10B4124B124A1BE0541C127812F0090F01D0FF2000E0002012F0020F01D0FF2100E0002112F00C0F75
:4018800001D0FF2200E00022187059709A70D87019715A710633224604498A42E0D35DF8044B70477483FF1F488FFF1FE88FFF1F30B583B0032000F087F80124144B1C701B
:4018C000144D95F8C00395F8C11300F085F895F8C003214600F068F88DF8074007E00D4B93F8C00300210DF1070200F065F89DF8073013F0010FF2D1074B1B7813F0020FF9
:40190000FAD00020024B187000F05EF803B030BD736400407483FF1F6765004008B51E4B1B78012B19D113E00A6853B242F307428033DB1080325B0103EBE203174A02EB46
:401940004303B3F8C4230132A3F8C423043100E01349144B9942E7D308BD104AD2F8C43B591CC2F8C41B0BB1FFF7A2FF0A4B1B78022B02D1FFF770FF01E0FFF71DFF074B9A
:40198000D3F8C43BF02B05D10022044BC3F8C42BFFF78EFF08BD00BF448FFF1F7483FF1F488FFF1FC891FF1F01B40248844601BC604700BF1D08000001B40248844601BC41
:4019C000604700BFED08000001B40248844601BC604700BF9D07000001B40248844601BC604700BFD508000000000000000000000000000000000000000000000000000033
:401A000000000000000000000000000000000000000000000000000000000000000000000000000000000000000000000000000000000000000000000000000000000000A6
:401A40000000000000000000000000000000000000000000000000000000000000000000000000000000000000000000000000000000000000000000000000000000000066
:401A80000000000000000000000000000000000000000000000000000000000000000000000000000000000000000000000000000000000000000000000000000000000026
:401AC00000000000000000000000000000000000000000000000000000000000000000000000000000000000000000000000000000000000000000000000000000000000E6
:020000040003F7
:0200000480007A
:4000000008520040015A00400964004002650040350001402F01014041020140500301404A040140540501404D0601404E07014003090140040B0140040D0140010F0140A5
:40004000551401404E150140571601404F17014004190140041B0140044001400F4101400E4201400B4301400544014027450140144601400C4701401B4801400A4901404B
:40008000134C0140094D0140095001400351014000C4016C105A11C912FF182019206008C70420C021C02340254030C03140334035C08638840F867240344205450146507E
:4000C000480949FF4AFF4BFF4F83500451015A045B045D085F3164D08210830185018A018E4092049E20A280A602A855AAAAAE08B030B203B301B40CB6C0BE55BF04C03413
:40010000C205C501C750C821C9FFCAFFCBFFCF83D004D101D804D904DA04DB04DD08DF31E4D0060907400C800F40156017061C1A1F0226043D023F084108430145084701D4
:4001400048204A024E024F0853205501580459105A415E415F1460066106644A65046C806D606E04769077067A807E808805C0D0C290C4F0CEC0D0C3D218D6FFD8FFDE8126
:4001800001010501066308080C670E18141C1661183C1A421C04207F25012604281829012C103258341F350136383A283B023F104202470E481049FF4AFF4BFF4F835804B0
:4001C00059045A045B045C335D085F3184018A028C049404A202A401B001B402B604BE51C034C205C501C605C805C9FFCAFFCBFFCF83D004D101D804DA04DB04DD08DF31B5
:40020000E4D000A0032004080580060409080C100E100F0210A015011602172819221B401D401E101F14250126102C102D082F143D0B41084301452048104A024E024F80D2
:4002400050805708580459105A415D225E8860066106678069A06A206B047A807C0C7E8081CC88428B148C048D14920494049520964197549A909C4E9D149E099F41A020BC
:40028000A110A204A320A50AA682B302B410C0E7C2E4C4FCCA60CEC0D023D208D6FFD88FDE81044F06300A20140C1610182A1A5020802215244F2610300332C0343C380AAB
:4002C0003A203E01420145E0480249FF4AFF4BFF4F8358045A045B045C035D085F3181BF85B3870C89048D119122934094019533990C9E01A108A733A90FABB0AD0CAFB38B
:40030000B001B180B30FB540B730B902BB08BE01C034C205C510C650C80AC9FFCAFFCBFFCF83D004D101D804D904DA04DB04DC30DD08DF31E4D0008003290A080B200F21F1
:4003400012601510160419081B2A1E802506270A28012B012D442E022F04340136043720380839043D9A41404508470149014F815710580459105A415E415F14604E61040D
:40038000644A650479087A807BA07F808101900691409265931C940897C0984699549A909B049E0F9F69A111A210A340A440A52CA6C0A701A940AA40AB08AC04B102B20120
:4003C000B401C006C2A6C40CCAF0CCE0CEF0D0C8D210D6FFD8FFDE81E801EA0CEC420004011002390422070208040A190B100E010F0814331505170A183319101C331D1033
:400400002033211027012A332E112F043020310C320E341035103601370338883A033E103F415418580459045B045C885D305F318104830889038D039508970699039D0388
:40044000A103AB03B10CB302B701B908BF41C004C540C9FFCA07CBFFCC40CD20CEF0CF05D008D608D904DA04DB04DC80DD93DF31E040E1A8E240E320041405810C900F1035
:40048000148815401C901D291F402040214022082484270128882A202B082CA2309031103248348035103704380239403B103D013EA4430249804A804B80524058405F0249
:4004C0006302670A69407B807F8082408F2090029108922494489580960897E099489A909B069E4F9F60A117A210A382A440A568A625A701AF80B601C0F0C2E0C4D0CAD535
:40050000CC7ECEFDD001D688D838DE81E260E602EA10EE08E220E602EE08E801EA4CEC42EEA0E2F0E6E0E810EC80E0A0051107260B10152C1713180119111B0E1F08272C08
:400540002F1331103201330F352A3B283E043F0140344102450E46C0470B481949FF4AFF4BFF4EF04F44500C5401580459045A045B045C305D335F0166C06A406B0283402D
:40058000850287318B08910F93109401950197029E01A547A720B160B318B503B601B704B880BB20C061C102C5E0C6C0C74DC83AC9FFCAFFCBFFD001D601D804D904DA0438
:4005C000DB04DC21DD01DF01E2F0E420E620E820EAE0EC20EE200B080D800F2019041D8020042224238024102501270A29082A402B022F2032A4370A39083B203C103D061F
:400600003E403F404004410443024580460448104B084E404F2053185606571059245A015B805C105D80602063206C206E406F447406760981808308841085208603871040
:4006400088408980910C9688976099089A409C609E099F46A280A320A426A620A708B104B444C2A2CA4ACCCECEE6D037D220D63FE22001140349059F0808099F0D0A0E016A
:400680000F5111801202150116021726200822042601300131603202330734043580360837183E453F01403641044205440146C0470E481849FF4AFF4BFF4C624DA04EF032
:4006C0004F41500C56025711580459045A045B045C325D335F016640670269106A306B106D106E106F1285108604870C89208A018B039405951C960A9702990C9A029B115D
:400700009D10A509A608A710A914B00CB403B51FB720BE11BF40D804D904DB04DC30DF010008030405D009100A200D0A12101620170218441D101E021F25219024082540EE
:400740002604278029082B0832A43604370139283D803E143F02450547804C044D805508562058205AC05E206E146F0176067720824085808B029108922094089608976A5B
:4007800099489A509C409E0F9F60A117A290A301A422A540A625A720A910AB08AD01AF10B080B301B440C0C6C236C434CA06CCCECEF6D0D0D230D62CE222E822EE01E20241
:4007C000E802EC30EE01E280E840EA20EC4038083D083F80CEE008800C80560258105B025C02612066089408A504A740C2C0D480D6E0D8C03C8083409C129E0A9F02A52445
:40080000A740A804AC80B480CE20E220EC40EE80830884028A088E029C129E0AA440A524B702E480E6402B0888808908CA08E0050202031205820640080209800C400D105D
:400840000E400F0850085480588059045D085F10610264086F0488428A428D828E4093109880990CA308B310B504C00FC20FD407D607D803DA01E20FE607E808EC010002D7
:4008800005044A0298109C08A104A308A488A502AB14AC10AF02B190B504B704C00CD208EA02EC02EE0585018904981099049C08A104A308A488A502A602AC01E2040104C1
:4008C00003080402058025202720810484448810940295049C109D809F20A440A524A708A801AD80AF20B104C0F0C8A0E260E640E850EC2063026608740487018A08A004B7
:40090000D640D880DE20E61011041380150278107D088780950698109C08A104A308A480A904AE02B008B502C40EDE03EC0C10408840B308B488C408E201E802EA04EC022C
:4009400000080101021408080A080B01100E12141A0E000503C01015C0000120E000E01C1C0100000800400808000800000000000800300F0F0000000001000000FFFF0041
:40098000FFFF0001E40000E4E400A00000000000000100000000000000000000000000000000000000000000000000000000000000000000000000000000000000000000EB
:4009C00000000000000000000000000000000000000000000000000000000000000000000000000000000000000000000000000000000000000000000000000000000000F7
:400A000000000000000000000000000000000000000000000000000000000000000000000000000000000000000000000000000000000000000000000000000000000000B6
:400A40000000000000000000000000000000000000000000000000000000000000000000000000000000000000000000000000000000000000000000000000000000000076
:400A80000000000000000000000000000000000000000000000000000000000000000000000000000000000000000000000000000000000000000000000000000000000036
:0200000490006A
:0400000000004005B7
:0200000490105A
:04000000BC90ACAF55
:0200000490303A
:02000000963B2D
:0200000490402A
:4000000000000000000000000000000000000000000000000000000000000000000000000000000000000000000000000000000000000000000000000000000000000000C0
:400040000000000000000000000000000000000000000000000000000000000000000000000000000000000000000000000000000000000000000000000000000000000080
:400080000000000000000000000000000000000000000000000000000000000000000000000000000000000000000000000000000000000000000000000000000000000040
:4000C0000000000000000000000000000000000000000000000000000000000000000000000000000000000000000000000000000000000000000000000000000000000000
:0200000490501A
:0C00000000012E16106900012E22A6A49B
:00000001FF