:400000000080002011000000E5280000E528000008B5044B1A6803F53F5302331A6002F063FC00BFFA46004010B5054C237833B9044B13B10448AFF300800123237010BDFC
:40004000C883FF1F000000000C6B0000084B10B51BB108480849AFF300800848036803B910BD074B002BFBD0BDE81040184700BF000000000C6B0000CC83FF1F0881FF1FCF
:400080000000000008B504F0F1F804F047FA03F039FF03F07FFF03F009FE0A2002F020FF03F078FE0A2002F01BFF03F0E7FE0A2002F016FF02F04EFB08BD00BF70B584B0E0
:4000C00002F0C4FB03F014FD03F07CFD02F0C6FF00F0D6F803F00CF94120022103F0ECF84FF47A7000F0C6F962B602225E4B1A70A02000218022134600F0FEF93023009323
:400100006FF01F0001906FF00F03029320230393402100226FF03F0300F0BAF9032002F0B5FB02F009FB0026FF2413E04F4B1D78EDB225EA040414F0040F00D0012614F01C
:40014000020F01D002F022FB14F0010F01D002F00BFB2C46002EE9D0FFF794FF022002F095FBC82002F0BCFE00F054FF022002F08DFB022002F08AFBC82002F0B1FE00F0A6
:4001800043FF022002F082FBC82002F0A9FE00F05DFFC82002F0A4FE02F04AFA0546142002F09EFE002457E0284602F051F901F0C9FB2F4B185D294601F0CAFB00F088FF9B
:4001C000284602F093F9CCB94FF07C530093002028490122002302F0CBF800F015FFC82002F07EFE4FF47A6000F0AEFF0020224901F086F8142002F073FE2BE000F026FF9C
:40020000322002F06DFE02F01BFB194B187801F047FD00F01BFF322002F062FE204602F0C7FA00F0F1FEC82002F05AFE4FF47A6000F08AFF00F0EEFE002002F0B9FA0020AF
:400240000D4901F05DF800F00FFF00F0DDFE142002F046FE0134E4B2042CA5D90020074901F046F804B070BDD88FFF1F66650040A492FF1F00001040008066400080764026
:4002800010B50120014641F6FF724FF4804303F075FB0D4C84F8C00302F0E4FD84F8C103A1B246F2495202F00BFE94F8C1034FF47071FE22012302F0EFFD94F8C00300212E
:4002C00002F05CFD10BD00BFE483FF1F2DE9F04383B002F0F1FC804602F0E8FF8146574A1378022B14BF0023012355490B701378012B0CD1534800214FF4006206F0FDFB72
:4003000000200146DF22134602F046FF06E00020014640F23F12EF2302F03EFF4A4B1B7813F0020FFAD00022484B1A7003F0AEF80028FBD0002002F0B3FC02F0CFFF03203F
:4003400002F0AEFC3D4B1B78012B6BD101223F4B1A70002464E004EB45123D4B03EB4203B3F8C433FF2BA8BFFF23DBB28DF806308DF805308DF80430E400364B1A78EB00CC
:40038000B2EBC50F0ADD344A1278D2B2A24205DC00228DF806208DF805202CE02F4A1278D2B29A420ADD2E4A1278D2B2A24205DD00228DF806208DF804201CE0294A12780C
:4003C000D2B29A420ADC284A1278D2B2A24205DD00228DF805208DF804200CE0234A1278D2B29A4207DC224A1278D2B2A24202DC00228DF80520DD10E410019802F028FF3B
:40040000013600E00026062EA5DD013500E000251F2DF7DD013700E00027062FF7DD01341F2CF9DD02F02CFF084B83F80090404602F036FC03B0BDE8F08300BFD88FFF1F9C
:4004400077650040A887FF1F676400407D640040E483FF1F276500403765004023640040336400402B6500403B6500402A6500403A65004010B5C0F30A04210A2A200901B9
:4004800002F01AFF2B20E1B202F016FF10BD00BF10B48038C0B2144C20708039C9B213480170803AD2B212490A70803BDBB2114A13709DF90430803BDBB2F83213709DF954
:4004C0000830803BDBB2103213709DF90C30803BDBB2113A13709DF91030803BDBB2103213705DF8044B704727650040376500402364004033640040F8B504460F461546A4
:400500001E461320E02102F0D7FE0020394602F0D3FE0120314602F0CFFE0220294602F0CBFE042004F0030102F0C6FE1020C4F3870102F0C1FEA10AA12041F0400102F095
:40054000BBFEF8BD08B500222A4B1A804CE002F10E00C2EB02118BB203EB400003EB42022A3280B2002192B2042302F015FE214B1B88214AD35C33B9204BFF221A700022A9
:400580005A709A7016E0012B06D11C4B00221A70FF2159709A700DE0022B06D1174B00221A705A70FF229A7004E0144B00221A705A709A7000220F4B5A800DE00F4A13788A
:4005C000507843EA0023907843EA004002F040FE084A538801335380064B5B884A2BEDD9044A138801331380024B1A88042AAED908BD00BFAC8FFF1FA492FF1FC494FF1FA0
:4006000070B400221C4B5A8030E000221A4B1A8040F241110AE0194A32F8130032F81120904200D219460133134A1380124B1B88042BF0D9114830F81120114B23F814201D
:40064000104A32F81150104B23F814500F4B5E5C0F4D2E5540F2411520F81150F12022F8110000225A540134034B5C80024B5C88042CCAD970BC7047AC8FFF1F1093FF1F5B
:40068000F093FF1F9892FF1F8093FF1F5C92FF1FA492FF1F2DE9F04F87B000AFB8600026AE4B9E80ADF5A16DEB46ADF5A16DEA46ADF5A16DE946D0B0C7F800D0C7F814D0DE
:4006C000D0B0C7F810D06D46D0B06C46A4483146C82206F012FAA3483146642206F00DFAA1483146642206F008FAA0483146642206F003FA9E483146322206F0FEF95846D0
:4007000031464FF4A06206F0F8F9504631464FF4A06206F0F2F9484631464FF4A06206F0ECF9386931464FF4A07206F0E6F9684631464FF4A07206F0E0F9386831464FF4D9
:40074000A07206F0DAF962E10022844B9A7157E10022824B5A8005E0E25CEA547F4A5388013353807D4B5B88B3F5A07FF4D37B4B9B79002019464FF4A07202F0DDFC00237D
:40078000764A538021E002F021FD7A4B1870C0F307225A70C0F3074098702EB96F4B5B88744A1278E2540CE0012E05D16B4B5B88704A5278E25404E0684B5B886D4A92781F
:4007C000E254664A538801335380644B5B88B3F5A07FD8D30022614B5A80B646434603E114F80C10BCF1010F08D00CF1FF32A05C5A4EB679012E03D0AB5C01E0002003460B
:40080000564A9279012A02D015F80C2001E000231A46002900F0E48022BB1BBB10BB09B34E488288013292B28280511E7E6906F801E05BF82120468832444BF82120818809
:4008400001395AF82120867932444AF821208188013959F82120013249F8212042888188A154BDE0002943D0002841D0002A3FD082423DD002F1FF385BF8281001385BF804
:4008800020200A4462444BF8282000264BF820605AF828105AF820200A44DFF8C0C09CF806100A444AF828204AF8206059F8281059F820200A44013249F8282049F82060A6
:4008C000BCF80220A95CA154ACF8006009E0A65C615C8E4201D1295CA15420490A8801320A801E490A884888411E8A42EFDB77E0C1B1B8B1B2B901385BF8202062444BF898
:4009000020205AF8202015498E7932444AF8202059F82020013249F820204A88511E615CA1545DE042BB38BB31B32BB303F1FF385BF8286066444BF828605AF828200749FC
:40094000887902444AF8282059F82820013249F828204A88511E695CA15441E0AC8FFF1FFC93FF1FAC92FF1F8C93FF1F1C93FF1F6492FF1FC494FF1FCAB1C1B1904216D199
:4009800002F1FF385BF8280060444BF828005AF828205249887902444AF8282059F82820013249F828204A88A95CA15418E0BAB1B0B9A9B102F1FF385BF8281061444BF899
:4009C00028105AF828204549887902444AF8282059F82820013249F828204A88A95CA1543E494A8801324A803C4AB2F802C0BCF5A07FFFF4F5AE7646984693790133937119
:400A0000364B9B79EF2B7FF6A3AE0136F6B2022E7FF69AAE314B00229A715A80D046DA46D7F808B050E059F823205A4548DD2B4CA1795AF8230090FBF2F2294D25F8112074
:400A400058F8232059F8230092FBF0F2254E26F811207A69D05C244A505459F82320234B43F8212035F81100A0380028B8BF404205F0ECFC00224FF0804304F035F8C7E996
:400A80000201A57936F81500F03805F0DFFC00224FF0804304F028F802460B46C7E90023D7E90201D7E9002305F084FB04F094F905F0CCFF0E4B23F81500A3790133A371EE
:400AC000064A538801335380044B5B88B3F5A07FA9D31C37BD46BDE8F08F00BFAC8FFF1F8C93FF1F1C93FF1F6492FF1FFC93FF1FAC92FF1F08B51C4BFF221A705A709A70F3
:400B000000221A4B5A8029E0194A32F81320194931F81330501F591F0532053380B289B292B29BB202F038FB0022104B1A800DE00D4A1378507843EA0023907843EA0040D1
:400B400002F086FB094A138801331380074B1B88632BEDD9054A538801335380034B9A795B889A42D0D808BDC494FF1FAC8FFF1F8C93FF1F1C93FF1F10B52E4A13460024B3
:400B800023F8024B5480023323F8024B23F8024B1C80294A134623F8024B5480023323F8024B23F8024B1C80244A134603F8014B5470013303F8014B03F8014B1C7001F09E
:400BC00087FE5020FFF766FDFFF794FF1C4B5C802AE000211A4B19800AE01A4A52F8230052F82120904200DD19460133144A1380134B9A791B889A42EFD8134B33F81120C8
:400C00000C4B23F81420114B33F811200A4B23F814200F4B5A5C094B1A550022094B43F821200134064B5C80054B5C88042CD0D910BD00BF1093FF1F9892FF1F5C92FF1FDD
:400C4000AC8FFF1FFC93FF1F8C93FF1F1C93FF1F6492FF1F70B582B0544A1346002523F8025B5580023323F8025B23F8025B1D804F4A134623F8025B5580023323F8025BE2
:400C800023F8025B1D804B4A134603F8015B5570013303F8015B03F8015B1D70FFF76CFFFFF7AEFC28E0434AD15C02AA1A4402F8081C0133DBB200E00023042BF3D90126D5
:400CC000002416E0FFF758FFFFF79AFC00230CE002AA1A4412F8081C364AD25C914202D02E46052423460133DBB2042BF0D90134E4B2022CE6D93546002DDDD000222E4B00
:400D00001A804DE002F10E00C2EB02118BB203EB400003EB420303F12A0280B2002192B2042302F039FA244B1B88224AD35C33B9224BFF221A7000225A709A7016E0012BC1
:400D400006D11E4B00221A70FF2159709A700DE0022B06D1194B00221A705A70FF229A7004E0164B00221A705A709A700022124B5A800DE0114A1378507843EA002390788D
:400D800043EA004002F064FA0B4A538801335380094B5B884A2BEDD9074A138801331380054B1A88042AADD902B070BDF093FF1F8093FF1FA492FF1FAC8FFF1FC494FF1FA0
:400DC00010B504460846FFF765FCFFF793FE40F24112344B1A80F122334B1A800022334B5A80E52116E0324A32F813208A420ED23048C05CA0420AD12F4931F813002A497C
:400E000008802E4931F813002649088011460133264A5380254B9A795B889A42E3D8214B1A8840F241139A423AD01F4B1B88501F591F0532053380B289B292B29BB202F0E8
:400E4000ABF934B91E4B00221A70FF225A709A700EE0012C06D11A4BFF221A70002159709A7005E0164BFF221A705A7000229A7000220E4B1A800DE0114A1378507843EA1D
:400E80000023907843EA004002F0E2F9074A138801331380054B1B88632BEDD9012010BD002010BD8A93FF1FA292FF1FAC8FFF1FAC92FF1F6492FF1F1C93FF1F8C93FF1F98
:400EC000C494FF1F08B5154BFF221A705A709A70134B1A88134B1B88501F591F0532053380B289B292B29BB202F056F900220E4B1A800DE0094A1378507843EA002390784A
:400F000043EA004002F0A4F9074A138801331380054B1B88632BEDD908BD00BFC494FF1F8A93FF1FA292FF1FAC8FFF1F2DE9F04782B00546F122314B1A804FF0DC0900269E
:400F40003746B04643E01FFA89FA0020514640F23F12534602F0F0F800242DE002F036F910F0FF0F14BF01220022C0F30743003318BF0123C0F30720003018BF01200DB927
:400F800002B11BB1022D02D10BB102B920B1012D10D178B173B96AB9A0440FFA89F31F440136164A1288934201DCF12A02D1134BA3F800A00134A4B2B4F5A07FCED3132E76
:400FC00001DD4FF6FF7909F1FF391FFA89F90FFA89F3002BB7DC98FBF6F8094BA3F8008097FBF6F7074B1F80FFF76CFF142ED4BF0020012002B0BDE8F08700BF1A93FF1F17
:401000008A93FF1FA292FF1F08B5502002F0E4FE08BD00BF08B5322002F0DEFE08BD00BF08B5024B187802F063FE08BD0C81FF1F08B5024B587802F05BFE08BD0C81FF1F4B
:4010400008B5A22002F054FE08BD00BF08B5FFF7E7FF4FF4C87001F043FF024B187802F0D3FD08BD0C81FF1F08B5782002F0CCFD08BD00BF2DE9F04105460E46022001F046
:401080000FFE104C4FF0030884F800800E4F3D70082001F005FE002525700C48A0FB0630400801F01DFF022001F0FAFD84F800803D70082001F0F4FD25700A2001F010FFAB
:4010C000BDE8F0817D6400407A650040ABAAAAAA10B50C4CB4F90420236813442360B4F90C20A3681344A360002002F0DDFE002002F022FF02F0D0FEA08002F015FFA08139
:4011000010BD00BFB48FFF1F38B505460C4611E0FFF7DEFFB4F5D27F07D904EB44042346002C00DAE31CC3F38F0428462146FFF7A1FF0024002CEBD138BD00BF08B501467D
:40114000A020FFF7E1FF08BD08B501465020FFF7DBFF08BD10B502F09FFE034CA08002F0E3FEA08110BD00BFB48FFF1F00000000F8B5064614461D46FFF7AAFF022001F0FF
:401180008FFD4D4F03233B704C4B1E70082001F087FD00233B70902E3FD104E01E2001F09FFEFFF7D7FF464BB3F90C0005F04EF906460F46204629463BA3D3E9002305F0AF
:4011C000ABF900223F4B05F0D1FA02460B463046394605F031FC002852D0394BB3F9040005F034F906460F462046294630A3D3E9002305F091F90022324B05F0B7FA02465B
:401200000B463046394605F0F9FB0028C6D137E01E2001F065FEFFF79DFF294BB3F9040005F014F906460F46204629461EA3D3E9002305F071F90022224B05F097FA02468D
:401240000B463046394605F0F7FBC8B11C4BB3F90C0005F0FBF806460F462046294614A3D3E9002305F058F90022164B05F07EFA02460B463046394605F0C0FB0028C7D181
:40128000022001F00DFD0C4C0323237000250B4B1D70082001F004FD25700A2001F020FEF8BD00BFAFF30080000000000020ACC0000000000020AC407D6400407A650040A2
:4012C000B48FFF1F0080564008B590200022024BFFF74EFF08BD00BF0080564008B560200022024BFFF744FF08BD00BF0080564008B502460B469020FFF73AFF08BD00BF86
:4013000008B502460B466020FFF732FF08BD00BF70B50646FFF794FE642001F0E1FD01F0D7FA3046194B1978FFF74AFD054600241EE044B900201649FFF7E2FF154A1388BC
:401340001C3B13800AE0134A13880E331380142001F0C6FD00201049FFF7CAFF01F0B8FA30460A4B1978FFF72BFD05460134E4B20DB9042CDDD93DB900200549FFF7C0FFB5
:40138000044A13881C3B1380284670BD166B000000003C40C48FFF1F00002C40000000002DE9F84304468946FFF74AFE142001F097FD01F08DFA20468D4B1978FFF700FD4A
:4013C000002868D1FEE003F10A018A422DDD05F03DF806460F46C8F5C87005F037F802460B463046394605F0C1F903F0BDF80022804B05F091F87AA3D3E9002305F0B6F905
:4014000079A3D3E9002305F087F806460F46FFF76FFF794D288805F019F832463B4604F0C9FE05F013FB28802EE0981A0A3805F00DF806460F46C8F5C87005F007F802468F
:401440000B463046394605F091F903F08DF80022684B05F061F862A3D3E9002305F086F961A3D3E9002305F057F806460F46FFF747FF614D288804F0E9FF32463B4604F089
:4014800097FE05F0E3FA288001F022FA2046584B1978FFF795FC594B1A88594B1B885B08D01A0A3880EAE071A1EBE0710F2906DD5449B1F80080C8F1F001412983DC514B4B
:4014C0001888C0F1F003402B40F387809F2B55DCFFF752FB4C4B1B78A34232D04B4B1A88484B1B889A422CD9FFF794FD40F6B830FFF72AFEB9F1000F04D000204449FFF772
:40150000FFFE03E000204249FFF7F2FE4FF4FA70FFF714FEFFF778FD4FF4FA70FFF714FE4FF47A70FFF710FEB9F1000F04D000203749FFF7DDFE3BE000203549FFF7E0FEA9
:4015400036E0304B188804F081FF02460B460020304904F02DFE00222F4B05F007F900224FF0804303F0C0FA00222A4B04F0D4FF05F06CFA80B2FFF7E1FD19E004F066FF02
:4015800002460B460020234904F012FE0022224B05F0ECF800224FF0804303F0A5FA00221E4B04F0B9FF05F051FA80B2FFF7C6FD01F08EF920460E4B1978FFF701FC0020A7
:4015C000BDE8F88300201649FFF79AFE0A4A13880A3B13800020BDE8F8830120BDE8F88344174154FB2109409A9999999999D93F166B000000806640C48FFF1F8A93FF1F1F
:40160000106B0000A292FF1F5C92FF1F9892FF1F0080564000007940008061400030814000002440AFF3008070B50646872002F05FFB142001F054FC01F04AF93046184B3C
:401640001978FFF7BDFB054600241BE044B900201449FFF755FE144A13880A3B138007E000201049FFF744FE0F4A13880A33138001F02EF930460A4B1978FFF7A1FB054680
:401680000134E4B20DB9022CE0D93DB900200549FFF736FE044A13880A3B1380284670BD166B000000002440C48FFF1F000000002DE9F0410546872002F01AFB142001F00D
:4016C0000FFC01F005F94E4B1C7828462146FFF777FB804600287CD182E003F10A02914222DD04F0B3FE06460F46464B1888C0F5C87004F0ABFE02460B463046394605F093
:4017000035F802F031FF00223F4B04F005FF36A3D3E9002305F02AF835A3D3E9002304F0FBFEFFF7E5FD22E0581A04F08FFE06460F46344B1888C0F5C87004F087FE024608
:401740000B463046394605F011F802F00DFF00222D4B04F0E1FE24A3D3E9002305F006F823A3D3E9002304F0D7FEFFF7C9FD01F0AFF828462146FFF723FB244B1988244BF7
:401780001B885B08C81AA0F10A02002AB8BF5242142AA2DC1B4B1888C0F1F00004F056FE00221C4B04F0E2FF00224FF0804303F09BF911A3D3E9002304F0AEFE05F046F954
:4017C00080B2FFF7BBFC01F083F828462146FFF7F7FA0C4B1A88104B1B783C3B9A42CCDB4046BDE8F08100BF44174154FB2109409A9999999999D93F000000000070A7404B
:40180000166B0000A292FF1F008066408A93FF1F106B000000005E40126B0000AFF300802DE9F04106460F46B12002F061FA01F04FF830464FF49661FFF7C2FA054660B9B8
:40184000BDE8F0816420FFF779FC01F041F8304641F28831FFF7B4FA0546364B1B88C3F1F003B42BEEDC4FF00108002451E001F02FF8304641F28831FFF7A2FA05462D4B08
:401880001B88C3F1F003B42B07DD4FF4FA60FFF75BFC4FF00008052439E0002837D1FFF76BF9254B1B78B34231D0244B1A88214B1B889A422BD9FFF7ADFB4FF4FA60FFF7F4
:4018C00043FC27B100201E49FFF71AFD03E000201B49FFF70DFD4FF4FA70FFF72FFCFFF793FB4FF4FA70FFF72FFC4FF47A70FFF72BFC27B100201249FFF7FAFC03E000202A
:401900000F49FFF7FDFC4FF46170FFF717FC0134E4B2012CABD9B8F1000F05D03DB1FFF779FB0120BDE8F0810020BDE8F0810020BDE8F081A292FF1F5C92FF1F9892FF1F99
:40194000008056400022014B1A807047C48FFF1F70B504460E46FFF787FB322001F0C0FA2046FFF761FE2046FFF7A2FE00251BE02046FFF7CDFC50B120463146FFF710FD0C
:4019800060B120463146FFF74BFF054606E02046FFF74AFE10B12046FFF78AFEFEF7D2FD4FF4FA7001F09CFA002DE1D040F6B830FFF7CAFB124B188870B1C308114AA2FBEF
:4019C00003239B084FF4B47202FB130080B204F03DFDFFF795FC0FE043420B4883FB00015818DA17C2EB20224FF4B47000FB123004F02CFDFFF77CFCFFF7A4FF70BD00BF74
:401A0000C48FFF1F176CC116B7600BB6000000002DE9F04784B08146B42002F069F9142001F05EFA00F054FF4846FFF77FFA07468F4B1E888F4BB3F800804FEA5808C8EBB8
:401A400006068D4BB3F800A0CAF5C87A00240025EEE0894B1888C0F1F00004F0F7FCCDE90201864B187804F0F1FC7BA3D3E9002304F052FDCDE90001DDE90201DDE900237F
:401A800004F0DAFF002840F08980BAE0002E39DD304604F0DBFC06460F46504604F0D6FC02460B463046394604F060FE02F05CFD0022734B04F030FD69A3D3E9002304F0D1
:401AC00055FE69A3D3E9002304F026FD00226D4B04F04CFE02F0E4FE06460F462046294632463B4604F066FB04460D460022664B04F084FF002800F0A48030463946FFF7D3
:401B0000F7FB3DE0704204F0A1FC06460F46504604F09CFC02460B463046394604F026FE02F022FD0022564B04F0F6FC4CA3D3E9002304F01BFE4CA3D3E9002304F0ECFCAB
:401B40000022504B04F012FE02F0AAFE06460F462046294632463B4604F02AFB00224B4B04F06AFF00286ED030463946FFF7C8FB2046294632463B4604F01CFB04460D46E3
:401B800000F0A6FE4846FFF7D1F9394B1E88C8EB0606394BB3F800A0CAF5C87A86EAE673A3EBE673082B3FF771AF394B188804F04DFC02460B460020364904F0F9FA0022AF
:401BC000354B04F0D3FD00224FF0804302F08CFF0022314B04F0A0FC04F038FF80B2FFF7ADFA00F075FE4846FFF7A0F90746204B1E88C8EB0606204BB3F800A0CAF5C87A84
:401C000016E0234B1888C0F1F00004F01FFC02460B46DDE9000104F00FFF28B14FF4C870FFF78CFA012011E04FF4FA70FFF78CFA002F7FF40EAF47B96420FFF785FA00200B
:401C400004E0002002E0002000E0002004B0BDE8F08700BFAFF300801F85EB51B81ED53F44174154FB2109409A9999999999D93F8A93FF1F106B0000A292FF1F126B00005A
:401C8000008066400000084000003440000034C01A93FF1F00006E4000005940AFF300802DE9F84F0546FFF7DFF9C82001F018F9FFF7C6F9C82001F013F9A22002F018F85C
:401CC000142001F00DF900F003FE2846FFF72EF9A94BB3F80090A94B1B88A9EB5309A84B1C88C4F5C8744FF000082EE1A44B1888C0F1F00004F0AAFB06460F46A14B1878BF
:401D000004F0A4FB82468B4600229F4B04F004FC00224FF07F5304F0FFFB02460B463046394604F089FE00287DD1B1E0B9F1000F34DD484604F08AFB06460F46204604F07A
:401D400085FB02460B463046394604F00FFD02F00BFC00228D4B04F0DFFB7FA3D3E9002304F004FD7EA3D3E9002304F0D5FB7EA3D3E9002304F0D0FB02F092FD06460F46F9
:401D8000FFF7B6FA824C208804F060FB32463B4604F010FA04F05AFE208034E0C9F1000004F054FB06460F46204604F04FFB02460B463046394604F0D9FC02F0D5FB002244
:401DC000724B04F0A9FB64A3D3E9002304F0CEFC63A3D3E9002304F09FFB63A3D3E9002304F09AFB02F05CFD06460F46FFF788FA674C208804F02AFB32463B4604F0DAF971
:401E000004F024FE208000F063FD2846FFF78EF8594BB3F80090594B1B88A9EB5309584B1C88C4F5C87489EAE973A3EBE973082B3FF77CAF574B188804F008FB02460B4641
:401E40000020554904F0B4F90022544B04F08EFC00224FF0804302F047FE45A3D3E9002304F05AFB04F0F2FD80B2FFF767F900F02FFD2846FFF75AF83F4BB3F800903F4BCD
:401E80001B88A9EB53093E4B1C88C4F5C8745CE0404B1C88C4F1F00004F0D8FA06460F465046594600224FF07F5304F035FB02460B463046394604F0A1FDD0B12846FFF765
:401EC000A7FD8046A22001F013FFC82001F008F800F0FEFC2846FFF729F8274BB3F80090264B1B88A9EB5309254B1C88C4F5C8742BE0204604F0AAFA02460B460020264980
:401F000004F056F90022264B04F030FC00224FF0804302F0E9FD16A3D3E9002304F0FCFA04F094FD80B2FFF709F900F0D1FC2846FEF7FCFF104BB3F80090104B1B88A9EB3B
:401F400053090F4B1C88C4F5C874B8F1000F3FF4CDAEBDE8F88F00BF44174154FB2109409A9999999999D93F9A9999999999E93F0000000000C072408A93FF1F106B0000D6
:401F8000A292FF1F126B00000000084000806640C48FFF1F1A93FF1F00006E4000004E4000805640AFF3008038B50446032000F06DFC00F065FC012000F072FE012C19D198
:401FC000012002F0EDF80A2000F0A0FF002002F0E7F800F05FFE10F0010FFAD002F054F9044600F057FE10F0010FFAD102F04CF9054618E0012002F051F90A2000F086FFF9
:40200000002002F04BF900F045FE10F0040FFAD002F03AF9044600F03DFE10F0040FFAD102F032F90546082000F03AFE641BA4B200F020FC204604F009FA09A3D3E9002341
:4020400004F06AFA00220A4B04F066FA06A3D3E9002304F061FA0022064B04F05DFA38BDCD04C3B986197A3F0000000080BFE0400000F03E0000E03F38B50446032000F018
:4020800005FC00F0FDFB012000F00AFE012C19D1012002F085F80A2000F038FF002002F07FF800F0F7FD10F0010FFAD002F044FA044600F0EFFD10F0010FFAD102F03CFA86
:4020C000054618E0012002F0E9F80A2000F01EFF002002F0E3F800F0DDFD10F0040FFAD002F02AFA044600F0D5FD10F0040FFAD102F022FA0546082000F0D2FD641BA4B2C9
:4021000000F0B8FB204604F0A1F909A3D3E9002304F002FA00220A4B04F0FEF906A3D3E9002304F0F9F90022064B04F0F5F938BD3659A31EA2D15D3F0000000080BFE040B5
:402140000000F03E0000E03F2DE9F04F85B00646039100239A464FF0010B00220023CDE90023DFE02EB10020FFF786FFCDE9000104E00020FFF718FFCDE90001322000F042
:40218000AFFE2EB10120FFF777FF04460D4604E00120FFF709FF04460D46DDE9000122462B4604F005F88146884620462946DDE9002303F0FFFF0022674B04F0ADF9002264
:4021C000664B04F0D3FA5CA3D3E9002302F08CFC02460B4628F000444846214604F02CFC002800F08B80039B002B40F08B804846214600225A4B04F0B9FA02F021FC002254
:40220000584B04F089F94EA3D3E9002304F0AEFA0022554B04F0AAFA4BA3D3E9002302F063FC0022504B04F077F904460D46484641460022002304F0FFFB68B120462946AD
:4022400043A3D3E9002304F067F90022424B04F063F9FFF755F85AE0204629463CA3D3E9002304F059F900223B4B04F055F9FFF73FF84CE02EB10020FFF7FEFECDE9000105
:4022800004E00020FFF790FECDE90001642000F027FE2EB10120FFF7EFFE8046894604E00120FFF781FE80468946DDE9000142464B4603F07DFF07460D4640464946DDE9F5
:4022C000002303F077FF0022234B04F025F90022224B04F04BFA18A3D3E9002302F004FC02460B46384625F0004104F0A5FB10B14FF0010B05240134E4B206E04FF0000B2B
:402300005C4602E04FF0000B5C46042CB2D9BBF1000F02D0039B1BB904E001239A4601E001239A465346002B3FF41CAFDDE9000105B0BDE8F08F00BF9A9999999999C93FE6
:4023400044174154FB210940CDCCCCCCCCCCFC3F333333333333E33F0000E03F0000244000002C400080664000004E40AFF300802DE9F84F8046894692469B46104619468B
:40238000FFF7E2FE06460F463DE03046394642464B4603F00DFF04460D460022002304F04BFBF0B1204629460022274B04F0DEF90022264B02F098FB1FA3D3E9002304F0DE
:4023C000ABF80022204B04F0A7F804F03FFB80B2FEF7B4FE50465946FFF7B6FE06460F4611E02046294616A3D3E9002304F094F804F02CFB80B2FEF7A7FE50460021FFF721
:40240000A3FE06460F464046494632463B4603F0CFFE054621F000440A9804F029F802460B462846214604F007FB0028ADD1BDE8F88F00BFAFF3008009CB3D8DB0DC69404B
:4024400009CB3D8DB0DC69C0000024400000F43F10B582B010BBFEF741FF142000F040FD1E4C009400201E4900221346FFF780FF142000F035FDFEF727FF142000F030FDE3
:4024800042F21070FEF75AFE00940020154900221346FFF76DFFFEF717FF1CE0FEF714FF4FF4FA50FEF74AFE0C4C009400200E4900221346FFF75CFFFEF710FF4FF4FA5093
:4024C000FEF73CFE00940020064900221346FFF74FFFFEF703FF02B010BD00BFCDCC4C3F00002E4000002840000024402DE9D04382B0002837D1FEF7E7FE642000F0F0FC93
:4025000000204249FEF7F4FE142000F0E9FC404C009400203F4900221346FFF729FF142000F0DEFC00203C49FEF7EAFE142000F0D7FC42F21070FEF701FE142000F0D0FC90
:4025400000940020354900220123FFF711FFFEF7BBFE00940020324901220023FFF708FFFEF7BCFE4FE0FEF7B9FE322000F0B8FC00202C49FEF7C4FE142000F0B1FC244CB0
:4025800000940020254900221346FFF7F1FE142000F0A6FC0026244F30463946FEF7A8FE142000F09DFC41F65830FEF7C7FD4FF00008DFF87890009440464946002213462B
:4025C000FFF7D6FE00944046494601220023FFF7CFFE30463946FEF78BFE42F6F820FEF7ADFD00260E4F00943046394600221346FFF7BEFE00943046394601220023FFF7FF
:40260000B7FEFEF76BFE02B0BDE8D08300405540CDCC4C3F000024400000564000002E4000002A400000544000805640000039402DE9D04382B041F27070FEF785FDFEF715
:4026400013FD322000F04CFCFEF7F2FC642000F047FC7D2001F0D8FA642000F041FC00F037F9642000F03CFCFEF7F4FAFEF7FCFC642000F035FCC820FEF760FD322000F058
:402680002FFC00202749FEF733FE40F6B830FEF755FD254B00930020244900221346FFF767FEFEF711FE002431E0012C03D100201F49FEF725FE022C03D100201C49FEF718
:4026C00017FE0120FFF770FC804689460020FFF76BFC06460F46012C03D100201449FEF707FE022C03D100201149FEF709FE3046394600220F4B04F081F960B94046494692
:4027000000220C4B04F07AF938B90134E4B2022CCBD9002002E0012000E0012002B0BDE8D08300BF00005440CDCC4C3F000030400000144000003E4008B501F0F1FD0A20DE
:4027400000F0CEFB024BB3F9000001F0BBFD08BD1081FF1F08B5034BB3F9000001F0B2FD08BD00BF1081FF1F08B5012001F064FE002001F06DFE4FF4FA7000F0B1FB0020EA
:4027800001F05AFE002001F063FE08BD08B5002001F052FE012001F05BFE4FF4FA7000F09FFB002001F054FE002001F045FE08BD38B5054601F07EFD2C46204BB3F902200E
:4027C000B3F9003002FB0535A8421BDD012001F033FE002001F03CFE02E0642000F080FB01F068FD154AB2F90230B2F9002003FB04239842F1DC002001F01EFE002001F01E
:4028000027FE38BD002001F017FE012001F020FE02E0642000F064FB01F04CFD074AB2F90230B2F9002003FB04239842F1DB002001F00EFE002001F0FFFD38BD1081FF1FA7
:4028400008B50920FFF7B4FF08BD00BF38B5022000F026FA054C032323700025044B1D70082000F01DFA257038BD00BF7D6400407A6500400322014B1A7070477D64004090
:402880000022014B1A7070477D64004010B50446FFF7F0FF0CE0022000F002FA03220B4B1A70082000F0FCF90A2000F019FB013C002CF0DC022000F0F3F90022034B1A70ED
:4028C000082000F0EDF9FFF7DBFF10BD7A65004008B5322000F004FBFDF7F8FC322000F0FFFA08BDFEE700BF08B5104E104D16E029686B68AC68002204E051F8040B43F815
:40290000040B0432A242F8D1E868002203E0002143F8041B04328242F9D11035013E002EE6D104F0B9F8FDF7C9FBFEE701000000E06C000008B5134A134B1A60134A13684F
:4029400043F40073136000230AE0032B03D8104A52F8231000E00F490F4A42F8231001332F2BF2D90D4B1A780D4B1A700A4A0D4B1A6000F0E7F800F0B7F900220A4B1A60A4
:4029800008BD00BF0004FA050CED00E014ED00E000000000E52800000080FF1FBC7600400481FF1F08ED00E00081FF1FFEE700BFF0B40022174611E050F82760F3B226F060
:4029C000FF0608E001EB420511F812406D78A5550132013BDBB2002BF4D101372A2FEBD9F0BC7047104B1B78DBB203F007010F4A11701B09013213701C220D4B1A7002226B
:402A000003F25F731A7010230A4A137048321370402103321170D02125321170583213704422054B1A707047CF0100496E5800400D510040905A00407658004038B5012255
:402A4000314B1A801823314A13700521023211800232137006210232118002321370072102321180023213704721023211800232137040F2CF210232118002321370022179
:402A800002F26A22117008214FF040221170032102F5007211701E4A1278D2B21D490A701D4A138042F251221C4B1A80002419250CE01B4B1B7803F0010343EA440404F01D
:402AC00003044FF4F07000F0FFF8013D0DB1032CEFD115B90320FFF769FF124B4FF480721A8007221A7000220F490A704820023108701A700222033B1A700C4A137843F09B
:402B00003F03137038BD00BF804000408240004008010049A14600402242004020420040254200400440004006400040A243004008B50A46002103F0E0FF08BD08B503F010
:402B4000D1FF08BD10B572B66122394B1A70FFF775FF00240CE0374963001A1952000A4423445B00C8589188FFF7E2FF0134E4B2072CF0D94FF090402F49FFF719FF40F2B2
:402B800003322E4B1A802E480421FFF7D1FF2D482D490422FFF7D2FF2C480421FFF7C8FF2B4A137843F0020313701032137843F002031370274C237843F040032370A2F54D
:402BC0008632513A137843F010031370224823490A22FFF7B3FF224822490822FFF7AEFF214822490A22FFF7A9FF214821490822FFF7A4FF204821490822FFF79FFF2048C6
:402C000020490A22FFF79AFF84221F4B1A70C42203F5C0631A701D4A137843F008031370FFF7E0FE1A4821460E22FFF787FF10BD00480040186B0000AC0000484E5800409D
:402C40000076004008760040A41200481076004003500140A04300400051004068120048C251004074120048F05100407C1200481251004088120048225100409012004878
:402C80003051004098120048DB08014022430040B0430040014B1878704700BF21510040044A137803F0F00300F00F0018431070704700BFF0510040024B187800F00F00F5
:402CC000704700BFF15100400230800803D000BF01380046FCD17047EFF3108072B6704780F31088704700BF0B4A7F2313708021517007E0DA0002F1804202F5F042013B04
:402D0000DBB21370002BF5D1DB0003F1804303F5F04300221A7070471481FF1F172815D831B103010A495A5C42F020025A5405E0030107495A5C02F0DF025A540001044AE3
:402D4000835C43F00103835400207047012070471070004017280CD80001074BC1180A7942F004020A71C25C42F00102C254002070470120704700BF1070004017280BD8B9
:402D80000001064A835C03F0F10301F0070143EA4101815400207047012070471070004041F6FF73994201D14FF4005141F6FF739A4201D14FF40052172808D8C00000F1AA
:402DC000804000F5EC408180C280002070470120704700BF172805D8034B03EB0010417200207047012070471070004017280FD831B1094B03EB00135B7A03F07F030B7095
:402E000042B1054B03EB0010037A13700020704701207047002070471070004017281BD810B4C00000F1804404F5EC44D201D2B201F07F01114321709DF804201201D2B27A
:402E400003F00F03134363709DF8083003F00F03A3700020E07001E0012070475DF8044B704700BF10B5FFF737FF0A4B5B78182B0BD9084A1478013B5370E30003F1804345
:402E800003F5F0431B78137000E0FF24FFF728FF204610BD1481FF1F10F0800F0CD111F4704F0BD1C00000F1804000F5F04001808270C370002070470120704701207047FC
:402EC00010F0800F08D1C00000F1804000F5F0408180C280002070470120704701BE704710B5044605E0084B1868FFF7EDFEA4F50044B4F5004FF6D8034B586800FB04F024
:402F0000FFF7E2FE10BD00BF1C81FF1F08B5034B1B7A03FB00F0FFF7D7FE08BD1C81FF1F70B504460E46074B1D681F2802D90020FFF7D4FF04F01F04103455F8240045F8ED
:402F4000246070BD08ED00E038B504460D46072902D90020FFF7C2FF1F2C02D90020FFF7BDFF04F01F0000F1604000F564406D01EDB2057038BD00BF2DE9F04107460E460C
:402F8000FFF79AFE0546DFF8588098F80040E4B20320FFF785FE012388F800300E4B1B7813F0010FFAD047F480770C4B1F800A4B1B7813F0010FFAD0B6B2084B1E80064B53
:402FC0001B7813F0020FFAD0054B1C702846FFF767FEBDE8F08100BF67640040926A00407D6400402DE9F84380460F461646FFF763FE0546DFF8609099F80040E4B20320C3
:40300000FFF74EFE012389F80030114B1B7813F0010FFAD048F480780E4BA3F80080002208E00B4B1B7813F0010FFAD0B95C094B198001329642F4DC054B1B7813F0020F61
:40304000FAD0054B1C702846FFF72AFEBDE8F88367640040926A00407D640040F0B589B0FFF72AFE0746204D2E78F6B20320FFF717FE01232B701D4C40F20113238005202E
:40308000FFF72EFF40F2111323806420FFF728FF40F2291323803620E821FFF76DFF144B04AC186859689A6807C499899A7B2180A2706C4653F8100F59689A6807C49A89AD
:4030C0009B7B2280A370E02004A90F22FFF78AFFE12069460F22FFF785FF2E703846FFF7DFFD09B0F0BD00BF7D640040926A0040486B000010B582B0040A8DF804408DF8D7
:403100000500100A8DF806008DF807200A0A8DF800208DF801101A0A8DF802208DF803302A2001A90422FFF75DFF2B2069460422FFF758FF02B010BDF8B507460E46154666
:403140001C460320FFF7ACFD0122104B1A70384631462A462346FFF7CDFF4FF497720C4B1A800C4B1B7813F0020FFAD00020074B187001F0EBF91820FFF7A6FD012001F0DC
:40318000E5F90620FFF7A0FDF8BD00BF7D640040926A004067640040F8B507460E4615461C460320FFF77CFD0122064B1A70384631462A462346FFF79DFF4FF49672024B09
:4031C0001A80F8BD7D640040926A004010B582B0002001F0BBF91820FFF776FD1B4C23788DF80030012001F0B1F90620FFF76CFD002001F0ABF91820FFF766FD23788DF868
:403200000130012001F0A2F90620FFF75DFD002001F09CF91820FFF757FD23788DF80230012001F093F90620FFF74EFD009B0020DAB262F30700C3F3072262F30F20C3F3FF
:40324000074363F3174002B010BD00BF2151004082B00190084B1B7813F0020FFAD09DF80420064B1A809DF805201A809DF806201A8002B0704700BF67640040926A004024
:40328000084B1A78D2B2012119704FF4807103F215631980044B1B7813F0010FFAD0014B1A7070477D64004067640040014B1878704700BF7D64004038B505460C463020FB
:4032C000002100F0ABFA0028F9D1284600F002FB204600F0FFFA00F0E1FA38BD08B500F0D5F80028FBD100F0D1F80028FBD008BD70B500F019F912208021FFF7DDFF0120F0
:40330000FFF7EEFD002407E0484B03EB44035978FFF7D2FF0134A4B2444B13F81400FF28F2D1002405E0424B195DFFF7C5FF0134A4B2404B185DFF28F5D1012001464FF435
:40334000804241F6FF7300F083F83B4C2070FFF789FD6070394DADB246F24C412A46FFF7AFFD627810464FF420710623FFF794FD20780021FFF702FD314E304600F0F0FA27
:40338000304B1A781A781A781B782078FFF7E2FC20786178FFF71EFD20780121FFF7BEFC294A137843F001031370A2F58272137843F00103137002F58472137843F00103BA
:4033C0001370013A137843F001031370012001464FF4804241F6FF7300F0F0FA2070FFF741FD607046F248512A46FFF769FD62781046A0210623FFF74FFD20780021FFF79E
:40340000BDFC304600F014FB104B1A781A781A781B782078FFF79EFC20786178FFF7DAFC20780121FFF77AFC70BD00BFB46B0000806B0000A46B0000C68FFF1FDC8FFF1F2E
:40344000FD82FF1F4C6400409765004048650040F0B583B086460F4616461D460A4C0023237000930193184671463A46FFF7D6FC207831462A46FFF793FC20780221FFF799
:403480007DFC207803B0F0BD2C81FF1F024B187800F00100704700BF0151004010B50222114B1A7081220E3B1A70082202331A700C2211331A70002401331C704FF4004267
:4034C0000A4B1A600F200721FFF73EFD0F200849FFF726FD1022074B1A70074B1C70074B1C70074B1C7010BDD649004080E100E051350000C794FF1FD894FF1FC994FF1FC3
:40350000D094FF1F08B5FFF7E7FB064A137843F0040313701032137843F004031370FFF7DFFB08BDA543004008B5074B1B7823B9FFF7B4FF0122044B1A70FFF7E3FF4FF457
:403540000042024B1A6008BDC88FFF1F00E100E038B5A44B1C78E4B2A34B1B7813F0400F00F0378114F0010F00F01B819E4B1B78453B052B00F21281DFE813F00600820023
:40358000100110010600DE0004F0DF0504F00A04082C42D1944B1B78DBB2452B35D1934B1B7813F0FF0F10D0914B1B681B78DBB2904A137004228B4B1A7001228E4B1A7025
:4035C0004622894B1A702C46EBE08C4B1B7813F0020F0DD08A4A137843F00A0313706022814B1A704FF40042864B1A602C46D8E0854A137843F0100313701022834B1A70CC
:403600000422023B1A702C46CBE00022754B1A704A22754B1A702C46C3E00A2C2BD1784A137843F0A0031370744B1B7813F0020F14D06D4B1B7813F0080F01D0092300E0E5
:403640000A236F4A11780B4313706022664B1A704FF400426B4B1A602C46A2E06A4A137843F0100313701022684B1A700422023B1A702C4695E00020FFF730FC2C4690E035
:4036800014F0020F35D15C4B1B78584A1278DBB2934210D2584A1378DBB255490968CB5CDBB254490B7004214E4B197013780133DBB2137075E0514B1B7813F0020F0CD026
:4036C0004F4A137843F00A0313706022464B1A704FF400424B4B1A6063E04B4A137843F0100313701022494B1A700422023B1A7057E0424B1B7813F0020F0CD0404A1378EC
:4037000043F09A0313706022374B1A704FF400423C4B1A6045E03C4A137843F01003137010223A4B1A700422023B1A70344A137843F09003137034E0354A1378DBB235497A
:4037400008682C490978C9B2C15413780133DBB213701378304A1278DBB2934203D21022204B1A701DE0254B1B7813F0020F0CD0234A137843F00903137060221A4B1A707C
:403780004FF400421F4B1A600BE01F4A137843F0100313700022134B1A7002E00020FFF79DFB14F0200F1CD00F4B1B7813F0080F01D0012300E00223114A11780B43137089
:4037C000114A137803F0EF0313701022064B1A7038BD054B1B7813F0100F02D11022024B1A7038BDD7490040C794FF1FC894FF1FCC94FF1FD8490040D094FF1FCB94FF1F72
:40380000D894FF1F80E100E0D6490040D9490040C994FF1FD494FF1FCA94FF1F1A4B1B78DBB2102B29D1194B1B7813F0080F26D14FF40042164B1A604000C0B229B140F0A1
:4038400001004922104B1A7002E045220E4B1A70104B1870012201331A700F4B1B7813F0010FFAD00C4B1B7803F00A030A2B08D11022054B1A700320704702207047012065
:4038800070470020704700BFC794FF1FD949004080E100E0D8490040D74900400A4B1B7813F0040F0ED01023074A13700421023A1170064A1370064B1B7813F0210FFAD065
:4038C0000020704702207047D9490040C794FF1FD7490040114B1B7813F0040F1BD0104B18700422013B1A7046220E4B1A700E4B1B7813F0010FFAD00B4B1B7813F0020F0D
:4039000004D16022074B1A70002070476022054B1A70032070470220704700BFD9490040D8490040C794FF1FD7490040014B1B681864704708ED00E04001C0B2014B1870B5
:40394000704700BF00E400E00122014B1A60704700E100E00122014B1A60704780E100E010B50446FFF7F6FF2046FFF7DFFF0120FFF7E2FFFFF7E8FF10BD00BFF0B583B05E
:4039800084468E4617461E460B4C02252570002300930193284661467246FFF73FFA207839463246FFF7FCF920782946FFF7E6F9207803B0F0BD00BF2D81FF1FF0B583B09E
:4039C00086460F4616461D460B4C01232370002200920192184671463A46FFF71FFA207831462A46FFF7DCF920780221FFF7C6F9207803B0F0BD00BF2E81FF1F014B1B68E1
:403A00005864704708ED00E04001C0B2014B1870704700BF01E400E00222014B1A60704700E100E00222014B1A60704780E100E010B50446FFF7F6FF2046FFF7DFFF0120E3
:403A4000FFF7E2FFFFF7E8FF10BD00BF054A137843F0040313701032137843F004031370704700BFA8430040054B1A7802F0FD021A701A7800F0020010431870704700BF12
:403A800028580040014B1870704700BF825B0040064B1B78C3F3810303F19243063393F82831DBB2024A1370704700BF285800400A46004008B5064B1A7802F0F3021A70A8
:403AC0001A7800F00C0010431870FFF7E1FF08BD2858004008B50020044B187001331870FFF7E8FF0220FFF7BFFF08BD2858004008B5074B1B7823B9FFF7ECFF0122044B89
:403B00001A70FFF7A3FF4B20FFF7BCFF08BD00BFC98FFF1F054A137843F0080313701032137843F008031370704700BFA74300400F490B7803F0FC0200F0030313430B70F1
:403B400001280AD10B4B1B78DBB20B4A13700B4B1B78DBB2013213707047094B1B78DBB2054A1370074B1B78DBB20132137070474358004013010049364600401701004996
:403B8000B3010049BB01004908B50120FFF7D0FF0B4B1A7842F020021A701A7802F0FB021A701A7842F008021A7003F527731A7802F0E7021A701A7842F008021A7008BD91
:403BC0004358004008B5054B1B7823B9FFF7DCFF0122024B1A70FFF79DFF08BDCA8FFF1F024A137843F080031370704774640040014B1880704700BF14680040014B1880FC
:403C0000704700BF94680040014B1880704700BF54680040014B1870704700BF89650040014B1878704700BF69650040014B188880B27047B468004008B501E0FFF7F6FFEA
:403C4000FFF7EEFF10F0100FF8D108BD08B5154A137803F0C00343F0090313702632137843F0010313700132137843F00103137040F2CF70FFF7BCFF40F2CF70FFF7BEFF3A
:403C80008220FFF7C1FF0020FFF7C4FFFFF724F8054A137843F010031370FFF721F8FFF7CBFF08BD746400409965004008B5054B1B7823B9FFF7CAFF0122024B1A70FFF709
:403CC0008FFF08BDCB8FFF1F024A137843F080031370704775650040014B1880704700BF086A0040014B1880704700BF886A0040014B1880704700BF486A0040014B187060
:403D0000704700BF85650040014B1878704700BF65650040014B188880B27047A86A004008B501E0FFF7F6FFFFF7EEFF10F0100FF8D108BD10B5154A137803F0C00343F0AF
:403D4000090313701F32137843F001031370104C237843F00103237040F2CF70FFF7BCFF40F2CF70FFF7BEFF3C20FFF7C1FF0020FFF7C4FFFEF7B0FF237843F01003237014
:403D8000FEF7AEFFFFF7CCFF10BD00BF756500409565004008B5054B1B7823B9FFF7CAFF0122024B1A70FFF78FFF08BDCC8FFF1F024A137843F080031370704774650040E9
:403DC000014B1880704700BF08680040014B1880704700BF88680040014B1880704700BF48680040014B1870704700BF84640040014B1878704700BF64640040014B18882D
:403E000080B27047A868004008B501E0FFF7F6FFFFF7EEFF10F0100FF8D108BD10B5154A137803F0C00343F009031370124C237843F001032370DF3A137843F001031370E8
:403E400040F2CF70FFF7BCFF40F2CF70FFF7BEFF5020FFF7C1FF0020FFF7C4FFFEF73CFF237843F010032370FEF73AFFFFF7CCFF10BD00BF746500409464004008B5054B80
:403E80001B7823B9FFF7CAFF0122024B1A70FFF78FFF08BDCD8FFF1F08B500F0A7F8A0F5004000B208BD00BF08B5002803DB80B280F4004002E0A0F5004080B200F090F8B6
:403EC00008BD00BF024B187800F00F00704700BF61640040014B1870704700BF8164004008B50F20FFF7F6FFFFF7ECFFFEF7F4FE034A137843F010031370FEF7F1FE08BD8F
:403F00009164004008B500F0C3F84FF4004000F067F8044B1B7813B90122024B1A70FFF7DFFF08BDCE8FFF1F08B500F0D9F8A0F5004000B208BD00BF08B5002803DB80B2D8
:403F400080F4004002E0A0F5004080B200F0C2F808BD00BF024B187800F00F00704700BF6A640040014B1870704700BF8A64004008B50F20FFF7F6FFFFF7ECFFFEF7ACFE47
:403F8000034A137843F010031370FEF7A9FE08BD9A64004008B500F0F5F84FF4004000F099F8044B1B7813B90122024B1A70FFF7DFFF08BDCF8FFF1F024A137843F08003D9
:403FC0001370704773640040014B1870704700BF82640040014B1878704700BF62640040014B1880704700BF00680040024B1B78024B188880B27047006400408068004024
:40400000014B188880B2704780680040014B1880704700BF40680040014B1880704700BF6068004008B501E0FFF7EAFFFFF7D2FF10F0400FF8D108BD08B5134B1A7802F01F
:40404000F8021A701A7802F0FC021A70FFF7EAFF4FF40040FFF7DAFF4FF40040FFF7C0FF0020FFF7B1FFFFF7B5FF4FF40040FFF7D3FFFEF731FE054A137843F010031370C5
:40408000FEF72EFE08BD00BF736400409264004008B5054B1B7823B9FFF7CEFF0122024B1A70FFF789FF08BDD08FFF1F024A137843F080031370704779640040014B18705D
:4040C000704700BF89640040014B1878704700BF69640040014B1880704700BF10680040024B1B78024B188880B270470864004090680040014B188880B270479068004005
:40410000014B1880704700BF50680040014B1880704700BF7068004008B501E0FFF7EAFFFFF7D2FF10F0400FF8D108BD08B5134B1A7802F0F8021A701A7802F0FC021A706B
:40414000FFF7EAFF4FF40040FFF7DAFF4FF40040FFF7C0FF0020FFF7B1FFFFF7B5FF4FF40040FFF7D3FFFEF7B7FD054A137843F010031370FEF7B4FD08BD00BF7964004088
:404180009964004008B5054B1B7823B9FFF7CEFF0122024B1A70FFF789FF08BDD18FFF1F044A137803F0FD03400000F0020018431070704700510040084A137843F0010393
:4041C00013701032137843F00103137002F64D32137843F001031370704700BFA3430040014B1870704700BF034F0040014B1880704700BF044F0040014B1880704700BF3A
:40420000064F004008B5164A137803F0010313700232137803F0FC031370124B1A7802F0CF021A701A7842F030021A701A7802F0F0021A701A7842F00F021A700A4A137899
:4042400043F0010313704FF6FF70FFF7CFFF4FF6FF70FFF7D1FF0020FFF7C2FF08BD00BF004F00400B4F0040014F004008B5054B1B7823B9FFF7C6FF0122024B1A70FFF757
:404280009BFF08BDD28FFF1F024B1B88024B188880B27047064F0040084F0040044A137803F0FB03800000F00400184310707047C051004008B500F05FF8A0F5004000B282
:4042C00008BD00BF08B5002803DB80B280F4004002E0A0F5004080B200F048F808BD00BF024B187800F00F00704700BF6D640040014B1870704700BF8D64004008B50F202A
:40430000FFF7F6FFFFF7ECFFFEF7E6FC034A137843F010031370FEF7E3FC08BD9D64004008B500F07BF84FF4004000F01FF8044B1B7813B90122024B1A70FFF7DFFF08BD74
:40434000D38FFF1F024A137843F080031370704770640040014B1870704700BF8F640040014B1878704700BF6F640040014B1880704700BF1C680040024B1B78024B188815
:4043800080B270470E6400409C680040014B188880B270479C680040014B1880704700BF5C680040014B1880704700BF7C68004008B501E0FFF7EAFFFFF7D2FF10F0400F96
:4043C000F8D108BD08B5134B1A7802F0F8021A701A7802F0FC021A70FFF7EAFF4FF40040FFF7DAFF4FF40040FFF7C0FF0020FFF7B1FFFFF7B5FF4FF40040FFF7D3FFFEF7E7
:404400006BFC054A137843F010031370FEF768FC08BD00BF706400409F64004008B5054B1B7823B9FFF7CEFF0122024B1A70FFF789FF08BDD48FFF1F044A137803F0EF0383
:40444000000100F0100018431070704710510040044A137803F0F703C00000F0080018431070704710510040084A137843F0020313701032137843F00203137002F65932B4
:40448000137843F001031370704700BFA3430040014B1870704700BF0F4F0040014B1880704700BF104F0040014B1880704700BF124F004008B5164A137803F0010313701D
:4044C0000232137803F0FC031370124B1A7802F0CF021A701A7842F030021A701A7802F0F0021A701A7842F00F021A700A4A137843F0010313704FF6FF70FFF7CFFF4FF617
:40450000FF70FFF7D1FF0020FFF7C2FF08BD00BF0C4F0040174F00400D4F004008B5054B1B7823B9FFF7C6FF0122024B1A70FFF79BFF08BDD58FFF1F024B1B88024B188829
:4045400080B27047124F0040144F0040044A137803F0BF03800100F0400018431070704730510040000000002DE9F84FBE4B21F000469E420D468A4604460FDDBB4B9E42A0
:4045800000F3B08000F0AB80B94BBA49BA4CBAF1000FC8BF19462046BDE8F88FB74B9E4200F3BA80A3F1DE739E4240F3A5804FF0FF3B22462B462046294601F0ADFF024646
:4045C0000B468046894601F0A7FF8FA3D3E9002306460F4601F0A0FF8DA3D3E9002301F0E9FD32463B4601F097FF8BA3D3E9002301F0E0FD32463B4601F08EFF88A3D3E95D
:40460000002301F0D7FD32463B4601F085FF86A3D3E9002301F0CEFD32463B4601F07CFF83A3D3E9002301F0C5FD42464B4601F073FF81A3D3E9002380468946304639463A
:4046400001F06AFF7EA3D3E9002301F0B1FD32463B4601F061FF7CA3D3E9002301F0A8FD32463B4601F058FF79A3D3E9002301F09FFD32463B4601F04FFF77A3D3E9002369
:4046800001F096FD32463B4601F046FFBBF1FF3F02460B4667D04046494601F08BFD22462B4601F039FF764E764B4FEACB0B5E449B44DBE9002301F07BFD22462B4601F0CE
:4046C00077FD02460B46D6E9000101F071FDBAF1000F0446BFF65FAF01F100415BE700283FF452AF2246204629462B4601F062FD04462046BDE8F88F59A3D3E9002301F050
:4047000059FD0022604B02F097F900283FF44FAF29462046BDE8F88F00F08EF95B4B04469E420D462FDCA3F550239E4254DC02460B4601F03FFD0022534B01F039FD0022EB
:4047400006460F46204629464FF0804301F032FD02460B463046394602F008F84FF0000B04460D4625E74046494601F023FD22462B4601F0D1FE02460B462046294601F010
:4047800017FD044607E7424B9E421ADC0022414B01F00EFD002206460F46204629463D4B01F0BAFE0022384B01F004FD02460B463046394601F0DAFF4FF0020B04460D46FF
:4047C000F7E602460B460020334901F0CFFF4FF0030B04460D46ECE600222B4B01F0E8FC002206460F4620462946274B01F0E2FC02460B463046394601F0B8FF4FF0010B65
:4048000004460D46D5E600BF11DA22E33AAD903FEB0D76244B7BA93F513DD0A0660DB13F6E204CC5CD45B73FFF8300922449C23F0D5555555555D53F2F6C6A2C44B4A2BF9D
:404840009AFDDE522DDEAD3F6D9A74AFF2B0B33F711623FEC671BC3FC4EB98999999C93F9C7500883CE4377EFFFF0F440000F07FFB21F93FFB21F9BF182D4454FFFFDB3F7D
:40488000406C0000206C00000000F03FFFFFF23FFF7F03400000F83F0000F0BFAFF300802DE9F047604C01F0004A8AEA0107A74282B002460B4600F38B800146394300F084
:4048C0008380B7F5801F04463D464FF00000C0F28480564B064683FB0723A3EBE77707F12C51A1F5C101A1F26D710F4632463B463046394601F010FE22462B4601F036FFA8
:4049000032463B4601F008FE3DA3D3E9002301F051FC3DA3D3E90023CDE9000101F04AFCDDE900238046894639A1D1E9000101F01DFF02460B464046494601F03BFC02469F
:404940000B4635A1D1E9000101F010FF34A3D3E9002301F02FFC32463B4601F0DDFD00264F1C32463B463046394601F0D5FD02460B462046294601F0F9FE32463B46804668
:40498000894601F015FC324604460D463B463046394601F00FFC42464B4601F00BFC02460B462046294601F0E1FE02460B463046394601F0B1FD32463B4601F0FBFB4AEA0F
:4049C000010102B0BDE8F087194602B0BDE8F08701F0F0FB02B0BDE8F0873B46144901F09BFD144A0646A2FB01235B0803F1255707F57D1707F56257133777E7AFF300805C
:404A0000F1155FF1155FE13F0FEAA00EEAA0F63F34C83225DE91E6BF6EDBB66DDBB6F93FB76DDBB66DDBD63FFFFFEF7F5655555500005043ABAAAAAA21F00041704700BFB3
:404A40002DE9F0418AB006460F4600F01DFADFF89480044698F900300D46013304D03046394601F05DFA20B9204629460AB0BDE8F08130463946FFF7DFFF0022164B01F0C4
:404A8000DBFF0028F0D015490023012214480893CDE90467CDE902670191009201F06EFA98F90030CDE90601022B0AD0684601F063FA30B1089B4BB9DDE906010AB0BDE8A7
:404AC000F08101F0E3FF21230360F3E701F0DEFF089B0360F0E700BF0000F03F606C0000646C00002F81FF1F2DE9F04F8BB01F4680468946164600F0F7FBDFF8D8A204468B
:404B00009AF900300D46013304D03046394601F007FA20B9204629460BB0BDE8F08F4046494601F0FDF9834660BB304639460022002301F059FF0028ECD09AF900309E4CEF
:404B400001229E4900208DE814005A1CCDF820B0CDE90289CDE90467CDE906010DD0022B0BD0684601F008FA002800F09380089B1BB101F08BFF089B0360DDE906010BB02F
:404B8000BDE8F08F404649460022002301F02CFFF8B1304639460022002301F025FF834600284ED084489AF900300121002200240025CDE90289CDE90467CDE90645019044
:404BC00000910892002BCCD07C4B0022CDE90623D3E72046294601F09DF9834600285ED0204629460022002301F0FEFE002891D04046494601F08EF900288BD03046394631
:404C000001F088F9002885D09AF900306A480421002200240025022BCDE90289CDE90467CDE9064501900091089200F08880684601F0A2F9002800F08280089B002B9CD0AE
:404C400097E73046394601F065F900283FF462AF304639460022002301F0D0FE00283FF459AF55499AF800300122CDF820B0CDE90289CDE9046701910092002B3CD050493C
:404C80000020022BCDE9060130D101F0FFFE21230360D2E701F0FAFE2123036067E74046494601F037F900289AD03046394601F031F9002894D02046294601F031F900BBAE
:404CC0003D4A9AF8004001230890CDE90289CDE90467019200937CB10020002102460B4601F044FD022CCDE90601CED0684601F043F90028A1D1C8E700220023CDE906230D
:404D0000F4E72D499AF900300322CDF820B0CDE90289CDE9046701910092ABB9294D4FF060444046494600220023CDE9064501F065FE50BB9AF90030022B7FF478AF01F02D
:404D4000A5FE2223036078E71F4D00244046494600220023CDE9064501F050FE0028E9D000221A4B3046394601F0D6FB04460D4601F00AF922462B4601F036FE0028D9D1DF
:404D80000F4B0022CDE90623D4E700220F4B3046394601F0C1FB04460D4601F0F5F822462B4601F021FE0028C4D1094B4FF06042CDE90623BEE700BF686C00000000F03F23
:404DC0000000F0FFFFFFEF470000F07F0000E03FFFFFEFC72F81FF1F2DE9F0478AB006460F4600F0D1FFDFF898A004469AF900300D4601330FD03046394601F091F850B1A6
:404E00004FF000084FF000093046394642464B4601F0F4FD20B9204629460AB0BDE8F08716499AF8004001220023CDE90467CDE9026701910092089364B9CDE906896846E9
:404E400001F09AF880B1089B9BB9DDE906010AB0BDE8F0874046494642464B4601F086FC022CCDE90601EAD101F010FE21230360E9E701F00BFE089B0360E6E76C6C000082
:404E80002F81FF1F000000002DE9F047C04B21F000469E4286B00D468A46044613DD034606F1404606F58016334322D002460B4601F07EF902460B4601F058FC04462046B4
:404EC00006B0BDE8F087B34B9E422BDCB6F1795F80F2688192A3D3E9002301F06BF90022AD4B01F0A9FDE8B12946204606B0BDE8F0878DA3D3E9002301F00EFB8CA3D3E9D3
:404F0000002306460F462046294601F005FB02460B463046394601F04DF90446204606B0BDE8F08720462946FFF786FD02460B460020994901F03CF90022984B01F0ECFAB5
:404F40007DA3D3E9002304460D4601F0E5FA7CA3D3E9002301F02EF922462B4601F0DCFA79A3D3E9002301F023F922462B4601F0D3FA77A3D3E9002301F01CF922462B4698
:404F800001F0CAFA74A3D3E9002301F011F922462B4601F0C1FA72A3D3E9002301F00AF922462B4601F0B8FA6FA3D3E90023CDE900012046294601F0AFFA6DA3D3E900235C
:404FC00001F0F6F822462B4601F0A6FA6AA3D3E9002301F0EFF822462B4601F09DFA68A3D3E9002301F0E4F822462B4601F094FA694B002201F0DEF8CDE902012046294609
:4050000000F0C2FE664B80469E42894664DC02460B460F4601F0CEF8DDE90223CDE90401DDE9000101F0A2FB02460B46DDE9040101F072FA0026CDE9000132464B4630469D
:40504000494601F069FA02460B462046294601F0AFF8324604460D464B464046494601F0A9F802460B462046294601F07FFB02460B4601F09FF802460B462DA1D1E90001DE
:4050800001F096F802460B46DDE9000101F090F8324604460D463B463046494601F08AF802460B4638A1D1E9000101F081F802460B462046294601F07BF802460B4632A1B5
:4050C000D1E9000101F074F80446BAF1000F3FF7F6AE01F10041F2E6DDE90223DDE9000101F044FB02460B464046494601F014FA42464B4601F05EF802460B4601F05AF8E4
:405100000BA3D3E9002301F053F802460B4606A1D1E9000101F04CF80446D6E7AFF300809C7500883CE4377E182D4454FB21F93F075C143326A6913C09F7FD0DE13D023F02
:4051400088B20175E0EF493F3B8F68B52882A43F5544880E55C1C93F7D6FEB0312D6D43F555555555555C53F82922EB1C5B8B33F59018D1B6C06E63FC88A599CE52A0040FF
:405180004B2D8A1C273A0340182D4454FB21E93FFFFFEF3FFFFFDF3F0000F03F0000E03F3233EF3F02460B4601F0B6F938A3D3E9002306460F4601F0AFF937A3D3E90023FD
:4051C00000F0F8FF32463B4601F0A6F934A3D3E9002300F0EDFF32463B4601F09DF932A3D3E9002300F0E6FF32463B4601F094F92FA3D3E9002300F0DBFF32463B4601F0C8
:405200008BF92DA3D3E9002300F0D4FF32463B4601F082F92AA3D3E90023804689463046394601F079F928A3D3E9002300F0C0FF32463B4601F070F925A3D3E9002300F037
:40524000B9FF32463B4601F067F923A3D3E9002300F0AEFF32463B4601F05EF90022204B00F0A8FF02460B464046494601F07EFA02460B462046294601F04EF922462B46EF
:4052800000F098FF0446204606B0BDE8F08700BF09F7FD0DE13D023F88B20175E0EF493F3B8F68B52882A43F5544880E55C1C93F7D6FEB0312D6D43F555555555555C53F1E
:4052C00082922EB1C5B8B33F59018D1B6C06E63FC88A599CE52A00404B2D8A1C273A03400000F03FAFF300802DE9F04F144623F00047024657EA04000E468FB01D469C469C
:40530000214634D06E4B26F0004A9A459346B14626DC24D09F4223DC694B9F4200F08F80B9F1000FC0F28F804FF0000879BB644B9F4200F0A580634B9F4267D0BCF1804FF4
:4053400000F0E283604B9C4521D1B9F1000F1EDB104631460FB0BDE8F04F00F015BD62B10AF1404000F5801050EA0B0007D10346544918460FB0BDE8F08F5745CCDD53483F
:405380000FB0BDE8F04F00F0F9BD4FF0000810463146CDF808C00092FFF74EFB009ADDF808C0BBF1000F20D04FEAD97909F1FF3958EA09037AD0464B9F4240F38F8003F153
:4053C00004739F4240F31084424B9A4540F39283BCF1000F40F3928337A1D1E900010B46024601F099F80346C3E7BAF1000F04D0344B29F0404E9E45D6D1BCF1000FC0F289
:40540000B683B9F1000F08DB0346B2E7BCF1000FC0F2528413463146ABE70AF1404A0AF5801A58EA0A0340F05E8402460B4600F0BFFE0B46024601F099F9034699E700293C
:405440003FF46EAF8CE7244B9F422CDCA3F154739F427FF769AF40F213403B15834240F34B84C3F58663033321FA03F000FA03F38B427FF459AF00F00100C0F1020855E7A6
:405480000AF1404303F5801353EA0B0300F03983104B9A4540F36483BCF1000FC0F22E832346294665E74FF002083FE7104631463346BCE7AFF300809C7500883CE4377E6D
:4054C0000000F07F0000F03F0000E03F646C00000000E041FFFFEF3FFFFF3F43BAF5801F4FF0000205DACA4B01F016F88A466FF034024FEA2A53C74ECAF3130AA3F2FF33FF
:405500004AF07F571344B2450C9347F4401740F3D083C14B9A4540F307840026B4460C9BA7F5801701330C933946BC4B4FEACC0C6344D3E900AB52465B46CDF834C0CDE993
:40554000060100F035FE52465B46CDE90801DDE9060100F02FFE02460B460020B04901F005F902460B46DDE90801CDE90A2300F0D3FF02460B46CDE90223CDE904237B1095
:4055800043F0005303F5002399190020002306460F460293DDE902231046194632463B46CDE9000100F0B8FF02460B46DDE9080100F0FEFD5246CDE908015B4630463946E8
:4055C00000F0F6FD02460B46DDE9060100F0F0FD02460B46DDE9000100F09EFF02460B46DDE9080100F0E4FDDDE90A2300F094FFDDE90423CDE906011046194600F08CFF0F
:4056000002460B4606460F4600F086FF6EA3D3E9002382468B463046394600F07DFF6CA3D3E9002300F0C6FD32463B4600F074FF69A3D3E9002300F0BDFD32463B4600F056
:405640006BFF67A3D3E9002300F0B4FD32463B4600F062FF64A3D3E9002300F0ABFD32463B4600F059FF62A3D3E9002300F0A2FD02460B465046594600F04EFFDDE90423C2
:4056800006460F46DDE9000100F094FDDDE9062300F042FF32463B4600F08CFDDDE9006782468B4632463B463046394600F034FF00225C4BCDE9080100F07CFD52465B466E
:4056C00000F078FD02980F460646DDE9000132463B4600F021FF32463B46CDE90001DDE9060100F019FF0022CDE906014D4B3046394600F05DFDDDE9082300F059FD024680
:405700000B465046594600F053FDDDE9042300F003FF02460B46DDE9060100F04BFD82468B46DDE9000152465B4600F043FD32A3D3E9002302980F46064600F0EDFE30A3C0
:40574000D3E90023CDE904013046394600F0E4FEDDE90023CDE906013046394600F028FD02460B465046594600F022FD26A3D3E9002300F0D1FE02460B46DDE9060100F07E
:4057800019FDDDF834C0284BCDF818C06344D3E9002300F00FFDCDE900010C9800F056FE06460F46DDE90401204BDDF818C09C44DDE90023DCE900AB00F0FCFC52465B46FB
:4057C00036E000BFAFF30080EF4E454A287ECA3F65DBC9934A86CD3F01411DA96074D13F4D268F515555D53FFFAB6FDBB66DDB3F033333333333E33F000000E009C7EE3F90
:40580000F5015B14E02F3EBEFD033ADC09C7EE3F000040438E98030079B60B00986C00000000F03F00000840886C0000786C0000CDE906AB00F0BEFC32463B4600F0BAFCFC
:40584000029832463B4682468B4600F0B1FCDDE9062300F0ADFCDDE9042300F0A9FC02460B46DDE9000100F0A3FCCDE9020108F1FF3858EA09030CBFD54BD64B0022CDE94B
:4058800004230023CDE900450093DDE90067204632463B46294600F08BFC52465B4600F03BFEDDE90223804689462046294600F033FE02460B464046494600F07BFC044667
:4058C0000D465246304639465B46CDE9024500F023FE06460F4620463B462946324600F069FCBD4B824699428946884640F3138101F13F4303F5E003034340F0E581A0A3D8
:40590000D3E90023DDE9020100F054FC324604460D463B465046494600F04AFC02460B462046294601F088F8002840F0CD814C462015A0F2FE304FF4801101414144C1F333
:405940000A50A64CA0F2FF35C1F3130BC0F5826003302C414BF4801B21EA040300224BFA00FB3946304600F023FC06460F46DDE902018BEAE87B0BEBD87B32463B464FEAFD
:405980000B5A00F017FC80A3D3E90023002420460D4600F0C1FD3246804689463B462046294600F005FC02460B46DDE9020100F0FFFB77A3D3E9002300F0AEFD76A3D3E9E9
:4059C000002306460F462046294600F0A5FD02460B463046394600F0EDFB06460F4632463B464046494600F0E5FB42464B4604460D4600F0DDFB02460B463046394600F09B
:405A0000D7FB2246804689462B462046294600F083FD63A3D3E9002306460F4600F07CFD61A3D3E9002300F0C3FB32463B4600F073FD5FA3D3E9002300F0BCFB32463B4687
:405A400000F06AFD5CA3D3E9002300F0B1FB32463B4600F061FD5AA3D3E9002300F0AAFB32463B4600F058FD02460B462046294600F09EFB06460F4632463B4620462946F9
:405A800000F04AFD0022CDE900014FF080433046394600F08DFB02460B46DDE9000100F065FE424606460F464B462046294600F033FD42464B4600F07DFB02460B46304675
:405AC000394600F075FB22462B4600F071FB02460B4600203F4900F06BFB8A44BAF5801F0246C0F227815346DDE9040100F014FD03463EE4BCF1000FFFF66EAC0023194620
:405B000037E40B46334934E433461046314600F003FD03462DE4324B21F000449C4240F3FA80304B0B4403430CD132463B4600F03FFB02460B46DDE9020100F069FF002886
:405B40003FF4F6AE20A3D3E90023DDE9040100F0E3FC1DA3D3E9002300F0DEFC034608E4BCF1000FCADA234605F1004101E402460B460020174900F0F9FD42E4AFF3008048
:405B8000FE822B654715973C00000000432EE63FEF39FAFE422EE63F396CA80C615C20BED0A4BE726937663EF16BD2C541BDBB3E2CDE25AF6A56113F93BDBE166CC1663FB1
:405BC0003E5555555555C53F59F3F8C21F6EA5010000F0BF0000F03FFFFF8F40FFFF0F00FFCB904000346F3F634B9A4582DD634B9A453FF7EDAB0022604B00F0D9FA54A37F
:405C0000D3E9002306460F4600F086FC52A3D3E90023CDE900013046394600F07DFC3246CDE902013B463046394600F075FC002282468B4630463946514B00F06DFC024694
:405C40000B4647A1D1E9000100F0B2FA32463B4600F062FC02460B4600204A4900F0A8FA02460B465046594600F056FC3EA3D3E9002300F051FC02460B46DDE9020100F010
:405C800097FA06460F46DDE9000132463B4600F091FADDE90023002082468B4600F088FA02460B463046394600F082FACDE90201DDE50026B44637E4334600202F4900F0B2
:405CC00055FD0346FFF755BB29A3D3E90023DDE9040100F021FC26A3D3E9002300F01CFC0346FFF746BBB8F1010F03467FF441AB01F10041FFF73DBB00297FF446ABC3F5C9
:405D00008263033347FA03F000FA03F3BB4217D08846FFF710BB1B4B9C423FF709AEDDE90023924693462EE64FF480264FF0010CFFF7FABB5A4600F0B7F902460B46D3E660
:405D400000F00100C0F10208FFF7F5BAAFF30080000000604715F73F44DF5DF80BAE543E555555555555D53FFE822B654715F73F9C7500883CE4377EFEFFEF3F0000F03F7F
:405D80000000D03F0000E03F2DE9F041604E0C46B6460E40764505460B4600F098800029024676DD5FEA215E00F08180AEF2FF3EC3F313031EF0010F43F480135ED1002761
:405DC0003C46D10F01EB43034FEA6E0E520016204FF4001165189D424FEAD2764FEA420202DC5B1B6C180F44013806EB43034FEA5101EFD1844620264FF000410AE0A342DF
:405E000020D0D50F013E4FEA510105EB43034FEA420220D09C420CEB0105F0DA002D05EB010C09DBA0461B1B954288BF03F1FF334446521B0844E4E7BCF1000FF2DB04F182
:405E40000108F0E7954217D8002D05EB010C48DB98460023ECE7134315D140087B1003F17F5303F50013FA0703EB0E57394648BF40F00040BDE8F0811C46C2E7D10F01EB44
:405E8000430352009BE7411C31D000F001031844E3E721F000460643ECD079BB8E46D30AAEF1150E5205002BF9D0DC0222D400215B00D80201F10101FAD5C1F10100C1F1B0
:405EC000200422FA04F4234386448A406EE702460B4600F021FB2A46234600F06BF9BDE8F081BCF1000FAADAA0460023A0E701373046B3E7202401200021E2E702460B4633
:405F000000F056F902460B4600F030FCB2E700BF0000F07F41F0004101F58010C00F704710B431F0004408D0114BA1F580129A4208D804205DF8044B704718B902205DF820
:405F4000044B704701F1FF41094B01F5E0019942EFD9B4F5801F01D20320EBE7054B9C4201D00020E6E7B0FA80F04009E2E700BFFFFFDF7F0000F07F002070470020014928
:405F8000704700BF0000F87FF0B5C1F30A5EAEF2FF35132D83B002460B460C464FEAD17607462EDC002D48DB3C49294101EA030010432BD049080B4053EA02070CD04FF4AE
:405FC0008023132D24EA010143FA05F444EA01040CBF4FF0004700273149234601EBC606D6E900453A462046294600F0E3F8CDE90001DDE9000122462B4600F0D9F803B043
:40600000F0BD332D06DDB5F5806F43D01046194603B0F0BDAEF2134E4FF0FF3121FA0EF10142F3D049080142D6D04FF0804320EA010143FA0EF70F43CEE721F000410143F8
:40604000E4D0C3F3130141EA000CCCF1000141EA0C0C13495C0C4FEA1C3C0CF4002C640401EBC6014CEA0403D1E900452046294600F0A0F8CDE90001DDE9000122462B46DE
:4060800000F096F8024621F0004141EAC67310461946BDE700F08EF8BAE700BFFFFF0F00A86C000000000000F8B5C1F30A5604460D460B46174616BB21F00043034332D09B
:4060C0000022314B00F028FA304A044697420D460B4637DB40F2FE72C1F30A56363E3E44964215DD24A1D1E9000122462B4600F053F821A3D3E9002300F00EFAF8BD40F211
:40610000FF72964224D040F2FE723E449642E9DC002E09DD23F0FF4323F4E00343EA065520462946F8BDF8BD16F1350F15DA4CF250339F42D6DC12A1D1E9000122462B4662
:4061400000F02AF80EA3D3E9002300F0E5F9F8BD02460B4600F02EF8F8BD23F0FF4323F4E003363643EA0655204629460022084B00F0D2F9F8BD00BF9C7500883CE4377E6C
:4061800059F3F8C21F6EA50100005043B03CFFFF0000903CAFF3008003F0004321F0004243EA0201704700BF81F0004102E000BF83F0004330B54FEA41044FEA430594EAA1
:4061C000050F08BF90EA020F1FBF54EA000C55EA020C7FEA645C7FEA655C00F0E2804FEA5454D4EB5555B8BF6D420CDD2C4480EA020281EA030382EA000083EA010180EA32
:40620000020281EA0303362D88BF30BD11F0004F4FEA01314FF4801C4CEA113102D0404261EB410113F0004F4FEA03334CEA133302D0524263EB430394EA050F00F0A7807E
:40624000A4F10104D5F1200E0DDB02FA0EFC22FA05F2801841F1000103FA0EF2801843FA05F359410EE0A5F120050EF1200E012A03FA0EFC28BF4CF0020C43FA05F3C0181A
:4062800051EBE37101F0004507D54FF0000EDCF1000C7EEB00006EEB0101B1F5801F1BD3B1F5001F0CD349085FEA30004FEA3C0C04F101044FEA445212F5800F80F09A8047
:4062C000BCF1004F08BF5FEA500C50F1000041EB045141EA050130BD5FEA4C0C404141EB010111F4801FA4F10104E9D191F0000F04BF01460020B1FA81F308BF2033A3F187
:406300000B03B3F120020CDA0C3208DD02F1140CC2F10C0201FA0CF021FA02F10CE002F11402D8BFC2F1200C01FA02F120FA0CFCDCBF41EA0C019040E41AA2BF01EB0451E9
:40634000294330BD6FEA04041F3C1CDA0C340EDC04F11404C4F1200220FA04F001FA02F340EA030021FA04F345EA030130BDC4F10C04C4F1200220FA02F001FA04F340EAE3
:406380000300294630BD21FA04F0294630BD94F0000F83F4801306BF81F480110134013D4EE77FEA645C18BF7FEA655C29D094EA050F08BF90EA020F05D054EA000C04BF1A
:4063C0001946104630BD91EA030F1EBF0021002030BD5FEA545C05D14000494128BF41F0004130BD14F580043CBF01F5801130BD01F0004545F0FE4141F470014FF00000F9
:4064000030BD7FEA645C1ABF194610467FEA655C1CBF0B46024650EA013406BF52EA033591EA030F41F4002130BD00BF90F0000F04BF0021704730B54FF4806404F1320482
:406440004FF000054FF0000150E700BF90F0000F04BF0021704730B54FF4806404F1320410F0004548BF40424FF000013EE700BF42004FEAE2014FEA31014FEA02701FBFFD
:4064800012F07F4393F07F4F81F06051704792F0000F14BF93F07F4F704730B54FF4607401F0004521F0004120E700BF50EA010208BF704730B54FF000050AE050EA01022D
:4064C00008BF704730B511F0004502D5404261EB41014FF4806404F132045FEA915C3FF4DCAE4FF003025FEADC0C18BF03325FEADC0C18BF033202EBDC02C2F1200300FA6E
:4065000003FC20FA02F001FA03FE40EA0E0021FA02F11444C1E600BF70B54FF0FF0C4CF4E06C1CEA11541DBF1CEA135594EA0C0F95EA0C0F00F0DEF82C4481EA030621EAB8
:406540004C5123EA4C5350EA013518BF52EA033541F4801143F4801338D0A0FB02CE4FF00005E1FB02E506F00042E0FB03E54FF00006E1FB03569CF0000F18BF4EF0010ED9
:40658000A4F1FF04B6F5007F64F5407404D25FEA4E0E6D4146EB060642EAC62141EA55514FEAC52040EA5E504FEACE2EB4F1FD0C88BFBCF5E06F1ED8BEF1004F08BF5FEA9E
:4065C000500E50F1000041EB045170BD06F0004646EA010140EA020081EA0301B4EB5C04C2BFD4EB0C0541EA045170BD41F480114FF0000E013C00F3AB8014F1360FDEBFF3
:40660000002001F0004170BDC4F10004203C35DA0C341BDC04F11404C4F1200500FA05F320FA04F001FA05F240EA020001F0004221F0004110EBD37021FA04F642EB06016F
:406640005EEA430E08BF20EAD37070BDC4F10C04C4F1200500FA04F320FA05F001FA04F240EA020001F0004110EBD37041F100015EEA430E08BF20EAD37070BDC4F120052D
:4066800000FA05F24EEA020E20FA04F301FA05F243EA020321FA04F001F0004121FA04F220EA020000EBD3705EEA430E08BF20EAD37070BD94F0000F0FD101F0004640001C
:4066C00041EB010111F4801F08BF013CF7D041EA060195F0000F18BF704703F00046520043EB030313F4801F08BF013DF7D043EA0603704794EA0C0F0CEA135518BF95EA3E
:406700000C0F0CD050EA410618BF52EA4306D1D181EA030101F000414FF0000070BD50EA410606BF1046194652EA430619D094EA0C0F02D150EA013613D195EA0C0F05D13C
:4067400052EA03361CBF104619460AD181EA030101F0004141F0FE4141F470014FF0000070BD41F0FE4141F4780170BD70B54FF0FF0C4CF4E06C1CEA11541DBF1CEA13551B
:4067800094EA0C0F95EA0C0F00F0A7F8A4EB050481EA030E52EA03354FEA013100F088804FEA03334FF0805545EA131343EA12634FEA022245EA111545EA10654FEA0026FD
:4067C0000EF000419D4208BF964244F1FD0404F5407402D25B084FEA3202B61A65EB03055B084FEA32024FF480104FF4002CB6EB020E75EB030E22BFB61A754640EA0C0057
:406800005B084FEA3202B6EB020E75EB030E22BFB61A754640EA5C005B084FEA3202B6EB020E75EB030E22BFB61A754640EA9C005B084FEA3202B6EB020E75EB030E22BF7D
:40684000B61A754640EADC0055EA060E18D04FEA051545EA16754FEA06164FEAC30343EA52734FEAC2025FEA1C1CC0D111F4801F0BD141EA00014FF000004FF0004CB6E7D7
:4068800011F4801F04BF01430020B4F1FD0C88BFBCF5E06F3FF6AFAEB5EB030C04BFB6EB020C5FEA500C50F1000041EB045170BD0EF0004E4EEA113114EB5C04C2BFD4EB6C
:4068C0000C0541EA045170BD41F480114FF0000E013C90E645EA060E8DE60CEA135594EA0C0F08BF95EA0C0F3FF43BAF94EA0C0F0AD150EA01347FF434AF95EA0C0F7FF4A3
:4069000025AF104619462CE795EA0C0F06D152EA03353FF4FDAE1046194622E750EA410618BF52EA43067FF4C5AE50EA41047FF40DAF52EA43057FF4EBAE12E74FF0FF3CC6
:4069400006E000BF4FF0010C02E000BF4FF0010C4DF804CD4FEA410C7FEA6C5C4FEA430C18BF7FEA6C5C1BD001B050EA410C0CBF52EA430C91EA030F02BF90EA020F00206A
:40698000704710F1000F91EA030F58BF994208BF90422CBFD8176FEAE37040F0010070474FEA410C7FEA6C5C02D150EA013C07D14FEA430C7FEA6C5CD6D152EA033CD3D033
:4069C0005DF8040B704700BF8446104662468C461946634600E000BF01B5FFF7B7FF002848BF10F1000F01BD4DF808EDFFF7F4FF0CBF012000205DF808FB00BF4DF808ED9D
:406A0000FFF7EAFF34BF012000205DF808FB00BF4DF808EDFFF7E0FF94BF012000205DF808FB00BF4DF808EDFFF7CEFF94BF012000205DF808FB00BF4DF808EDFFF7C4FFD7
:406A400034BF012000205DF808FB00BF4A0011D212F5001211D20DD56FF47873B3EB62520ED44FEAC12343F0004343EA505323FA02F070474FF00000704750EA013002D1E1
:406A80004FF0FF3070474FF000007047014B1868704700BF9081FF1F0E4B70B51E460E4C0025E41AA410A54204D056F8253098470135F8E700F002F9084B094C1E46E41AF0
:406AC000A4100025A54204D056F8253098470135F8E770BDC86C0000C86C0000C86C0000D06C000010B5431E0A44914204D011F8014B03F8014FF8E710BD0346024493429B
:406B000002D003F8011BFAE770470000000000004001F0020100501EC84900401900004F0040180040510040300000000140001000140140000800400140000A004C01405A
:406B400000020050014020000F312B0C0E084EF1370710030E090000000E1403110731C148080F0C31360F000804802880ED0024369112432004802880ED00243691124344
:406B800010048026C6ED001E3691124340048026C6ED013D009112430000001DBDBF018112819351120C0D171832191A03373839FF00000009100E00090115003FA6410006
:406BC0004208160633C034BFA88096048E003C778B0635919488958840C1292F0F4313E03D5069805C965D965E1059EB5A9C5B5543F0441045554686476448865FE0608CD4
:406C00006120A5D9A4748D0213E78C23A9B8AA92AB0A8FDF900091009F00A000143AFFFFE2652F227F2B7A3C075C143326A6813CBDCBF07A8807703C075C143326A6913CFE
:406C40004FBB610567ACDD3F182D4454FB21E93F9BF681D20B73EF3F182D4454FB21F93F6173696E00000000706F77007371727400000000000000000000000000000000C8
:406C80000000004003B8E23F000000000000000006D0CF43EBFD4C3E000000000000F03F000000000000F83F000000000000304300000000000030C343000000F8B500BFE3
:406CC000F8BC08BC9E4670474D00000035290000F8B500BFF8BC08BC9E46704729000000F06C00000881FF1FC00200001811000000000000327DC800019070127F800000B7
:406D0000070000000000A08C401901004800000000A24A04FFFFFF010000000000000000000000000000000000000000000000000000000000000000B86C0000000000006C
:406D400000000000000000000000000000000000000000000000000000000000000000000000000000000000000000000000000000000000000000003081FF1F0000000044
:406D8000F0B42448244B3FE01D1D1C6862B2C4F3072144F30746230E8C1AA41B8F18891903D4FF29A8BFFF2100E00021002C03DBFF2CA8BFFF2400E00024002F03DBFF2F9C
:406DC000A8BFFF2700E00027017044708770991A891B1A449B1903D4FF2BA8BFFF2300E00023002903DBFF29A8BFFF2100E00021002A03DBFF2AA8BFFF2200E00022C37048
:406E00000171427106302B46044A9342BCD3F0BC704700BFE483FF1FDC8FFF1F5C92FF1F10B4124B124A1BE0541C127812F0090F01D0FF2000E0002012F0020F01D0FF2118
:406E400000E0002112F00C0F01D0FF2200E00022187059709A70D87019715A710633224604498A42E0D35DF8044B7047E483FF1FDC8FFF1F7C90FF1F30B583B0032000F0DD
:406E80007FF80124144B1C70144D95F8C00395F8C11300F085F895F8C003214600F068F88DF8074007E00D4B93F8C00300210DF1070200F06DF89DF8073013F0010FF2D14D
:406EC000074B1B7813F0020FFAD00020024B187000F056F803B030BD7D640040E483FF1F6764004008B51E4B1B78012B19D113E00A6853B242F307428033DB1080325B01E8
:406F000003EBE203174A02EB4303B3F8C4230132A3F8C423043100E01349144B9942E7D308BD104AD2F8C43B591CC2F8C41B0BB1FFF7A2FF0A4B1B78022B02D1FFF770FFA8
:406F400001E0FFF71DFF074BD3F8C43BF02B05D10022044BC3F8C42BFFF78EFF08BD00BFD88FFF1FE483FF1FDC8FFF1F5C92FF1F01B40248844601BC604700BF1D2D00001A
:406F800001B40248844601BC604700BFA12C000001B40248844601BC604700BFED2D000001B40248844601BC604700BFD52D00000000000000000000000000000000000024
:406FC0000000000000000000000000000000000000000000000000000000000000000000000000000000000000000000000000000000000000000000000000000000000091
:407000000000000000000000000000000000000000000000000000000000000000000000000000000000000000000000000000000000000000000000000000000000000050
:407040000000000000000000000000000000000000000000000000000000000000000000000000000000000000000000000000000000000000000000000000000000000010
:4070800000000000000000000000000000000000000000000000000000000000000000000000000000000000000000000000000000000000000000000000000000000000D0
:020000040003F7
:0200000480007A
:40000000034F004009520040015A00400964004008650040690001403B010140400201405503014069040140560501404C060140540701405F08014057090140700A0140DE
:40004000560B01403D0C0140500D0140640E01403C0F01406B1401404E1501403D160140571701404718014050190140371A0140571B014008400140164101401542014088
:400080001243014005440140234501401D46014019470140144801401E4901401C4C01400E4D01400A5001400451014001200A4B161B00C40158105A113612FF1820192080
:4000C000600A6102DF0423403340810F826F840D896F8A0F8D0F8F6F27402AC02BC037C03AC03B40850D890D000402080F011004120814011C041E0820082204230226032A
:4001000027043001310432023302340C37013A203E014026410349FF4AFF4BFF4DA04F0150185280580459045A045B045C445D445F016040628064406540668068406A805E
