:4000000000800020110000006D0300006D03000008B5044B1A6803F53F5302331A6000F0A7F900BFFA46004010B5054C237833B9044B13B10448AFF300800123237010BDF7
:40004000A882FF1F00000000E0140000084B10B51BB108480849AFF300800848036803B910BD074B002BFBD0BDE81040184700BF00000000E0140000AC82FF1F0881FF1F17
:4000800000000000054B1B681BB90122034B1A6070470022014B1A60704700BF9486FF1F10B5022000F0F8FA0E4C40232370082000F0F2FAC82000F01BFC022000F0ECFA5D
:4000C00080232370082000F0E7FAC82000F010FC022000F0E1FA00232370082000F0DCFA10BD00BF7A64004008B50A2001F066F908BD00BF08B5232001F060F908BD00BF29
:400100000322014B1A7070477B64004010B50446FFF7F6FF0CE0032001F06CF8022000F0BBFA082000F0B8FA642000F0E1FB013C002CF0DC012001F05DF8022000F0ACFA5B
:40014000082000F0A9FA10BD08B5FFF7D9FF092001F050F8022000F09FFA082000F09CFA642000F0C5FB012001F044F8022000F093FA082000F090FA08BD00BF08B502208B
:40018000FFF7C4FF4FF4C87000F0B2FB00221A4B1A6005E0FFF7D8FF174A136801331360154B1B68022BF5DD0022134B1A601DE0FFF7A6FF092001F01DF8022000F06CFA1D
:4001C000082000F069FA642000F092FB012001F011F8022000F060FA082000F05DFA642000F086FB044A136801331360024B1B68022BDDDD08BD00BF2489FF1F08B508203D
:4002000000F04AFA002000F05BFA4FF42F7000F06FFB012000F054FA4FF42F7000F068FB002000F04DFA4FF42F7000F061FB012000F046FA08BD00BF08B501F027F80248E4
:4002400001F016F808BD00BF8500000008B501F099F830B10F2001F033F80F2001F036F808BD232001F02CF8232001F02FF808BD0022014B1A6070479486FF1F08B5FFF7F6
:40028000BDFFFFF7F5FF01F06FF8FFF7D5FF00F0E3FB00F037F800F0B9FC4120022100F0A3FC4FF4167000F053F80420012100F02DFC62B60120FFF729FFC82000F018FB2C
:4002C0000120FFF723FF0E4B1B68002BFBD0FFF755FF01F0BDF8FFF7E3FEFFF70BFF4FF4FA7000F005FBFFF7FFFE4FF4FA7000F0FFFAFFF7ABFF4FF4FA6000F0F9FAEAE715
:400300009486FF1F10B50120014641F6FF724FF4804300F075FF0D4C84F8C00300F0AAFA84F8C103A1B246F2494200F0D1FA94F8C1034FF47071FE22012300F0B5FA94F826
:40034000C003002100F022FA10BD00BFC482FF1F10B5C0F30A04210A2A20090100F044FC2B20E1B200F040FC10BD00BFFEE700BF08B5104E104D16E029686B68AC68002226
:4003800004E051F8040B43F8040B0432A242F8D1E868002203E0002143F8041B04328242F9D11035013E002EE6D101F05FF8FFF765FFFEE7010000001016000008B5134A0F
:4003C000134B1A60134A136843F40073136000230AE0032B03D8104A52F8231000E00F490F4A42F8231001332F2BF2D90D4B1A780D4B1A700A4A0D4B1A6000F0C5F800F05D
:400400007BF900220A4B1A6008BD00BF0004FA050CED00E014ED00E0000000006D0300000080FF1FBC7600400481FF1F08ED00E00081FF1FFEE700BFF0B40022174611E0C7
:4004400050F82760F3B226F0FF0608E001EB420511F812406D78A5550132013BDBB2002BF4D101371E2FEBD9F0BC7047064B1B78DBB203F00701054A11701B0901321370EA
:400480004422034B1A707047CF0100496E5800407658004038B505222C4B1A8018232C4A13700921023211800232137041F2BF21023211800232137041F2F851023211804B
:4004C00002321370022102F27222117008214FF040221170032102F5007211701D4A1278D2B21D490A701D4A138042F251221C4B1A80002419250CE01A4B1B7803F001038C
:4005000043EA440404F003044FF4F07000F0E4F8013D0DB1032CEFD115B90320FFF78AFF114B4FF480721A8007221A7000220F490A704820023108701A700222033B1A7026
:400540000B4A137843F00F03137038BD804000408240004008010049A14600402242004020420040254200400440004006400040A243004008B50A46002100F0A8FF08BDBD
:4005800008B500F099FF08BD10B572B661222F4B1A70FFF77FFF00240CE02D4963001A1952000A4423445B00C8589188FFF7E2FF0134E4B2072CF0D94FF090402549FFF781
:4005C0003BFF25480421FFF7D5FF24480421FFF7D1FF234A137843F0020313701032137843F0020313701F4C237843F040032370A2F58632513A137843F0100313701A4834
:400600001A490A22FFF7BCFF19481A490822FFF7B7FF194819490A22FFF7B2FF184819490822FFF7ADFF184818490A22FFF7A8FF174A137843F008031370FFF717FF15481C
:4006400021460E22FFF79CFF10BD00BF00480040E41400007C000048007600400876004003500140A04300400051004078050048C251004084050048F05100408C05004883
:40068000225100409805004830510040A005004822430040B0430040044A137803F0F00300F00F0018431070704700BFF0510040024B187800F00F00704700BFF1510040B8
:4006C000044A137803F0FB03800000F00400184310707047305100400230800803D000BF01380046FCD17047EFF3108072B6704780F31088704700BF0B4A7F23137080212D
:40070000517007E0DA0002F1804202F5F042013BDBB21370002BF5D1DB0003F1804303F5F04300221A7070470C81FF1F172815D831B103010A495A5C42F020025A5405E04F
:40074000030107495A5C02F0DF025A540001044A835C43F00103835400207047012070471070004017280CD80001074BC1180A7942F004020A71C25C42F00102C254002035
:4007800070470120704700BF1070004017280BD80001064A835C03F0F10301F0070143EA4101815400207047012070471070004041F6FF73994201D14FF4005141F6FF73B3
:4007C0009A4201D14FF40052172808D8C00000F1804000F5EC408180C280002070470120704700BF172805D8034B03EB0010417200207047012070471070004017280FD8A4
:4008000031B1094B03EB00135B7A03F07F030B7042B1054B03EB0010037A13700020704701207047002070471070004017281BD810B4C00000F1804404F5EC44D201D2B24A
:4008400001F07F01114321709DF804201201D2B203F00F03134363709DF8083003F00F03A3700020E07001E0012070475DF8044B704700BF10B5FFF737FF0A4B5B78182B20
:400880000BD9084A1478013B5370E30003F1804303F5F0431B78137000E0FF24FFF728FF204610BD0C81FF1F10F0800F0CD111F4704F0BD1C00000F1804000F5F04001807B
:4008C0008270C37000207047012070470120704710F0800F08D1C00000F1804000F5F0408180C280002070470120704701BE704710B5044605E0084B1868FFF7EDFEA4F5A5
:400900000044B4F5004FF6D8034B586800FB04F0FFF7E2FE10BD00BF1481FF1F70B504460E46074B1D681F2802D90020FFF7DEFF04F01F04103455F8240045F8246070BD32
:4009400008ED00E038B504460D46072902D90020FFF7CCFF1F2C02D90020FFF7C7FF04F01F0000F1604000F564406D01EDB2057038BD00BF2DE9F04107460E46FFF798FE43
:400980000546DFF8588098F80040E4B20320FFF783FE012388F800300E4B1B7813F0010FFAD047F480770C4B1F800A4B1B7813F0010FFAD0B6B2084B1E80064B1B7813F073
:4009C000020FFAD0054B1C702846FFF765FEBDE8F08100BF69640040926800407B6400402DE9F84380460F461646FFF761FE0546DFF8609099F80040E4B20320FFF74CFE45
:400A0000012389F80030114B1B7813F0010FFAD048F480780E4BA3F80080002208E00B4B1B7813F0010FFAD0B95C094B198001329642F4DC054B1B7813F0020FFAD0054BAF
:400A40001C702846FFF728FEBDE8F88369640040926800407B640040F0B589B0FFF728FE0746204D2E78F6B20320FFF715FE01232B701D4C40F2011323800520FFF738FF49
:400A800040F2111323806420FFF732FF40F2291323803620E821FFF76DFF144B04AC186859689A6807C499899A7B2180A2706C4653F8100F59689A6807C49A899B7B228034
:400AC000A370E02004A90F22FFF78AFFE12069460F22FFF785FF2E703846FFF7DDFD09B0F0BD00BF7B6400409268004014150000014B188880B2704784400040024B1878E2
:400B000000F00700704700BF8640004070B504460D46FFF7F3FF0646FFF7EAFF844257D02C4B1B7803F00203DAB296B900B184B938B9294B1C80294A137803F0BF0313707E
:400B400070BD264A137843F040031370224B1C8070BD22B3002322490B7002260F310E7004310B700C390B7803F07F030B701B4B1B7813F0080F00D08CB91A4B18800721A5
:400B8000013B1970164B1B7813F0010FFAD111490B7803F0FD030B700021114B19700D4B1B7813F0020F0DD00E4B1C800DB1032200E001220A4B1A70094B1B7813F0010FBD
:400BC000FAD170BD044B1C8002490B7813430B7070BD00BFA24300408440004086400040014000400240004038B505460C463020002100F04FFA0028F9D1284600F0A6FA31
:400C0000204600F0A3FA00F085FA38BD10B500F0C7F812208021FFF7E7FF0120FFF768FE002407E0254B03EB44035978FFF7DCFF0134A4B2214B13F81400FF28F2D1002447
:400C400005E01F4B195DFFF7CFFF0134A4B21D4B185DFF28F5D1012001464FF4804241F6FF7300F039F8184C2070FFF703FE607046F24D41154A92B2FFF72AFE62781046ED
:400C80004FF420710623FFF70FFE20780021FFF77DFD0F4800F0A0FA0E4B1A781A781A781B782078FFF75EFD20786178FFF79AFD20780121FFF73AFD10BD00BF8015000099
:400CC0004C150000701500008C86FF1FA486FF1F3582FF1F4D640040F0B583B086460F4616461D460A4C0023237000930193184671463A46FFF79AFD207831462A46FFF74E
:400D000057FD20780221FFF741FD207803B0F0BD2481FF1F10B50222114B1A7081220E3B1A70082202331A700C2211331A70002401331C704FF400420A4B1A600F200721FC
:400D4000FFF700FE0F200849FFF7E8FD1022074B1A70074B1C70074B1C70074B1C7010BDD649004080E100E0C90D00002889FF1F3C89FF1F2D89FF1F3489FF1F08B5FFF725
:400D8000B3FC064A137843F0040313701032137843F004031370FFF7ABFC08BDA543004008B5074B1B7823B9FFF7B4FF0122044B1A70FFF7E3FF4FF40042024B1A6008BDCC
:400DC0008E86FF1F00E100E038B5A44B1C78E4B2A34B1B7813F0400F00F0378114F0010F00F01B819E4B1B78453B052B00F21281DFE813F006008200100110010600DE00D6
:400E000004F0DF0504F00A04082C42D1944B1B78DBB2452B35D1934B1B7813F0FF0F10D0914B1B681B78DBB2904A137004228B4B1A7001228E4B1A704622894B1A702C469A
:400E4000EBE08C4B1B7813F0020F0DD08A4A137843F00A0313706022814B1A704FF40042864B1A602C46D8E0854A137843F0100313701022834B1A700422023B1A702C464C
:400E8000CBE00022754B1A704A22754B1A702C46C3E00A2C2BD1784A137843F0A0031370744B1B7813F0020F14D06D4B1B7813F0080F01D0092300E00A236F4A11780B432F
:400EC00013706022664B1A704FF400426B4B1A602C46A2E06A4A137843F0100313701022684B1A700422023B1A702C4695E00020FFF7FCFC2C4690E014F0020F35D15C4B0C
:400F00001B78584A1278DBB2934210D2584A1378DBB255490968CB5CDBB254490B7004214E4B197013780133DBB2137075E0514B1B7813F0020F0CD04F4A137843F00A032B
:400F400013706022464B1A704FF400424B4B1A6063E04B4A137843F0100313701022494B1A700422023B1A7057E0424B1B7813F0020F0CD0404A137843F09A031370602222
:400F8000374B1A704FF400423C4B1A6045E03C4A137843F01003137010223A4B1A700422023B1A70344A137843F09003137034E0354A1378DBB2354908682C490978C9B216
:400FC000C15413780133DBB213701378304A1278DBB2934203D21022204B1A701DE0254B1B7813F0020F0CD0234A137843F00903137060221A4B1A704FF400421F4B1A609C
:401000000BE01F4A137843F0100313700022134B1A7002E00020FFF769FC14F0200F1CD00F4B1B7813F0080F01D0012300E00223114A11780B431370114A137803F0EF0301
:4010400013701022064B1A7038BD054B1B7813F0100F02D11022024B1A7038BDD74900402889FF1F2C89FF1F3089FF1FD84900403489FF1F2F89FF1F3C89FF1F80E100E006
:40108000D6490040D94900402D89FF1F3889FF1F2E89FF1F1A4B1B78DBB2102B29D1194B1B7813F0080F26D14FF40042164B1A604000C0B229B140F001004922104B1A70B8
:4010C00002E045220E4B1A70104B1870012201331A700F4B1B7813F0010FFAD00C4B1B7803F00A030A2B08D11022054B1A700320704702207047012070470020704700BF11
:401100002889FF1FD949004080E100E0D8490040D74900400A4B1B7813F0040F0ED01023074A13700421023A1170064A1370064B1B7813F0210FFAD0002070470220704753
:40114000D94900402889FF1FD7490040114B1B7813F0040F1BD0104B18700422013B1A7046220E4B1A700E4B1B7813F0010FFAD00B4B1B7813F0020F04D16022074B1A70DB
:40118000002070476022054B1A70032070470220704700BFD9490040D84900402889FF1FD7490040014B1B681864704708ED00E04001C0B2014B1870704700BF00E400E000
:4011C0000122014B1A60704700E100E00122014B1A60704780E100E010B50446FFF7F6FF2046FFF7DFFF0120FFF7E2FFFFF7E8FF10BD00BF014B1870704700BF7A640040B0
:40120000F0B583B086460F4616461D460A4C0120207000230093019371463A46FFF706FB207831462A46FFF7C3FA20780221FFF7ADFA207803B0F0BD2581FF1F014B1B6862
:401240005864704708ED00E04001C0B2014B1870704700BF01E400E00222014B1A60704700E100E00222014B1A60704780E100E010B50446FFF7F6FF2046FFF7DFFF0720C5
:40128000FFF7E2FFFFF7E8FF10BD00BF0222014B1A60704780E200E0024A137843F08003137070477C640040014B1870704700BF0C640040014B1870704700BF4C640040F0
:4012C000014B1870704700BF2C640040014B1870704700BF3C640040014B1870704700BF8C640040014B1878704700BF6C640040014B1878704700BF5C64004008B501E0DE
:40130000FFF7F6FFFFF7EEFF10F0100FF8D108BD10B5134A137803F0C00343F009031370104C237843F001032370FF20FFF7BCFFFF20FFF7BFFF2320FFF7C2FF2320FFF776
:40134000C5FF0020FFF7C8FFFFF7CEF9237843F010032370FFF7CCF9FFF7D0FF10BD00BF7C6400409C64004008B5054B1B7823B9FFF7CEFF0122024B1A70FFF78DFF08BDAF
:401380008F86FF1F024B1878C0F30010704700BF01510040024A137843F080031370704779650040014B1870704700BF09650040014B1870704700BF49650040014B187069
:4013C000704700BF29650040014B1870704700BF89650040014B1878704700BF69650040014B1878704700BF5965004008B501E0FFF7F6FFFFF7EEFF10F0100FF8D108BD68
:4014000010B5114A137803F0C00343F0090313700E4C237843F001032370FF20FFF7C2FFFF20FFF7C5FF3220FFF7C8FF0020FFF7CBFFFFF759F9237843F010032370FFF77A
:4014400057F9FFF7D3FF10BD796500409965004008B5054B1B7823B9FFF7D2FF0122024B1A70FFF797FF08BD9086FF1F0E4B70B51E460E4C0025E41AA410A54204D056F84D
:40148000253098470135F8E700F0B0F8084B094C1E46E41AA4100025A54204D056F8253098470135F8E770BDF8150000F8150000F81500000016000010B5431E0A44914265
:4014C00004D011F8014B03F8014FF8E710BD03460244934202D003F8011BFAE77047000000000000C849004019001051004010004051004030000000014000100014014025
:40150000000800400140000A004C014000020050014020000F312B0C0E084EF1370710030E090000000E1403110731C148080F0C31360F000804802880ED00243691124333
:401540002004802880ED00243691124310048026C6ED001E3691124340048026C6ED013D009112430000001DBDBF018112819351120C0D171832191A03373839FF0000008F
:4015800009100E00090115003FA641004208160633C034BFA88096048E003C778B0635919488958840C1292F0F4313E03D5069805C965D965E1059EB5A9C5B5543F0441008
:4015C00045554686476448865FE0608C6120A5D9A4748D0213E78C23A9B8AA92AB0A8FDF900091009F00A000143AFFFFF8B500BFF8BC08BC9E4670474D000000BD0300009A
:40160000F8B500BFF8BC08BC9E46704729000000201600000881FF1FA001000098060000000000007F800000030000000000A08C401901004800000000A24A04FFFF000028
:40164000F0B42448244B3FE01D1D1C6862B2C4F3072144F30746230E8C1AA41B8F18891903D4FF29A8BFFF2100E00021002C03DBFF2CA8BFFF2400E00024002F03DBFF2F33
:40168000A8BFFF2700E00027017044708770991A891B1A449B1903D4FF2BA8BFFF2300E00023002903DBFF29A8BFFF2100E00021002A03DBFF2AA8BFFF2200E00022C370DF
:4016C0000171427106302B46044A9342BCD3F0BC704700BFC482FF1FA486FF1F2489FF1F30B583B0032000F05BF80124144B1C70144D95F8C00395F8C11300F049F895F875
:40170000C003214600F03CF88DF8074007E00D4B93F8C00300210DF1070200F049F89DF8073013F0010FF2D1074B1B7813F0020FFAD00020024B187000F032F803B030BD95
:401740007B640040C482FF1F6964004008B50B4AD2F8C433591CC2F8C4130BB1FFF7C0FFFFF76EFF054BD3F8C433F02B05D10022024BC3F8C423FFF7B3FF08BDC482FF1F47
:4017800001B40248844601BC604700BF2D07000001B40248844601BC604700BFE507000001B40248844601BC604700BF9906000001B40248844601BC604700BFFD070000B6
:4017C00000000000000000000000000000000000000000000000000000000000000000000000000000000000000000000000000000000000000000000000000000000000E9
:4018000000000000000000000000000000000000000000000000000000000000000000000000000000000000000000000000000000000000000000000000000000000000A8
:401840000000000000000000000000000000000000000000000000000000000000000000000000000000000000000000000000000000000000000000000000000000000068
:401880000000000000000000000000000000000000000000000000000000000000000000000000000000000000000000000000000000000000000000000000000000000028
:020000040003F7
:0200000480007A
:40000000085200400164004001650040010301400105014003070140340801403A0901402A0A01403A0B0140400C0140320D014002150140041701403A1801403619014024
:40004000091B01400540014010410140084201400A430140044401401D45014016460140104701401148014009490140114C0140074D01400950014003510140008001C0B9
:400080001039115512FF1820605061408C0F890DE20CE640E204E602E8021B013101560859045B045C305D905F0183048505870A8F0892049602970198019A029B02A40440
:4000C000AA01B004B10CB403B503B802BE10BF11C024C106C5E4C6C0C70DC81BC9FFCAFFCBFFD001D601D804D904DA04DB04DC01DD01DF01E2F0E420E620E820EAE0EC20BE
:40010000EE2009180A401030131019201A402004210125022840290130083210361038883B014110424049014A2850205110520858505F8068086A026B11728473118240C0
:400140008380862089018D209088922096059C029D019E909F31A080A118A604A710AF80B014B410C20EC406CC26CE0BD005D204D61CE001E80203200515072A0F021301AF
:4001800017081A011B04260228012A022F10310C3203330335303E043F15580459045B045F0183018B0296019A019C01A401A701A801AC01B102B401B701B820D608D804DA
:4001C000D904DB04DC28DD90DF310A040D200E010F201120130414021610172018201D201F2020282201250127022A802F1032043311380A39803E203F025F806880698073
:400200006A286C046DA07041710873047F808380870289408A018D0193209A20A301A501A604A7A0B022B414B510B704C2E2C4E6CA48CC07CEABD610DE80E402E6440102DC
:40024000020806040B021C01260427012B012E033004310232013408350136023F104030410245D046104752483A49FF4AFF4BFF4DA04F04501852805407580459045A04FE
:400280005B045C225D225F01604062C06440654066C068C06AC06CC06EC099019B02A502A701B103BF01C206C7E0C820C9FFCAFFCBFFCF83D904DA04DB04DD08DF31050211
:4002C00006200D80141016011C801D801E101F10204027882B202C102F1830203D023E20441046044A044F01530256255709588259105B045E105F896054614075027B8085
:40030000870288808940A440B040C030C280C4A0CA62CC04CEA0D060D204D6FFD80FDE01E204E842EC10E020E202EA08EC2005010B011001160119012101290130013301FB
:400340003F04580459045C035F01850286018704930296019B019F04A701AF08B101B201B306B508BE04BF04C020C106C5D1C620C80BC9FFCAFFCBFFCDA0CF04D018D28034
:40038000D405D804D904DA04DB04DC30DD33DF01E040E2C0E440E540E6C0E8C0EAC0ECC0EEC002200B200D020E2019041E40202021202222260429082A802E012F88308030
:4003C00031203201372038083F24412049094A104B20531059055A40728088028B089008920296019C029E109F20A080A102A614A710B380B404C004C234CAAACC2DCE6259
:40040000D004D204D60BE020E202EA08EC208602A202AE10AF04B010B7B0E002E840EC10358038043F10CC20CE60018009400C205B086208662082088710940497109D8065
:40044000C040C2C0D640D8C0E2303C808C0494049E209F08A020A140CE20800484029E209F08A020A440AD40E220E640E84073807E01DC01DE04010402040402052008881B
:400480000D100F80501051015480570258025C04601064106C088104880889049602B380C00FC20FD407D607D803DA01E205EC040280074082808601880889019434950282
:4004C00096029C12A488A504A702B130B481B604B740C00CE004E404EA0EEE0E811088108C10912094309B409C10A480A504AD10B002B302B404E00CE804EC030210030897
:4005000004020604270884408B08900498029F08A440AE20B020C0F0C820E240EA1058025C0490049802AE10B401B604D6C0E84011081380150179207D2087809120950101
:400540009B40A110A480A504AD01B410C40EDE03EC0274088408B080B740DE04EA08EC01000E010102140C0E0D010E04100812141C08000D03C01005D4000134E000E000AF
:400580000001000000707000700000000800300F0F0000000001000000FFFF00FFFF0001E40000E4E400A0000000000000000000000000000000000000000000000000004A
:4005C00000000000000000000000000000000000000000000000000000000000000000000000000000000000000000000000000000000000000000000000000000000000FB
:4006000000000000000000000000000000000000000000000000000000000000000000000000000000000000000000000000000000000000000000000000000000000000BA
:40064000000000000000000000000000000000000000000000000000000000000000000000000000000000000000000000000000000000000000000000000000000000007A
:40068000000000000000000000000000000000000000000000000000000000000000000000000000000000000000000000000000000000000000000000000000000000003A
:0200000490006A
:0400000000004005B7
:0200000490105A
:04000000BC90ACAF55
:0200000490303A
:02000000ADB59C
:0200000490402A
:4000000000000000000000000000000000000000000000000000000000000000000000000000000000000000000000000000000000000000000000000000000000000000C0
:400040000000000000000000000000000000000000000000000000000000000000000000000000000000000000000000000000000000000000000000000000000000000080
:400080000000000000000000000000000000000000000000000000000000000000000000000000000000000000000000000000000000000000000000000000000000000040
:4000C0000000000000000000000000000000000000000000000000000000000000000000000000000000000000000000000000000000000000000000000000000000000000
:0200000490501A
:0C00000000012E16106900012E20BE1E0B
:00000001FF